:102B0D0050726F6772616D6D652073746172746957
:102B1D006E672E2E2E0A004F4B0A006F75743320F0
:102B2D003D20300A006F757433203D20310A006F4F
:102B3D00757431203D20300A006F757431203D20B1
:102B4D00310A006F757432203D20310A006F7574A3
:102B5D0032203D20300A0063617264206964203D9B
:052B6D002025730A00A1
:1023FE0042006A0000410074004100750060320026
:10240E002C00000000000000000000000000000092
:10241E0000000000000000000000000000000000AE
:10242E00000000000000000000000000000000009E
:10243E000000004200640000420072000042009062
:10244E0000005400BB00000000000000000000006F
:10245E0000000000000000000042008A00644200FC
:10246E0086FFD8420070869F42006EFFFF420084B6
:10247E00006442007E0000420082000042007C00A8
:10248E000042006C0000420068000042007A00002A
:10249E0042007800004200760000420060000042D8
:1024AE00005E000042002A00004200D00000420000
:1024BE0062000042006600004200800000420028D8
:0724CE00000042008800003D
:101E1200C2A2122D807BFF7A2B790D122C3A9000F0
:101E22006AE07004A3E06401700302224690007627
:101E3200E07004A3E06401700930B204D2A280020F
:101E4200C2A220B77720B774900062E07004A3E0CA
:101E5200640160F4900066E4F0A304F0D2A21230B0
:101E6200067F5A7E00122EBF900216EEF0A3EFF00C
:101E7200122FA4900212E4F0A304F0900214E4F0F2
:101E8200A304F07FE87E03122F4F7FE87E03122F18
:101E92004F7FF47E01122F4F12308B122D3F7BFFAA
:101EA2007A2B7924122C3AE4900212F0A3F09002D9
:101EB20014F0A3F0C2A2900066F0A3F030B40302C3
:101EC2001F52900060E07004A3E064016003021FEF
:101ED20052900088E07002A3E0702BC296900188B5
:101EE20074FFF0A3742BF0A37428F07B017A0179BC
:101EF200F41219F47B017A0179F4122C3A900088D9
:101F0200E4F0A3048034900088E07004A3E064014C
:101F1200703ED29690018874FFF0A3742BF0A374E4
:101F220032F07B017A0179F41219F47B017A01799A
:101F3200F4122C3AE4900088F0A3F07FE87E0312BA
:101F42002F4F7FE87E03122F4F7FF47E01122F4F17
:101F520090007CE07004A3E06401703D9001BAE05F
:101F6200FEA3E0FFD3900087E09FEE6480F890002C
:101F720086E06480984022C29490018874FFF0A3A6
:101F8200742BF0A3743CF07B017A0179F41219F4FA
:101F92007B017A0179F4122C3A900082E07004A35A
:101FA200E06401703D90008AE0FEA3E0FFD390015F
:101FB200BBE09FEE6480F89001BAE0648098402212
:101FC200D29490018874FFF0A3742BF0A37446F0AE
:101FD2007B017A0179F41219F47B017A0179F41206
:101FE2002C3A90007AE07004A3E06401703D900006
:101FF20084E0FEA3E0FFD39001B9E09FEE6480F895
:102002009001B8E06480984022C29790018874FFE2
:10201200F0A3742BF0A37450F07B017A0179F412CF
:1020220019F47B017A0179F4122C3A900078E0706D
:1020320004A3E06401703D90007EE0FEA3E0FFC3D4
:102042009001B9E09FEE6480F89001B8E064809856
:102052005022D29790018874FFF0A3742BF0A374DE
:102062005AF07B017A0179F41219F47B017A017931
:10207200F4122C3A900068E07004A3E064017057F7
:1020820090006EE0FEA3E0FFC3900146E09FEE6485
:1020920080F8900145E0648098503CC29690018897
:1020A20074FFF0A3742BF0A37428F07B017A0179FA
:1020B200F41219F47B017A0179F4122C3A90008C13
:1020C200E024D024FF92A1A3E024D024FF92A0A375
:1020D200E024D024FF92A390006CE07004A3E0649B
:1020E200017043900070E0FEA3E0FFD3900146E050
:1020F2009FEE6480F8900145E06480984028D29673
:1021020090018874FFF0A3742BF0A37432F07B016A
:102112007A0179F41219F47B017A0179F4122C3ADA
:10212200D2A1D2A0D2A3900075E064016003021E86
:10213200209001EFE07004A3E06401702C9001880C
:1021420074FFF0A3742BF0A37464F0A37401F0A3E2
:102152007400F0A374BBF07B017A0179F41219F4D4
:102162007B017A0179F4122C3A78BB7C007D017BE9
:10217200017A007914121972EF6003021E20900096
:102182005EE07004A3E06401600302222890002A4A
:10219200E07004A3E06401600302222878BB7C00A3
:1021A2007D017B017A007914121972EF7078900028
:1021B20062E07004A3E0640160F4900066E4F0A3BE
:1021C20004F0D2A21230069000D0E0FEA3E0FF128B
:1021D2002EBF900216EEF0A3EFF0122FA49002127F
:1021E200E4F0A304F0900214E4F0A304F07FE87E8C
:1021F20003122F4F7FE87E03122F4F7FF47E0112CE
:102202002F4F12308B122D3F7BFF7A2B7924122C09
:102212003AE4900212F0A3F0900214F0A3F0C2A2EA
:10222200900066F0A3F0123006E59A30E00B539A64
:10223200FE9000CFE59BF080F0E4900075F0122D47
:102242003F021E20120046E490006AF0A3F0021E34
:01225200206B
:102F3100D3EF9400EE940040147D6E7C00ED1D7083
:0D2F4100011CED4C70F7EF1F70E61E80E3E1
:012F4E002260
:102D8000758920758DFD758BFDD28ED29CC29FD228
:102D90009ED2AFD2ACD2BC759A50759CFD438E10BA
:102DA00053A2EF43AF01E4F5B5F5B6122FBE7F8015
:092DB000122FF512271C022E5D02
:10300600C28EC2AFE4900212F0A3F0900214F0A3B5
:02301600F022A6
:102D3F00758920758DFD758BFDD28ED29CC29FD269
:102D4F009ED2AFD2AC759A50759CFD438E1053A294
:102D5F00EF43AF01E4900212F0A3F0900214F0A33E
:102D6F00F0D2AFD28ED28CD2B2122FBE7F80022F72
:012D7F00F55E
:102FA400758911758CB2758AE0758DFB758B24D289
:0A2FB400AFD28CD2A9D28ED2AB228C
:09308B00C2A9C28EC2ABD2AF2271
:0B2C3A00900183EBF0A3EAF0A3E9F0A7
:102C4500900183E0FBA3E0FAA3E0F91200269001CE
:102C550086EEF0A3EFF0900183E0FBA3E0FAA3E09A
:102C6500F9E4FFFED3900187E09FEE6480F89001C0
:102C750086E064809840181216B5F5993099FDC222
:0F2C850099740129F9E43AFA0FBF00010E80D5C6
:012C9400221D
:102E5D00E4F5D8F5E9F5F9F5D990021874B4F0A3B5
:102E6D00E4F0900218E0FEA3E0F5EAEEF5FAE024B6
:102E7D0000F0900218E034B4F075DA49D2DED2AF2A
:012E8D002222
:1024D5004101B5004901CE525332333200000000AC
:1024E5004201BE00004201BC00004201BA000042A8
:0424F50001B800002A
:0330800012308388
:073083000000007F18DFFED2
:01308A002223
:0E303B0000007F017EC27D9FDDFEDEFCDFFA1D
:013049002264
:0C000E007F167E037DE3DDFEDEFCDFFAE2
:01001A0022C3
:102C9500E4FE9001C67402F020A70A9001C6E0FF89
:102CA50004F0EF70F3123080123083E49001CBF022
:102CB50030A70204F09001C67402F030A70A900113
:102CC500C6E0FF04F0EF70F39001C6E06401601602
:102CD5009001DAE025E0FFF09001CBE04F9001DABA
:062CE500F00EEEB408AC95
:012CEB0022C6
:1027CB00C2A712303BD2A7123080D2A730A7030288
:1027DB0028719001C67402F020A70A9001C6E0FF91
:1027EB0004F0EF70F39001C67402F030A70A900169
:1027FB00C6E0FF04F0EF70F3122C959001DAE09035
:10280B0001D7F0122C959001DAE09001D8F0122C40
:10281B00959001DAE09001C0F0122C959001DAE06E
:10282B009001C1F0122C959001DAE0FF9001CAF0F3
:10283B00D2A79001C1E0FE9001C0E0FD2EFC9001FB
:10284B00D7E0FB2CFCA3E0FA2C9001CBF0B50716DC
:10285B00A3EBF0A3EAF09001B6EDF0A3EEF090013C
:07286B00CAE09001C8F02251
:102DF2001227CB9001B6E0FF9001BAE4F0A3EFF006
:102E02009001B7E0FF9001BEE4F0A3EFF09001CC97
:102E1200E0FF9001B8E4F0A3EFF09001CDE0FF9065
:082E220001BCE4F0A3EFF02273
:0F24F90042021605DC42021200004202140000EB
:102F4F00EF1FAA0670011E4A6013E4FCFDC3ED9447
:0D2F5F007DEC940050EA0DBD00010C80F0E7
:012F6C002242
:102EBF007C007D0B12170DEF24F4FDEE3401FC1294
:102ECF001351E4FBFA795278431212AFE4FBFA790B
:092EDF003478431211A612138A83
:012EE80022C7
:10225300746573740072657475726E20746573743B
:102263000A0047455454454D504552415455524533
:102273000054203D2025642E25640A006F757431B7
:10228300203D2025640A0047455448554E4944499A
:1022930054590052203D2025642E25640A006F7591
:1022A3007432203D2025640A004745544C49474871
:1022B30054006F757433203D2025640A0053455440
:1022C3005354454552004F4B0A004F5554314F4E1E
:1022D300004F5554324F4E004F5554334F4E004F1D
:1022E3005554314F4646004F5554324F4646004FE2
:1022F3005554334F464600534554524742004250CB
:102303004D4F4E0042504D4F4646005345544D41AC
:1023130058005345544D494E005468203D202564D0
:102323002C2074656D706D696E203D2025640A0054
:1023330054203D2025640A00434152445345540030
:102343005354454552534554004745544F55543112
:10235300004745544F555432004745544F55543365
:1023630000534F554E44464C4147006F757433201C
:102373003D20300A004C49474854464C41470047EA
:1023830045545245444C49474854007265646C694E
:10239300676874203D2025640A00474554534F5510
:1023A3004E44464C414700736F756E64203D2025B3
:1023B300640A00474554414C4C464C4147494E49F9
:1023C3005400524742203D202564256425640A00B9
:1023D30062706D203D2025640A00524546524553E4
:1023E300484F4B0A004558495400455849544F4BF0
:0B23F3000A005345544D594C4544006E
:052508004201EF00009C
:1000460090018674FFF0A37422F0A37453F0A3E426
:10005600F0A37404F07B017A00792C122986EF70E4
:10006600309001EFF0A3F0C2DE90018874FFF0A398
:100076007422F0A37458F07B017A0179F41219F412
:100086007B017A0179F4122C3A900072E4F0A30411
:10009600F07BFF7A227965120026900189EEF0A3A3
:1000A600EFF090018674FFF0A37422F0A37465F05C
:0F00B6007B017A00792C122986EF600302015238
:1000C500900179F0A3F0122DF290018874FFF0A34E
:1000D5007422F0A37474F09001BAE0FFA3E09001DC
:1000E5008BCFF0A3EFF09001BEE0FFA3E090018D70
:1000F500CFF0A3EFF07B017A0179F41219F47B01BB
:100105007A0179F4122C3A30940A900179E4F0A33B
:1001150004F08007E4900179F0A3F090018874FF62
:10012500F0A37422F0A3747FF0900179E0FFA3E0BF
:1001350090018BCFF0A3EFF07B017A0179F41219CE
:0D014500F47B017A0179F4122C3A12262481
:100152007BFF7A227965120026900189EEF0A3EFE7
:10016200F090018674FFF0A37422F0A3748AF07BEE
:0E017200017A00792C122986EF600302020D3B
:10018000900179F0A3F0122DF290018874FFF0A392
:100190007422F0A37496F09001B8E0FFA3E0900100
:1001A0008BCFF0A3EFF09001BCE0FFA3E090018DB6
:1001B000CFF0A3EFF07B017A0179F41219F47B01FF
:1001C0007A0179F4122C3A30970A900179E4F0A37D
:1001D00004F08007E4900179F0A3F090018874FFA7
:1001E000F0A37422F0A374A1F0900179E0FFA3E0E2
:1001F00090018BCFF0A3EFF07B017A0179F4121913
:0D020000F47B017A0179F4122C3A122624C5
:10020D007BFF7A2279AC120026900189EEF0A3EFE4
:10021D00F090018674FFF0A37422F0A374ACF07B10
:0B022D00017A00792C122986EF70582E
:10023800900179F0A3F012251D7B017A0079D21282
:100248002C3A30960A900179E4F0A304F08007E490
:10025800900179F0A3F090018874FFF0A37422F064
:10026800A374B5F0900179E0FFA3E090018BCFF083
:10027800A3EFF07B017A0179F41219F47B017A017A
:0802880079F4122C3A1226242D
:100290007BFF7A2279C0120026900189EEF0A3EF4D
:1002A000F090018674FFF0A37422F0A374C0F07B79
:1002B000017A00792C122986EF600302037B9001FA
:1002C000F104F0A37400F0A3742CF0E49001EDF0BD
:1002D000A3F09001F275F008803F9001F1E0FBA3DC
:1002E000E0FAA3E0F91216B5FF60333395E0FEEFB4
:1002F00024D0FBEE34FFFA9001EDE0FEA3E0FF7C9A
:10030000007D0A12170DEF2BFFEE3A9001EDF0A3DE
:10031000EFF09001F2E475F00112177480BC123016
:10032000069001EDE0FEA3E0FF122EBF900216EE54
:10033000F0A3EFF0122FA4900212E4F0A304F090C7
:100340000214E4F0A304F07FE87E03122F4F7FE84D
:100350007E03122F4F7FF47E01122F4F12308B122B
:100360002D3F7BFF7A2279C9122C3AE4900212F0D9
:10037000A3F0900214F0A3F01226247BFF7A2279D6
:10038000CD120026900189EEF0A3EFF09001867463
:10039000FFF0A37422F0A374CDF07B017A00792CD6
:1003A000122986EF7002C2947BFF7A2279D4120060
:1003B00026900189EEF0A3EFF090018674FFF0A380
:1003C0007422F0A374D4F07B017A00792C12298670
:1003D000EF7002C2977BFF7A2279DB120026900130
:1003E00089EEF0A3EFF090018674FFF0A37422F081
:1003F000A374DBF07B017A00792C122986EF70025E
:10040000C2967BFF7A2279E2120026900189EEF0F3
:10041000A3EFF090018674FFF0A37422F0A374E2BE
:10042000F07B017A00792C122986EF7002D2947B3E
:10043000FF7A2279EA120026900189EEF0A3EFF00C
:1004400090018674FFF0A37422F0A374EAF07B019C
:100450007A00792C122986EF7002D2977BFF7A22DC
:1004600079F2120026900189EEF0A3EFF090018658
:1004700074FFF0A37422F0A374F2F07B017A007988
:100480002C122986EF7002D2967BFF7A2279FA121B
:100490000026900189EEF0A3EFF090018674FFF042
:1004A000A37422F0A374FAF07B017A00792C12294C
:1004B00086EF7035900032E024D024FF92A1A3E0B3
:1004C00024D024FF92A0A3E024D024FF92A37FE8AD
:1004D0007E03122F4F7FE87E03122F4F7FF47E01A1
:1004E000122F4FD2A3D2A0D2A17BFF7A237901127F
:1004F0000026900189EEF0A3EFF090018674FFF0E2
:10050000A37423F0A37401F07B017A00792C1229E3
:1005100086EF7002D2A27BFF7A2379071200269021
:100520000189EEF0A3EFF090018674FFF0A374232D
:10053000F0A37407F07B017A00792C122986EF7002
:1005400002C2A27BFF7A23790E120026900189EE67
:10055000F0A3EFF090018674FFF0A37423F0A3746E
:100560000EF07B017A00792C122986EF60030207D6
:100570002B9001F104F0A37400F0A3742CF090010F
:10058000F2E475F0061217749001F1E0FBA3E0FAB3
:10059000A3E0F91216B56454707790008AF0A3F0C6
:1005A0009001F275F0041217749001F1E0FBA3E0E2
:1005B000FAA3E0F91216B5700C900082F0A3F09047
:1005C000008A0206D99001F1E0FBA3E0FAA3E0F96A
:1005D0001216B5FF60333395E0FEEF24D0FBEE3406
:1005E000FFFA90008AE0FEA3E0FF7C007D0A12176C
:1005F0000DEF2BFFEE3A90008AF0A3EFF09001F29E
:10060000E475F00112177480BC900082E4F0A3043A
:10061000F09001F1E0FBA3E0FAA3E0F91216B56453
:100620004C707C900070F0A3F09001F275F0051210
:1006300017749001F1E0FBA3E0FAA3E0F91216B5FC
:10064000701190006CF0A3F09000707486F0A374A9
:100650009FF0229001F1E0FBA3E0FAA3E0F912166B
:10066000B5FF60333395E0FEEF24D0FBEE34FFFAA4
:10067000900070E0FEA3E0FF7C007D0A12170DEFF2
:100680002BFFEE3A900070F0A3EFF09001F2E475CA
:10069000F00112177480BC90006CE4F0A304F09099
:1006A00001F1E0FBA3E0FAA3E0F91216B56448708B
:1006B0007A900084F0A3F09001F275F004121774A0
:1006C0009001F1E0FBA3E0FAA3E0F91216B5700F78
:1006D00090007AF0A3F0900084F0A37464F022906C
:1006E00001F1E0FBA3E0FAA3E0F91216B5FF6033D5
:1006F0003395E0FEEF24D0FBEE34FFFA900084E067
:10070000FEA3E0FF7C007D0A12170DEF2BFFEE3AEF
:10071000900084F0A3EFF09001F2E475F00112175D
:100720007480BC90007AE4F0A304F07BFF7A237914
:1007300015120026900189EEF0A3EFF09001867467
:10074000FFF0A37423F0A37415F07B017A00792CD9
:10075000122986EF60030209869001F104F0A37468
:1007600000F0A3742CF09001F2E475F006121774F7
:100770009001F1E0FBA3E0FAA3E0F91216B564548E
:10078000600302083F900086F0A3F09001F275F03C
:10079000041217749001F1E0FBA3E0FAA3E0F91250
:1007A00016B5701190007CF0A3F090008674FFF0F5
:1007B000A374D8F0229001F1E0FBA3E0FAA3E0F9E2
:1007C0001216B5FF60333395E0FEEF24D0FBEE3414
:1007D000FFFA900086E0FEA3E0FF7C007D0A12177E
:1007E0000DEF2BFFEE3A900086F0A3EFF09001F2B0
:1007F000E475F00112177480BC90007CE4F0A3044F
:10080000F090018874FFF0A37423F0A3741CF0909F
:1008100001BAE0FFA3E090018BCFF0A3EFF09000CE
:1008200086E0FFA3E090018DCFF0A3EFF07B017A8B
:100830000179F41219F47B017A0179F4122C3A90BF
:1008400001F1E0FBA3E0FAA3E0F91216B5644C60F5
:10085000030208FC90006EF0A3F09001F275F00521
:100860001217749001F1E0FBA3E0FAA3E0F912166D
:10087000B5700E900068F0A3F074FF90006E02094E
:10088000369001F1E0FBA3E0FAA3E0F91216B5FF00
:1008900060333395E0FEEF24D0FBEE34FFFA900096
:1008A0006EE0FEA3E0FF7C007D0A12170DEF2BFF28
:1008B000EE3A90006EF0A3EFF09001F2E475F001D3
:1008C00012177480BC900068E4F0A304F0900188D3
:1008D00074FFF0A37423F0A37433F0900145E0FF9C
:1008E000A3E090018BCFF0A3EFF07B017A0179F4C4
:1008F0001219F47B017A0179F4122C3A9001F1E09B
:10090000FBA3E0FAA3E0F91216B5644870789000F2
:100910007EF0A3F09001F275F0041217749001F1CB
:10092000E0FBA3E0FAA3E0F91216B5700D90007891
:10093000F0A3F090007EF0A3F0229001F1E0FBA381
:10094000E0FAA3E0F91216B5FF60333395E0FEEF4D
:1009500024D0FBEE34FFFA90007EE0FEA3E0FF7CA3
:10096000007D0A12170DEF2BFFEE3A90007EF0A3E8
:10097000EFF09001F2E475F00112177480BC900062
:1009800078E4F0A304F07BFF7A23793B12002690F1
:100990000189EEF0A3EFF090018674FFF0A37423B9
:1009A000F0A3743BF07B017A00792C122986EF705A
:0109B00071D5
:1009B1007B0190017904F0A37400F0A37414F0900A
:1009C10001F1EBF0A37400F0A3742CF09001F2E4B8
:1009D10075F00780319001F1E0FBA3E0FAA3E0F9A3
:1009E1001216B5FF6025900179E0FBA3E0FAA3E0C0
:1009F100F9EF1216FB90017AE475F0011217749069
:100A010001F2E475F00112177480CA900179E0FBDC
:100A1100A3E0FAA3E0F9E41216FB90002AF0A30484
:010A2100F0E4
:100A22007BFF7A237943120026900189EEF0A3EF2F
:100A3200F090018674FFF0A37423F0A37443F07B5B
:100A4200017A00792C122986EF706A9001F104F084
:100A5200A37400F0A3742CF09001F2E475F0081274
:100A62001774E49000D0F0A3F09001F1E0FBA3E052
:100A7200FAA3E0F91216B5FF60333395E0FEEF24D6
:100A8200D0FBEE34FFFA9000D0E0FEA3E0FF7C0042
:100A92007D0A12170DEF2BFFEE3A9000D0F0A3EF74
:100AA200F09001F2E475F00112177480BC90005EC0
:100AB200E4F0A304F07BFF7A23794C120026900124
:100AC20089EEF0A3EFF090018674FFF0A37423F097
:100AD200A3744CF07B017A00792C122986EF7048BE
:100AE200900179F0A3F0309409900179F0A304F019
:100AF2008007E4900179F0A3F090018874FFF0A3DD
:100B02007422F0A3747FF0900179E0FFA3E09001DA
:100B12008BCFF0A3EFF07B017A0179F41219F47B09
:080B2200017A0179F4122C3A6A
:100B2A007BFF7A237954120026900189EEF0A3EF15
:100B3A00F090018674FFF0A37423F0A37454F07B41
:0B0B4A00017A00792C122986EF704818
:100B5500900179F0A3F0309709900179F0A304F0A2
:100B65008007E4900179F0A3F090018874FFF0A369
:100B75007422F0A374A1F0900179E0FFA3E0900145
:100B85008BCFF0A3EFF07B017A0179F41219F47B96
:080B9500017A0179F4122C3AF7
:100B9D007BFF7A23795C120026900189EEF0A3EF9A
:100BAD00F090018674FFF0A37423F0A3745CF07BC6
:0B0BBD00017A00792C122986EF7048A5
:100BC800900179F0A3F0309609900179F0A304F030
:100BD8008007E4900179F0A3F090018874FFF0A3F6
:100BE8007422F0A374B5F0900179E0FFA3E09001BE
:100BF8008BCFF0A3EFF07B017A0179F41219F47B23
:080C0800017A0179F4122C3A83
:100C10007BFF7A237964120026900189EEF0A3EF1E
:100C2000F090018674FFF0A37423F0A37464F07B4A
:100C3000017A00792C122986EF704D7B017A0079B8
:100C4000359001F104F0A3EAF0A3E9F01216B5FF24
:100C5000B43108900060E4F0A304F0EFB43029E46C
:100C6000900060F0A3F0C29690018874FFF0A37426
:100C700023F0A3746EF07B017A0179F41219F47BEE
:100C8000017A0179F4122C3A7BFF7A2379781200E9
:100C900026900189EEF0A3EFF090018674FFF0A397
:100CA0007423F0A37478F07B017A00792C122986E2
:100CB000EF702D7B017A0079359001F104F0A3EA01
:100CC000F0A3E9F01216B5FFB43108900076E4F015
:100CD000A304F0EFB43009E4900076F0A3F0C2A2D0
:100CE0007BFF7A237982120026900189EEF0A3EF30
:100CF000F090018674FFF0A37423F0A37482F07B5C
:0B0D0000017A00792C122986EF705157
:100D0B00900179F0A3F0900076E07004A3E0640109
:100D1B007009900179F0A304F08007E4900179F059
:100D2B00A3F090018874FFF0A37423F0A3748EF0EA
:100D3B00900179E0FFA3E090018BCFF0A3EFF07B64
:100D4B00017A0179F41219F47B017A0179F4122CEE
:010D5B003A5D
:100D5C007BFF7A23799D120026900189EEF0A3EF98
:100D6C00F090018674FFF0A37423F0A3749DF07BC4
:0B0D7C00017A00792C122986EF7051DB
:100D8700900179F0A3F0900060E07004A3E06401A3
:100D97007009900179F0A304F08007E4900179F0DD
:100DA700A3F090018874FFF0A37423F0A374AAF052
:100DB700900179E0FFA3E090018BCFF0A3EFF07BE8
:100DC700017A0179F41219F47B017A0179F4122C72
:010DD7003AE1
:100DD8007BFF7A2379B6120026900189EEF0A3EF03
:100DE800F090018674FFF0A37423F0A374B6F07B2F
:0E0DF800017A00792C122986EF6003021106A1
:100E0600900179F0A3F09001EFF0A304F0C2DE1296
:100E16002DF290018874FFF0A37422F0A37474F08D
:100E26009001BAE0FFA3E090018BCFF0A3EFF09022
:100E360001BEE0FFA3E090018DCFF0A3EFF07B01B0
:100E46007A0179F41219F47B017A0179F4122C3AB9
:100E560012303B90018874FFF0A37422F0A37496BD
:100E6600F09001B8E0FFA3E090018BCFF0A3EFF084
:100E76009001BCE0FFA3E090018DCFF0A3EFF07BE3
:100E8600017A0179F41219F47B017A0179F4122CB2
:100E96003A12303B12251D7B017A0079D2122C3A88
:100EA60012303B30940A900179E4F0A304F08007F5
:100EB600E4900179F0A3F090018874FFF0A3742206
:100EC600F0A3747FF0900179E0FFA3E090018BCF4F
:100ED600F0A3EFF07B017A0179F41219F47B017A21
:100EE6000179F4122C3A12303B30970A900179E4DA
:100EF600F0A304F08007E4900179F0A3F090018854
:100F060074FFF0A37422F0A374A1F0900179E0FFBE
:100F1600A3E090018BCFF0A3EFF07B017A0179F487
:100F26001219F47B017A0179F4122C3A12303B3013
:100F3600960A900179E4F0A304F08007E490017921
:100F4600F0A3F090018874FFF0A37422F0A374B5A7
:100F5600F0900179E0FFA3E090018BCFF0A3EFF0D2
:100F66007B017A0179F41219F47B017A0179F41282
:100F76002C3A12303B20A109E490017BF0A3F080CB
:100F86000890017BE4F0A304F020A009E490017D21
:100F9600F0A3F0800890017DE4F0A304F020A309FB
:100FA600E490017FF0A3F0800890017FE4F0A304B1
:100FB600F090018874FFF0A37423F0A374C5F09039
:100FC600017BE0FFA3E090018BCFF0A3EFF090014F
:100FD6007DE0FFA3E090018DCFF0A3EFF090017FBD
:100FE600E0FFA3E090018FCFF0A3EFF07B017A0141
:100FF60079F41219F47B017A0179F4122C3A123041
:101006003B30A20A900181E4F0A304F08007E4904B
:101016000181F0A3F090018874FFF0A37423F0A37C
:1010260074D3F0900181E0FFA3E090018BCFF0A391
:10103600EFF07B017A0179F41219F47B017A0179D8
:10104600F4122C3A12303B900060E07004A3E06486
:10105600017009900179F0A304F08007E49001790A
:10106600F0A3F090018874FFF0A37423F0A374AA90
:10107600F0900179E0FFA3E090018BCFF0A3EFF0B1
:101086007B017A0179F41219F47B017A0179F41261
:101096002C3A900076E07004A3E064017009900198
:1010A60079F0A304F08007E4900179F0A3F09001B1
:1010B6008874FFF0A37423F0A3748EF0900179E096
:1010C600FFA3E090018BCFF0A3EFF07B017A0179CB
:1010D600F41219F47B017A0179F4122C3A12303B9E
:1010E60090018874FFF0A37423F0A374DDF07B01F4
:1010F6007A0179F41219F47B017A0179F4122C3A07
:101106007BFF7A2379E8120026900189EEF0A3EF9F
:10111600F090018674FFF0A37423F0A374E8F07BCB
:10112600017A00792C122986EF701D7BFF7A2379CC
:10113600ED122C3A122E5DD2A212000EC2A2E4903B
:1011460001EFF0A3F01226247BFF7A2379F5120033
:1011560026900189EEF0A3EFF090018674FFF0A3CC
:101166007423F0A374F5F07B017A00792C1229869A
:10117600EF702C7B017A0079349001F104F0A3EA38
:10118600F0A3E9F01216B590008CF090000112164B
:10119600CE90008DF09000021216CE90008EF022B6
:0A250D0042021C000042021E000002
:03002300022B723B
:0D2B7200C0E0C0F0C083C082C0D075D008A4
:102B7F0030984AAF99C298EF642A601A900064E4C3
:102B8F0075F00112178AFC742C25F0F58274003C45
:102B9F00F583EFF08027900072E4F0A3F0900064CB
:102BAF00E0FEA3E0242CF58274003EF583E4F09060
:0D2BBF00006AF0A304F0900064E4F0A3F0BD
:0B2BCC00D0D0D082D083D0F0D0E03217
:03004300022A0D81
:102A0D00C0E0C0F0C083C082C0D075D000C000C08F
:102A1D0004C006C007E59A30E053539AFE9000CFEC
:102A2D00E59BF0E0FFB40207900090E4F0A3F0EF17
:102A3D006402601DEF64036018900090E475F0016E
:102A4D0012178AFC74BB25F0F58274003CF583EFF8
:102A5D00F0EFB403189000757401F0900090E0FE53
:102A6D00A3E024B9F58274003EF583E4F0D007D0DD
:102A7D0006D004D000D0D0D082D083D0F0D0E032B8
:03000B00022DB90A
:102DB900C0E0C083C082C0D075D000C006C00790F3
:102DC9000212E0FEA3E0FF64014E7010D295758CEB
:102DD900B2758AE0EF64014E7002D28ED007D00638
:092DE900D0D0D082D083D0E032BA
:03001B00022CECC8
:102CEC00C0E0C083C082C0D075D000C003C004C097
:102CFC0005C006C007900214E0FCA3E0FD64014C83
:102D0C00701EC295900216E0FEA3E0FFC3E49FFB89
:102D1C00E49EF58DAF038F8BED64014C7002C28E77
:102D2C00D007D006D005D004D003D0D0D082D08329
:032D3C00D0E032B2
:03003B00022A8D09
:102A8D00C0E0C0F0C083C082C0D075D000C000C00F
:102A9D0001C002C003C004C005C006C007C2D89063
:102AAD000218E0FEA3E0F5EAEEF5FAE02400F0905E
:102ABD000218E034B4F090021FE004F070069002AA
:102ACD001EE004F090021EE07004A3E0642870156F
:102ADD0090021EF0A3F090021CF0A3F0122DF21242
:102AED00251D122624D007D006D005D004D003D042
:102AFD0002D001D000D0D0D082D083D0F0D0E0323F
:102FD8006C69676874203D2025640A004C6967683D
:072FE80074203D2025640068
:05251700420145000037
:1028FE00AB07AA067C277D1012171FEF243090011C
:10290E003BF07C277D10AF03AE0212171FAA04AB5B
:10291E00057C037DE8AF03AE0212171FEF24309043
:10292E000104F07C037DE8AF03AE0212171FAA0468
:10293E00AB057C007D64AF03AE0212171FEF24308F
:10294E00A3F07C007D64AF03AE0212171FAA04AB86
:10295E00057C007D0AAF03AE0212171FEF243090E4
:10296E00013AF07C007D0AAF03AE0212171FAB05D1
:08297E00EB243090013CF02233
:102F8900E4FDFCC3ED9FEC9E50107B127A98DAFEAB
:0A2F9900DBFA000DBD00010C80E919
:012FA300220B
:050003007F0CDFFE0090
:0100080022D5
:083094007F617E8DDEFEDFFA94
:01309C002211
:0F304A00D2A4D2A5120003C2A4120003C2A52271
:0C307400C2A4D2A5120003D2A4020003E3
:0E305900A20992A4D2A5120003C2A502000390
:0D306700D2A5120003A2A4C2A512000322EC
:022F6D00AE07AD
:102F6F00E4FDEE25E0FE92A4D2A5120003C2A51245
:0A2F7F0000030DEDB408EB0230670B
:102F1000E4FED2A4FDEE25E0FED2A5120003A2A499
:102F2000E4334EFEC2A51200030DEDB408E7AF0670
:012F3000227E
:10301800AC0712304A7F46122F6DAF04122F6D0293
:02302800307402
:102E8E0012304A7F47122F6DE4FC122F10743D2C26
:102E9E00F582E43401F583EFF0ECB40304D209803B
:102EAE0002C2091230590CECB403DF123074023036
:012EBE00947F
:05001E007F0102301813
:10251D0012001E7F011230187F101230187FB47E0A
:10252D0000122F89122E8E90013DE0FF900106E4DE
:10253D00F0A3EFF0E0FE90013EE07C002400FFEC04
:10254D003EFE900106F0A3EFF0FDAC06EC12135128
:10255D007B9A7A997999783F1212AF12138A1228C1
:10256D00FE900104E024D0FFE434FFFE7C037DE8FF
:10257D0012170DAA06AB0790013BE024D0FFE434FF
:10258D00FFFE7C277D1012170DEF2BFBEE3AFA9014
:10259D000105E024D0FFE434FFFE7C007D641217BA
:1025AD000DEF2BFBEE3AFA90013AE024D0FFE43424
:1025BD00FFFE7D0A12170DEF2BFFEE3AFE90013C48
:1025CD00E024D0FDEC34FFCD2FFFED3EFE90014514
:1025DD00F0A3EFF090018874FFF0A3742FF0A374B3
:1025ED00D8F0A3EEF0A3EFF07B017A0079D21219A7
:1025FD00F490018874FFF0A3742FF0A374E4F090AD
:10260D000145E0FFA3E090018BCFF0A3EFF07B013C
:07261D007A0179080219F4AB
:102BD7002020543A4F46462020523A4F464620205E
:102BE70020202020200020202025732020202020A6
:102BF70000202054203D2025642052203D202564BC
:102C070020202020202020002020202057656C63D2
:102C17006F6D652020202020200020202053746124
:102C27007274696E672E2E2E2020202020202020EF
:032C37002020005A
:102E2A0074922DF58274003CF583E0FF12302A7FFC
:032E3A00057E0012
:102E3D00D3EF9400EE6480948040147D1E7C00EDF1
:0F2E4D001D70011CED4C70F7EF1F70E41E80E14B
:012E5C002253
:062FEF00E4F0A3F07F8076
:102FF500C290C2918F80122E39D2A6122E39C2A646
:0130050022A8
:10302A00D290C2918F80122E39D2A6122E39C2A600
:01303A002273
:102FBE00C291C2A6C2917F38122FF57F0C122FF547
:0A2FCE007F06122FF57F01022FF598
:10262400900183122FEF9001BAE0FEA3E0FFD39450
:1026340046EE6480948090018874FF400DF0A3748A
:102644002BF0A374D7F0A3EE8014F0A3742BF0A3A3
:1026540074F8F09001BAE0FFA3E090018BCFF0A3EF
:10266400EFF09001B8E0FFA3E090018DCFF0A3EF6D
:10267400F07B017A0079921219F490018874FFF0CA
:10268400A3742BF0A374EDF0A37401F0A37401F010
:10269400A37408F07B017A0079A71219F4E490017D
:1026A40083F0A3F07B017A007992120026900183D3
:1026B400E0FCA3E0FDC39FEE6480F8EC64809850D6
:1026C40013122E2A900184E004F070D8900183E064
:1026D40004F080D07FC0122FF5E4900183F0A3F0C2
:1026E4007B017A0079A7120026900183E0FCA3E025
:1026F400FDC39FEE6480F8EC648098501A74A72D93
:10270400F5827400122E31900184E004F070D190AF
:072714000183E004F080C91D
:01271B00229B
:10271C00900179122FEF90018874FFF0A3742CF0C4
:10272C00A3740FF07B017A0079921219F49001884E
:10273C0074FFF0A3742CF0A37421F07B017A007960
:10274C00A71219F4E4900179F0A3F07B017A0079D7
:10275C0092120026900179E0FCA3E0FDC39FEE6489
:10276C0080F8EC6480985013122E2A90017AE004C1
:10277C00F070D8900179E004F080D07FC0122FF572
:10278C00E4900179F0A3F07B017A0079A71200267E
:10279C00900179E0FCA3E0FDC39FEE6480F8EC644B
:1027AC008098501A74A72DF5827400122E31900166
:0E27BC007AE004F070D1900179E004F080C959
:0127CA0022EC
:1011A600EC4D6011E8497017ED33EC3304600DE443
:1011B600FCFFFEFD22E933E8330470F80213F61251
:1011C60013C158046009E4CC248150062850090252
:1011D60014002840030213FDC0E0EB4A7044B980B6
:1011E60006D0E0FB0213ECEF4E701CBD8008EBFF4F
:1011F600EAFEE9FD80EBE98DF0A4FEE5F002128F30
:10120600E9CDF9EAFEEBFFEF89F0A4FCE5F0CE8923
:10121600F0A42EFFE435F0CD89F0A42DFEE435F0E0
:101226008067EF4E7005BD80D780C3EF8BF0A4AC0E
:10123600F0EE8BF0A42CFCE435F0F8EF8AF0A42C49
:10124600E5F038FCE433CB8DF0A42CFCE5F03BF85C
:10125600EE8AF0A42CFCE5F038F8E433CF89F0A44C
:101266002CFCE5F038CF3400CE89F0A42FFFE5F052
:101276003EFEE433C98DF0A42EFEE5F039CD8AF0AA
:10128600A42FFFE5F03EFEE43DFD33D0E0FB500722
:101296000BBB000F021400EC2CFCEF33FFEE33FE09
:0612A600ED33FD0213D838
:1012AC00021400EC5D046005E8590470030213F6A7
:1012BC001213C1580460F6EC4860F2EC7004FDFEA9
:1012CC00FF22C860DB2481C85009C3986002500615
:1012DC000213FD9850CAF582E9294B4A7005AB827E
:1012EC000213EC75F0007C1A7880C3EF9BEE9AED3C
:1012FC0099400DC3EF9BFFEE9AFEED99FDE842F08D
:10130C00DC23ACF0D0E0FFD0E0FED0E0FDAB8220DF
:10131C00E7101BEB60BAEC2CFCEF33FFEE33FEED69
:10132C0033FD0213D8E803F830E705C0F075F00080
:10133C00EF2FFFEE33FEED33FD40B830E7C280AA4D
:10134C0075F020800E75F010800575F0087D007E1C
:10135C00007F003392D530D5031217A0EC33401028
:10136C00EF33FFEE33FEED33FDEC33FCD5F0ED2225
:0E137C00E5F0247EA2D513CC92E7CDCEFF2261
:10138A00EDD2E7CD33EC3392D524814006E4FFFE5B
:10139A00FDFC22FCE4CFCECDCC24E0501174FF80BA
:1013AA00EDC3CC13CCCD13CDCE13CECF13CF047057
:0713BA00F030D5DE0217A0A0
:10198F00E5152488F582E43401F583E005152290EE
:10199F000185301003900188E475F0011217AE0233
:1019AF0016B52009E97F2ED2098018EF540F249025
:1019BF00D43440D4FF300D0BEF24BFB41A005003C2
:1019CF002461FFE516600215160519E51970020569
:1019DF001830100E900185E475F0011217AEEF026A
:1019EF0016FB022EE97403D2108003E4C210F51522
:1019FF009001851217C5E4F516F518F519E516606F
:101A0F00077F201219D280F57517FFC20AC209C2CB
:101A1F000BC20CC20EC20FC21112199EFF700D30F5
:101A2F0010057F001219E3AF19AE1822B4255FC25B
:101A3F00D5C20D12199EFF24D0B40A00501A75F0AA
:101A4F000A781630D50508B6FF0106C6A426F6207B
:101A5F00D5047002D20C80D924CFB41A00EF5004F1
:101A6F00C2E5D20D021CD5D20A80C6D20980C0D2DF
:101A7F000B80BCD2D580BAD20E80B47F201219D27F
:101A8F00200B077401B5160040F112198FFF1219C0
:101A9F00D2021A0CD211D20F809512198FFB121984
:101AAF008FFA12198FF94A4B700679D37A1D7BFF83
:101ABF00200B2EE516602A7E008E8275830012168B
:101ACF00CE60060EEE651770F0C2D5EBC0E0EAC02F
:101ADF00E0E9C0E0EE121D36D0E0F9D0E0FAD0E038
:101AEF00FB1216B5FF60AAEBC0E0EAC0E0E9C0E068
:101AFF001219D2D0E02401F9D0E03400FAD0E0FB83
:101B0F00E5170460DCD517D98087D20B80A2121D90
:101B1F001860F7E51770010412140BA917600DE593
:101B2F0017600914F517121DC0EF60F3EA30E702D2
:101B3F00F404C3995079EAF425170430E701E4045B
:101B4F00F517800D121D1860C1EA0517251712141D
:101B5F000BEA9001B4F030E701E4251704D5170420
:101B6F00200E0114121D36E4C0E0121DC09001B406
:101B7F00E0601320E70714F01219BA802204F0D0A6
:101B8F00E014C0E07F001219BAE51760071219B10F
:101B9F001517800B300E031219B1D0E0021A0CD0BA
:101BAF00E00480C4121D18609EE5170412140B90F8
:101BBF0001B4EAF0E517200E026001042404121D9F
:011BCF0036DF
:101BD00074FF04C0E0121DC01219BAE517200E02EE
:101BE00060031219B1D0E0B517E87F451219C4900F
:101BF00001B4E07F2B30E7047F2DF404C0E012191C
:101C0000D2D0E075F00A84C0F01219BBD0E01219EE
:101C1000BB021A0C791080027908C20FC211800829
:101C2000D2D5790A8004790AC2D5E517047002F585
:101C300017E4FAFDFEFF12198FFC7B08200A13122D
:101C4000198FFD7B1030090A12198FFE12198FFFB0
:101C50007B20EC3382D592D55013C3E43009069F24
:101C6000FFE49EFEE4200A039DFDE49CFCE4CBF827
:101C7000C20AEC700CCFCECDCCE824F8F870F3801B
:101C800017C3EF33FFEE33FEED33FDEC33FCEB33E4
:101C9000FB994002FB0FD8E9EB300A05F8D0E0C40D
:101CA00048B20AC0E00AEC4D4E4F78207B0070C26B
:101CB000EAB5170040BCC0E0121D38D0F0D0E020DB
:101CC0000A04C4C0E0C4B20AC0F01219BBD0F0D5F7
:101CD000F0EB021A0C1217CE1AA9531C14581A7AD8
:101CE0004C1A76421C184F1C20441C20491A8F4362
:101CF0001C26551B53461BB3451B1D471DF3501A8D
:101D00007E2D1A822E1AA52B1A86231AA3201DDCDB
:101D10002A1A3E4800001A9DE517B4FF03751706FE
:101D200012198FFC12198FFD12198FFE12198FFFD5
:101D30009001AD021448790AA2D5200C14300E0986
:101D4000B910020404B9080104A2D5200F02500101
:101D500004200B68920BB516005034C0E07F203091
:101D60000C197F30A20B720F720E500F121D8FC212
:101D70000BC20FC20EC2117F30800F300E03E9C0BC
:101D8000E01219D2300E03D0E0F9D0E0B516CC3015
:101D90000E177F30B9100C1219D27F58300D077F03
:101DA000788003B908031219D2300B057F2D021970
:101DB000D27F202011F87F2B200FF322920B80CFAF
:101DC0007F00B40700500B24ADF582E43401F583A5
:101DD000E0FF22286E756C6C2900D20A12198F3030
:101DE0000AF8C20A781630D50108F6021A3E2D50BC
:101DF00043495812198F2403B405004001E4901D93
:101E0000EE931219C3743A1219C3D20C7516040258
:021E10001C14A0
:1013C100E9D2E7C933E833F892D5EDD2E7CD33EC72
:0713D10033FC5002B2D522EB
:1013D800EC30E7100FBF000C0EBE00080DBD000476
:1013E8000BEB6014A2D5EB13FCED92E7FD2274FF22
:1013F800FCFDFEFF22E480F8A2D574FF13FC7D807B
:03140800E480EF8E
:10140B00F920E73624F950037907E4F42402FBE5CD
:10141B0082158270021583DBF6E024FB501BE9601A
:10142B0014E4F0E582158270021583E004F0B40A2F
:0D143B0008E4F0D9EE7401F00A22C2D522B7
:10144800ED33EC3392D5FA602AB4FF33EDC2E77B73
:10145800FF60067A14796DE4227A14797620D5042F
:101468007A147971224E614E002B494E46002D495F
:101478004E4600E47A08F0A3DAFC7B00740722C029
:1014880083C082ECC0E0EDC0E0EEC0E0EFC0E0EA6F
:1014980075F010A4CAABF075F04DA42BFBE435F041
:1014A800FCEA2410FAEB34C5FBEC34D9FCEDC2E7B6
:1014B800FF75F056A4F42411C5F0F434C58FF0A4D8
:1014C8002AE5F03BE43CF020E714121675D0E0FF63
:1014D800D0E0FED0E0FDD0E0FC1212AF8014F4049E
:1014E800121675D0E0FFD0E0FED0E0FDD0E0FC128F
:1014F80011A6D082D083E0FAEDD2E7CD33EC3324C5
:1015080082FBE4C3CF33CFCE33CECD33CD33DBF341
:101518007B0775F00A846004F0A31B0AE5F0F0A3CA
:101528008FF0740AA4FFACF08EF0740AA42CFEAC01
:10153800F050010C8DF0740AA42CFDE435F0F0A3F2
:05154800DBDE74072248
:10154D000213F6E86480F8E933E83360110460F0C3
:10155D00ED33EC337009E8FCE9FDEAFEEBFF220404
:10156D0060DED3EB9FEA9EE99DE8C2E78CF0C2F7FF
:10157D0095F0400CE8CCF8E9CDF9EACEFAEBCFFBCB
:10158D001213C185D0F05804700320D5B3E8047050
:10159D00075002B2D502140092D5EC0460F7E4CCEA
:1015AD00C0E0C398F8603B94186008400DD0E0FB94
:1015BD000213D8E4FBFAC9FC8028E830E406E4C93C
:1015CD00FBE4CAFCE830E305E4C9CACBFCE85407E8
:1015DD006010F8C3E913F9EA13FAEB13FBEC13FCF3
:1015ED00D8F130F52FC3E49CFCEF9BFFEE9AFEED96
:1015FD0099FDD0E0FBEF4E4D4C701222DB03021330
:10160D00FDEC2CFCEF33FFEE33FEED33FDED30E75B
:10161D00EB0213D8EF2BFFEE3AFEED39FDD0E0FBD8
:10162D0050130BBB0003021400ED13FDEE13FEEF80
:08163D0013FFEC13FC0213D8AB
:101645003F8000004120000042C80000447A0000AD
:10165500461C400047C35000497424004B1896802F
:101665004CBEBC205A0E1BCA6753C21C749DC5AE26
:10167500FB60065407601C23231216A3EB54386045
:101685000912168F12169E1211A6ECF8EDF9EEFA54
:10169500EFCB22EB12169E80F1543803241C9016D2
:1016A50045FE93FC0EEE93FD0EEE930ECE93FF22B8
:0300000002287261
:0C287200787FE4F6D8FD7581220228B9B9
:1016B500BB010689828A83E0225002E722BBFE0233
:0916C500E32289828A83E4932266
:1016CE00BB010CE58229F582E5833AF583E02250D1
:1016DE0006E92582F8E622BBFE06E92582F8E2221B
:0D16EE00E58229F582E5833AF583E4932235
:1016FB00BB010689828A83F0225002F722BBFE01CE
:02170B00F322C7
:10170D00EF8DF0A4A8F0CF8CF0A428CE8DF0A42EF0
:02171D00FE22AA
:10171F00BC000BBE0029EF8DF084FFADF022E4CCAE
:10172F00F875F008EF2FFFEE33FEEC33FCEE9DEC77
:10173F00984005FCEE9DFE0FD5F0E9E4CEFD22EDBD
:10174F00F8F5F0EE8420D21CFEADF075F008EF2F07
:10175F00FFED33FD4007985006D5F0F222C398FDF8
:05176F000FD5F0EA2295
:10177400C5F0F8A3E028F0C5F0F8E5821582700200
:061784001583E038F0229D
:10178A00A3F8E0C5F025F0F0E58215827002158312
:06179A00E0C838F0E8226F
:0E17A000C3E49FFFE49EFEE49DFDE49CFC225A
:1017AE00F8E0FBA3A3E0F925F0F0E58215827002C4
:0717BE001583E0FA38F02268
:0917C500EBF0A3EAF0A3E9F02225
:1017CE00D083D082F8E4937012740193700DA3A3AA
:1017DE0093F8740193F5828883E4737402936860BE
:0617EE00EFA3A3A380DFBE
:102EE900EFB40A07740D122EF4740A309811A899D8
:102EF900B8130CC2983098FDA899C298B811F63049
:072F090099FDC299F5992220
:1017F400E3F5F009E208B5F06D606B80F3E3F5F012
:1018040009E608B5F060605E80F387F009E608B584
:10181400F054605280F487F009E208B5F04860465D
:1018240080F488828C8387F009E0A3B5F0386036B1
:1018340080F488828C8387F009E493A3B5F0276051
:101844002580F388828C83E3F5F009E0A3B5F016D4
:10185400601480F388828C83E3F5F009E493A3B5E4
:10186400F004600280F202191F808580E7808E8078
:10187400D2803C8015806C807E809B80B5808B807C
:10188400A1804F8070803A02192B89828A83ECFAF6
:10189400E493F5F0A3C8C582C8CCC583CCE493A374
:1018A400C8C582C8CCC583CCB5F070606E80E189B0
:1018B400828A83E493F5F0A3E208B5F05E605C806D
:1018C400F289828A83E0F5F0A3E608B5F04D604B17
:1018D40080F389828A83E0F5F0A3E208B5F03C60E6
:1018E4003A80F389828A83E493F5F0A3E608B5F09D
:1018F4002A602880F2805389828A83ECFAE493F583
:10190400F0A3C8C582C8CCC583CCE0A3C8C582C82F
:10191400CCC583CCB5F004600280E27FFFB5F00251
:101924000F2240027F012289828A83ECFAE0F5F0DB
:10193400A3C8C582C8CCC583CCE0A3C8C582C8CC23
:10194400C583CCB5F0D560D380E389828A83ECFA71
:10195400E0F5F0A3C8C582C8CCC583CCE493A3C882
:10196400C582C8CCC583CCB5F0B160AF80E288F045
:10197400ED2402B4040050A3F582EB2402B4040065
:0B1984005099232345822390186D73B7
:10298600900183EBF0A3EAF0A3E9F0900186E0FB67
:10299600A3E0FAA3E0F91216B5FE900183E0FBA3CB
:1029A600E0FAA3E0F91216B5FF6E702AEF600E90FA
:1029B600018974FFF5F012177445F070037F002249
:1029C600900184E475F001121774900187E475F0A4
:1029D6000112177480B5900183E0FBA3E0FAA3E02F
:1029E600F91216B5FDD3EE6480F8ED6480984003C5
:1029F6007F0122900186E0FBA3E0FAA3E0F912161C
:072A0600B5FFC3ED9FFF22A5
:10002600E4FFFE1216B5600C0FEF70010E09E970C1
:05003600F20A80EF2238
:10287E00021E12E493A3F8E493A34003F68001F240
:10288E0008DFF48029E493A3F85407240CC8C3335B
:10289E00C4540F4420C8834004F456800146F6DF2A
:1028AE00E4800B01020408102040809023FEE47E99
:1028BE00019360BCA3FF543F30E509541FFEE4931F
:1028CE00A360010ECF54C025E060A840B8E493A3E6
:1028DE00FAE493A3F8E493A3C8C582C8CAC583CA11
:1028EE00F0A3C8C582C8CAC583CADFE9DEE780BEC9
:01251C0000BE
:00000001FF
