:102A9D0050726F6772616D6D6520737461727469C8
:102AAD006E672E2E2E0A006F757431203D20300A70
:102ABD00006F757431203D20310A006F757432201E
:102ACD003D20300A006F757432203D20310A006FB1
:102ADD00757433203D20300A006F757433203D200E
:102AED00310A004F4B0A0063617264206964203D16
:052AFD002025730A0012
:10226C00420072000041007C0041007D00603200A1
:10227C00340000000000000000000000000000001E
:10228C000000000000000000000000000000000042
:10229C000000000000000000000000000000000032
:1022AC0000000042006C000042007A0000420092E4
:1022BC000000603200D100000000000000000000AF
:1022CC000000000000000000000000000000000002
:1022DC0000000000000000000000000000000000F2
:1022EC000000000000000000420090006442008EDC
:1022FC00FFD8420078869F420076FFFF42008C0098
:10230C0064420086000042008A0000420084000003
:10231C004200740000420070000042008200004243
:10232C000080000042007E00004200680000420075
:10233C006600004200320000420104000042006AC4
:0C234C00000042006E000042008800000B
:101D7000C2A2122CAD7BFF7A2A799D122B679000AC
:101D800072E07004A3E0640170030220C790007E3B
:101D9000E07004A3E06401700930B204D2A28002B2
:101DA000C2A220B433900068E07004A3E064017024
:101DB0002720B424C2949001BC74FFF0A3742AF0CD
:101DC000A374B4F07B017A0179F01219527B017A85
:101DD0000179F0122B67D2B4900084E07004A3E084
:101DE0006401703D900227E0FEA3E0FFD390008FD6
:101DF000E09FEE6480F890008EE06480984022C2FC
:101E0000949001BC74FFF0A3742AF0A374B4F07B27
:101E1000017A0179F01219527B017A0179F0122BC3
:101E20006790008AE07004A3E06401703D90009028
:101E3000E0FEA3E0FFD3900228E09FEE6480F890DC
:101E40000227E06480984022D2949001BC74FFF095
:101E5000A3742AF0A374BEF07B017A0179F0121901
:101E6000527B017A0179F0122B67900082E07004B6
:101E7000A3E06401703D90008CE0FEA3E0FFD390EE
:101E80000226E09FEE6480F8900225E0648098408E
:101E900022C2979001BC74FFF0A3742AF0A374C807
:101EA000F07B017A0179F01219527B017A0179F005
:101EB000122B67900080E07004A3E06401703D90F5
:101EC0000086E0FEA3E0FFC3900226E09FEE648060
:101ED000F8900225E06480985022D2979001BC745B
:101EE000FFF0A3742AF0A374D2F07B017A0179F099
:101EF0001219527B017A0179F0122B67900070E081
:101F00007004A3E06401703D900076E0FEA3E0FF62
:101F1000C390017AE09FEE6480F8900179E06480DC
:101F2000985022C2969001BC74FFF0A3742AF0A3CB
:101F300074DCF07B017A0179F01219527B017A018D
:101F400079F0122B67900074E07004A3E0640170D4
:101F50003D900078E0FEA3E0FFD390017AE09FEE91
:101F60006480F8900179E06480984022D2969001D4
:101F7000BC74FFF0A3742AF0A374E6F07B017A012D
:101F800079F01219527B017A0179F0122B679000D7
:101F900088E07004A3E06401700A122630E4900027
:101FA00088F0A3F090007DE064016003021D7E9044
:101FB00001EBE07004A3E06401700B122630900086
:101FC00088E4F0A304F0900066E07004A3E06401EC
:101FD0006003022077900032E07004A3E0640160A7
:101FE0000302207778D17C007D017B017A007900A3
:101FF0001218D0EF600302207790006AE07004A30B
:10200000E0640160F490006EE4F0A304F0D2A21248
:102010002F54900104E0FEA3E0FF122DEC90025E2D
:10202000EEF0A3EFF0122EF090025AE4F0A304F0C9
:1020300090025CE4F0A304F07FE87E03122E9B7F05
:10204000E87E03122E9B7FF47E01122E9B122FC876
:10205000122C6C7BFF7A2A79F0122B67E490025ADB
:10206000F0A3F090025CF0A3F0C2A2122F54E4900F
:10207000006EF0A3F0802C9001BC74FFF0A3742AD2
:10208000F0A374F4F0A37401F0A37400F0A374D16E
:10209000F07B017A0179F01219527B017A0179F013
:1020A000122B67122F5412000E12000EE59A30E028
:1020B0000B539AFE900103E59BF080F0E490007DC5
:1020C000F0122C6C021D7E120046E4900072F0A308
:0420D000F0021D7E7F
:102E7D00D3EF9400EE940040147D6E7C00ED1D7038
:0D2E8D00011CED4C70F7EF1F70E61E80E396
:012E9A002215
:102CAD00758920758DFD758BFDD28ED29CC29FD2FC
:102CBD009ED2AFD2ACD2BC759A50759CFD438E108E
:102CCD0053A2EF43AF01E4F5B5F5B6122F0A7F809D
:092CDD00122E64122580022D8ADA
:102F5400C28EC2AFE490025AF0A3F090025CF0A3D8
:022F6400F02259
:102C6C00758920758DFD758BFDD28ED29CC29FD23D
:102C7C009ED2AFD2AC759A50759CFD438E1053A268
:102C8C00EF43AF01E490025AF0A3F090025CF0A382
:102C9C00F0D2AFD28ED28CD2B2122F0A7F80022EFB
:012CAC0064C3
:102EF000758911758CB2758AE0758DFB758B24D23E
:0A2F0000AFD28CD2A9D28ED2AB2240
:092FC800C2A9C28EC2ABD2AF2235
:0B2B67009001B7EBF0A3EAF0A3E9F047
:102B72009001B7E0FBA3E0FAA3E0F912002690016E
:102B8200BAEEF0A3EFF09001B7E0FBA3E0FAA3E006
:102B9200F9E4FFFED39001BBE09FEE6480F8900160
:102BA200BAE06480984018121613F5993099FDC264
:0F2BB20099740129F9E43AFA0FBF00010E80D59A
:012BC10022F1
:102D8A00E4F5D8F5E9F5F9F5D990026074B4F0A341
:102D9A00E4F0900260E0FEA3E0F5EAEEF5FAE02442
:102DAA0000F0900260E034B4F075DA49D2DED2AFB6
:012DBA0022F6
:102358004102220049023B5253323332000000004E
:1023680042022B00004202290000420227000042DC
:04237800022500003A
:032FBD00122FC010
:072FC0000000007F18DFFE96
:012FC70022E7
:0E2F780000007F017EC27D9FDDFEDEFCDFFAE1
:012F86002228
:0C000E007F167E037DE3DDFEDEFCDFFAE2
:01001A0022C3
:102BC200E4FE9002337402F020A70A900233E0FF81
:102BD20004F0EF70F3122FBD122FC0E4900238F010
:102BE20030A70204F09002337402F030A70A900278
:102BF20033E0FF04F0EF70F3900233E064016016FB
:102C0200900247E025E0FFF0900238E04F90024743
:062C1200F00EEEB408AC68
:012C18002299
:1026DF00C2A7122F78D2A7122FBDD2A730A70302FD
:1026EF0027859002337402F020A70A900233E0FF8F
:1026FF0004F0EF70F39002337402F030A70A9002E7
:10270F0033E0FF04F0EF70F3122BC2900247E0901A
:10271F000244F0122BC2900247E0900245F0122BB8
:10272F00C2900247E090022DF0122BC2900247E0B8
:10273F0090022EF0122BC2900247E0FF900237F06A
:10274F00D2A790022EE0FE90022DE0FD2EFC90020B
:10275F0044E0FB2CFCA3E0FA2C900238F0B50716EE
:10276F00A3EBF0A3EAF0900223EDF0A3EEF09002BA
:07277F0037E0900235F02263
:102D1F001226DF900223E0FF900227E4F0A3EFF0EA
:102D2F00900224E0FF90022BE4F0A3EFF090023921
:102D3F00E0FF900225E4F0A3EFF090023AE0FF905D
:082D4F000229E4F0A3EFF022D9
:0F237C0042025E05DC42025A000042025C000091
:102E9B00EF1FAA0670011E4A6013E4FCFDC3ED94FC
:0D2EAB007DEC940050EA0DBD00010C80F09C
:012EB80022F7
:102DEC007C007D0B12166BEF24F4FDEE3401FC120B
:102DFC0012AFE4FBFA7952784312120DE4FBFA7924
:092E0C003478431211041212E89B
:012E1500229A
:1020D400746573740072657475726E2074657374BC
:1020E4000A0047455454454D5045524154555245B4
:1020F4000054203D2025642E25640A006F75743138
:10210400203D2025640A0047455448554E4944491A
:1021140054590052203D2025642E25640A006F7511
:102124007432203D2025640A004745544C494748F1
:1021340054006F757433203D2025640A00534554C0
:102144005354454552004F4B0A004F5554314F4E9E
:10215400004F5554324F4E004F5554334F4E004F9D
:102164005554314F4646004F5554324F4646004F62
:102174005554334F4646005345545247420042504B
:102184004D4F4E0042504D4F4646005345544D412D
:1021940058005345544D494E005468203D20256451
:1021A4002C2074656D706D696E203D2025640A00D5
:1021B40054203D2025640A004341524453455400B1
:1021C4005354454552534554004745544F55543193
:1021D400004745544F555432004745544F555433E6
:1021E40000534F554E44464C4147004C49474854D0
:1021F400464C4147004745545245444C494748548E
:10220400007265646C69676874203D2025640A0067
:10221400474554534F554E44464C414700736F75E0
:102224006E64203D2025640A00474554414C4C46C9
:102234004C4147494E495400524742203D202564B1
:10224400256425640A0062706D203D2025640A001F
:10225400524546524553484F4B0A0045584954008D
:08226400455849544F4B0A0094
:05238B004201EB00001F
:100046009001BA74FFF0A37420F0A374D4F0A3E473
:10005600F0A37404F07B017A00793412289AEF70C9
:100066002AC2DE9001BC74FFF0A37420F0A374D9F9
:10007600F07B017A0179F01219527B017A0179F04D
:10008600122B6790007AE4F0A304F07BFF7A2079C4
:10009600E61200269001BDEEF0A3EFF09001BA74CF
:1000A600FFF0A37420F0A374E6F07B017A007934A4
:0900B60012289AEF6003020149CF
:1000BF009001ADF0A3F0122D1F9001BC74FFF0A3BF
:1000CF007420F0A374F5F0900227E0FFA3E09001F5
:1000DF00BFCFF0A3EFF090022BE0FFA3E09001C1A0
:1000EF00CFF0A3EFF07B017A0179F01219527B0167
:1000FF007A0179F0122B6730940A9001ADE4F0A3E6
:10010F0004F08007E49001ADF0A3F09001BC74FF00
:10011F00F0A37421F0A37400F09001ADE0FFA3E011
:10012F009001BFCFF0A3EFF07B017A0179F01219A4
:0A013F00527B017A0179F0122B6760
:100149007BFF7A2079E61200269001BDEEF0A3EF3D
:10015900F09001BA74FFF0A37421F0A3740BF07B43
:0E016900017A00793412289AEF600302020135
:100177009001ADF0A3F0122D1F9001BC74FFF0A306
:100187007421F0A37417F0900225E0FFA3E090011B
:10019700BFCFF0A3EFF0900229E0FFA3E09001C1E9
:1001A700CFF0A3EFF07B017A0179F01219527B01AE
:1001B7007A0179F0122B6730970A9001ADE4F0A32A
:1001C70004F08007E49001ADF0A3F09001BC74FF48
:1001D700F0A37421F0A37422F09001ADE0FFA3E037
:1001E7009001BFCFF0A3EFF07B017A0179F01219EC
:0A01F700527B017A0179F0122B67A8
:100201007BFF7A21792D1200269001BDEEF0A3EF3C
:10021100F09001BA74FFF0A37421F0A3742DF07B68
:0B022100017A00793412289AEF705522
:10022C009001ADF0A3F01223A07B017A01790612A4
:10023C002B6730960A9001ADE4F0A304F08007E43C
:10024C009001ADF0A3F09001BC74FFF0A37421F009
:10025C00A37436F09001ADE0FFA3E09001BFCFF0A6
:10026C00A3EFF07B017A0179F01219527B017A012C
:05027C0079F0122B6770
:100281007BFF7A2179411200269001BDEEF0A3EFA8
:10029100F09001BA74FFF0A37421F0A37441F07BD4
:1002A100017A00793412289AEF600302036C9001FD
:1002B100ED04F0A37400F0A37434F0E49001E9F0CC
:1002C100A3F09001EE75F008803F9001EDE0FBA3F3
:1002D100E0FAA3E0F9121613FF60333395E0FEEF65
:1002E10024D0FBEE34FFFA9001E9E0FEA3E0FF7CAD
:1002F100007D0A12166BEF2BFFEE3A9001E9F0A395
:10030100EFF09001EEE475F0011216D280BC122FCD
:10031100549001E9E0FEA3E0FF122DEC90025EEEA5
:10032100F0A3EFF0122EF090025AE4F0A304F09043
:10033100025CE4F0A304F07FE87E03122E9B7FE8C9
:100341007E03122E9B7FF47E01122E9B122FC81268
:100351002C6C7BFF7A21794A122B67E490025AF0C8
:10036100A3F090025CF0A3F01226307BFF7A217992
:100371004E1200269001BDEEF0A3EFF09001BA7489
:10038100FFF0A37421F0A3744EF07B017A0079345D
:1003910012289AEF7002C2947BFF7A2179551200DC
:1003A100269001BDEEF0A3EFF09001BA74FFF0A327
:1003B1007421F0A37455F07B017A00793412289AE4
:1003C100EF7002C2977BFF7A21795C1200269001BF
:1003D100BDEEF0A3EFF09001BA74FFF0A37421F029
:1003E100A3745CF07B017A00793412289AEF7002D1
:1003F100C2967BFF7A2179631200269001BDEEF04F
:10040100A3EFF09001BA74FFF0A37421F0A3746319
:10041100F07B017A00793412289AEF7002D2947B32
:10042100FF7A21796B1200269001BDEEF0A3EFF067
:100431009001BA74FFF0A37421F0A3746BF07B01F7
:100441007A00793412289AEF7002D2977BFF7A21D1
:1004510079731200269001BDEEF0A3EFF09001BA7E
:1004610074FFF0A37421F0A37473F07B017A007917
:100471003412289AEF7002D2967BFF7A21797B128F
:1004810000269001BDEEF0A3EFF09001BA74FFF0E9
:10049100A37421F0A3747BF07B017A0079341228D4
:1004A1009AEF701A90003AE024D024FF92A1A3E0C1
:1004B10024D024FF92A0A3E024D024FF92A37BFFA9
:1004C1007A2179821200269001BDEEF0A3EFF0901F
:1004D10001BA74FFF0A37421F0A37482F07B017A56
:1004E10000793412289AEF7002D2A27BFF7A217927
:1004F100881200269001BDEEF0A3EFF09001BA74CE
:10050100FFF0A37421F0A37488F07B017A007934A1
:1005110012289AEF7002C2A27BFF7A21798F120012
:10052100269001BDEEF0A3EFF09001BA74FFF0A3A5
:100531007421F0A3748FF07B017A00793412289A28
:10054100EF60030207019001ED04F0A37400F0A332
:100551007434F09001EEE475F0061216D29001EDBC
:10056100E0FBA3E0FAA3E0F912161364547077904C
:100571000090F0A3F09001EE75F0041216D29001F4
:10058100EDE0FBA3E0FAA3E0F9121613700C900062
:100591008AF0A3F09000900206AF9001EDE0FBA37A
:1005A100E0FAA3E0F9121613FF60333395E0FEEF92
:1005B10024D0FBEE34FFFA900090E0FEA3E0FF7C34
:1005C100007D0A12166BEF2BFFEE3A900090F0A31C
:1005D100EFF09001EEE475F0011216D280BC9000AC
:1005E1008AE4F0A304F09001EDE0FBA3E0FAA3E0BC
:1005F100F9121613644C707C900078F0A3F090010E
:10060100EE75F0051216D29001EDE0FBA3E0FAA31E
:10061100E0F91216137011900074F0A3F0900078B5
:100621007486F0A3749FF0229001EDE0FBA3E0FA41
:10063100A3E0F9121613FF60333395E0FEEF24D0E7
:10064100FBEE34FFFA900078E0FEA3E0FF7C007D32
:100651000A12166BEF2BFFEE3A900078F0A3EFF041
:100661009001EEE475F0011216D280BC900074E4A2
:10067100F0A304F09001EDE0FBA3E0FAA3E0F9128E
:1006810016136448707A90008CF0A3F09001EE7517
:10069100F0041216D29001EDE0FBA3E0FAA3E0F919
:1006A100121613700F900082F0A3F090008CF0A34B
:1006B1007464F0229001EDE0FBA3E0FAA3E0F912EB
:1006C1001613FF60333395E0FEEF24D0FBEE34FFC9
:1006D100FA90008CE0FEA3E0FF7C007D0A12166B0D
:1006E100EF2BFFEE3A90008CF0A3EFF09001EEE4D7
:1006F10075F0011216D280BC900082E4F0A304F0E0
:100701007BFF7A2179961200269001BDEEF0A3EFCE
:10071100F09001BA74FFF0A37421F0A37496F07BFA
:10072100017A00793412289AEF600302095C900182
:10073100ED04F0A37400F0A37434F09001EEE475BD
:10074100F0061216D29001EDE0FBA3E0FAA3E0F966
:100751001216136454600302081590008EF0A3F082
:100761009001EE75F0041216D29001EDE0FBA3E0CA
:10077100FAA3E0F91216137011900084F0A3F0901F
:10078100008E74FFF0A374D8F0229001EDE0FBA37A
:10079100E0FAA3E0F9121613FF60333395E0FEEFA0
:1007A10024D0FBEE34FFFA90008EE0FEA3E0FF7C44
:1007B100007D0A12166BEF2BFFEE3A90008EF0A32C
:1007C100EFF09001EEE475F0011216D280BC9000BA
:1007D10084E4F0A304F09001BC74FFF0A37421F051
:1007E100A3749DF0900227E0FFA3E09001BFCFF03A
:1007F100A3EFF090008EE0FFA3E09001C1CFF0A342
:10080100EFF07B017A0179F01219527B017A0179BB
:10081100F0122B679001EDE0FBA3E0FAA3E0F912DF
:100821001613644C60030208D2900076F0A3F09096
:1008310001EE75F0051216D29001EDE0FBA3E0FA8E
:10084100A3E0F9121613700E900070F0A3F074FF7C
:1008510090007602090C9001EDE0FBA3E0FAA3E021
:10086100F9121613FF60333395E0FEEF24D0FBEE4F
:1008710034FFFA900076E0FEA3E0FF7C007D0A12CF
:10088100166BEF2BFFEE3A900076F0A3EFF090019C
:10089100EEE475F0011216D280BC900070E4F0A372
:1008A10004F09001BC74FFF0A37421F0A374B4F0C0
:1008B100900179E0FFA3E09001BFCFF0A3EFF07BBF
:1008C100017A0179F01219527B017A0179F0122B28
:1008D100679001EDE0FBA3E0FAA3E0F912161364BF
:1008E100487078900086F0A3F09001EE75F0041244
:1008F10016D29001EDE0FBA3E0FAA3E0F912161382
:10090100700D900080F0A3F0900086F0A3F022908B
:1009110001EDE0FBA3E0FAA3E0F9121613FF603347
:100921003395E0FEEF24D0FBEE34FFFA900086E031
:10093100FEA3E0FF7C007D0A12166BEF2BFFEE3A5F
:10094100900086F0A3EFF09001EEE475F00112162D
:10095100D280BC900080E4F0A304F07BFF7A21797F
:10096100BC1200269001BDEEF0A3EFF09001BA7425
:10097100FFF0A37421F0A374BCF07B017A007934F9
:0609810012289AEF7071CC
:100987007B019001AD04F0A37400F0A37400F09014
:1009970001EDEBF0A37400F0A37434F09001EEE4E2
:1009A70075F00780319001EDE0FBA3E0FAA3E0F9D1
:1009B700121613FF60259001ADE0FBA3E0FAA3E058
:1009C700F9EF1216599001AEE475F0011216D290A4
:1009D70001EEE475F0011216D280CA9001ADE0FB7A
:1009E700A3E0FAA3E0F9E4121659900032F0A30449
:0109F700F00F
:1009F8007BFF7A2179C41200269001BDEEF0A3EFA7
:100A0800F09001BA74FFF0A37421F0A374C4F07BD2
:100A1800017A00793412289AEF706A9001ED04F097
:100A2800A37400F0A37434F09001EEE475F008129A
:100A380016D2E4900104F0A3F09001EDE0FBA3E0EE
:100A4800FAA3E0F9121613FF60333395E0FEEF24A2
:100A5800D0FBEE34FFFA900104E0FEA3E0FF7C0037
:100A68007D0A12166BEF2BFFEE3A900104F0A3EF0C
:100A7800F09001EEE475F0011216D280BC90006689
:100A8800E4F0A304F07BFF7A2179CD1200269001CF
:100A9800BDEEF0A3EFF09001BA74FFF0A37421F05B
:100AA800A374CDF07B017A00793412289AEF70484C
:100AB8009001ADF0A3F03094099001ADF0A304F0DB
:100AC8008007E49001ADF0A3F09001BC74FFF0A39F
:100AD8007421F0A37400F09001ADE0FFA3E0900151
:100AE800BFCFF0A3EFF07B017A0179F01219527BA6
:080AF800017A0179F0122B676D
:100B00007BFF7A2179D51200269001BDEEF0A3EF8C
:100B1000F09001BA74FFF0A37421F0A374D5F07BB8
:0B0B2000017A00793412289AEF704827
:100B2B009001ADF0A3F03097099001ADF0A304F064
:100B3B008007E49001ADF0A3F09001BC74FFF0A32B
:100B4B007421F0A37422F09001ADE0FFA3E09001BB
:100B5B00BFCFF0A3EFF07B017A0179F01219527B32
:080B6B00017A0179F0122B67F9
:100B73007BFF7A2179DD1200269001BDEEF0A3EF11
:100B8300F09001BA74FFF0A37421F0A374DDF07B3D
:0B0B9300017A00793412289AEF7048B4
:100B9E009001ADF0A3F03096099001ADF0A304F0F2
:100BAE008007E49001ADF0A3F09001BC74FFF0A3B8
:100BBE007421F0A37436F09001ADE0FFA3E0900134
:100BCE00BFCFF0A3EFF07B017A0179F01219527BBF
:080BDE00017A0179F0122B6786
:100BE6007BFF7A2179E51200269001BDEEF0A3EF96
:100BF600F09001BA74FFF0A37421F0A374E5F07BC2
:100C0600017A00793412289AEF702B7B017A0079E9
:100C16003D9001ED04F0A3EAF0A3E9F0121613FFEC
:100C2600B43108900068E4F0A304F0EFB43007E4B0
:100C3600900068F0A3F07BFF7A2179EF12002690EE
:100C460001BDEEF0A3EFF09001BA74FFF0A374219A
:100C5600F0A374EFF07B017A00793412289AEF70D2
:100C66002B7B017A00793D9001ED04F0A3EAF0A315
:100C7600E9F0121613FFB4310890007EE4F0A304E5
:100C8600F0EFB43007E490007EF0A3F07BFF7A210A
:100C960079F91200269001BDEEF0A3EFF09001BAAB
:100CA60074FFF0A37421F0A374F9F07B017A007944
:070CB6003412289AEF70517F
:100CBD009001ADF0A3F090007EE07004A3E064011C
:100CCD0070099001ADF0A304F08007E49001ADF040
:100CDD00A3F09001BC74FFF0A37422F0A37405F08F
:100CED009001ADE0FFA3E09001BFCFF0A3EFF07B4B
:100CFD00017A0179F01219527B017A0179F0122BE8
:010D0D00677E
:100D0E007BFF7A2279141200269001BDEEF0A3EF3C
:100D1E00F09001BA74FFF0A37422F0A37414F07B68
:0B0D2E00017A00793412289AEF70510E
:100D39009001ADF0A3F0900068E07004A3E06401B5
:100D490070099001ADF0A304F08007E49001ADF0C3
:100D5900A3F09001BC74FFF0A37422F0A37421F0F6
:100D69009001ADE0FFA3E09001BFCFF0A3EFF07BCE
:100D7900017A0179F01219527B017A0179F0122B6B
:010D89006702
:100D8A007BFF7A22792D1200269001BDEEF0A3EFA7
:100D9A00F09001BA74FFF0A37422F0A3742DF07BD3
:0E0DAA00017A00793412289AEF60030210BB20
:100DB8009001ADF0A3F09001EBF0A304F0122630FF
:100DC800C2DE122D1F9001BC74FFF0A37420F0A3A3
:100DD80074F5F0900227E0FFA3E09001BFCFF0A3E5
:100DE800EFF090022BE0FFA3E09001C1CFF0A3EF5A
:100DF800F07B017A0179F01219527B017A0179F0BE
:100E0800122B67122F789001BC74FFF0A37421F0A5
:100E1800A37417F0900225E0FFA3E09001BFCFF084
:100E2800A3EFF0900229E0FFA3E09001C1CFF0A367
:100E3800EFF07B017A0179F01219527B017A01797E
:100E4800F0122B67122F781223A07B017A01790602
:100E5800122B67122F7830940A9001ADE4F0A304A6
:100E6800F08007E49001ADF0A3F09001BC74FFF0AE
:100E7800A37421F0A37400F09001ADE0FFA3E0900B
:100E880001BFCFF0A3EFF07B017A0179F01219527C
:100E98007B017A0179F0122B67122F7830970A902C
:100EA80001ADE4F0A304F08007E49001ADF0A3F0F5
:100EB8009001BC74FFF0A37421F0A37422F0900198
:100EC800ADE0FFA3E09001BFCFF0A3EFF07B017A84
:100ED8000179F01219527B017A0179F0122B67120D
:100EE8002F7830960A9001ADE4F0A304F08007E46F
:100EF8009001ADF0A3F09001BC74FFF0A37421F051
:100F0800A37436F09001ADE0FFA3E09001BFCFF0ED
:100F1800A3EFF07B017A0179F01219527B017A0173
:100F280079F0122B67122F7820A109E49001AFF015
:100F3800A3F080089001AFE4F0A304F020A009E436
:100F48009001B1F0A3F080089001B1E4F0A304F09F
:100F580020A309E49001B3F0A3F080089001B3E462
:100F6800F0A304F09001BC74FFF0A37422F0A37402
:100F78003CF09001AFE0FFA3E09001BFCFF0A3EFFA
:100F8800F09001B1E0FFA3E09001C1CFF0A3EFF032
:100F98009001B3E0FFA3E09001C3CFF0A3EFF07B93
:100FA800017A0179F01219527B017A0179F0122B3A
:100FB80067122F7830A20A9001B5E4F0A304F080FC
:100FC80007E49001B5F0A3F09001BC74FFF0A3749E
:100FD80022F0A3744AF09001B5E0FFA3E09001BFAE
:100FE800CFF0A3EFF07B017A0179F01219527B015F
:100FF8007A0179F0122B67122F78900068E070045C
:10100800A3E0640170099001ADF0A304F08007E447
:101018009001ADF0A3F09001BC74FFF0A37422F02E
:10102800A37421F09001ADE0FFA3E09001BFCFF0E1
:10103800A3EFF07B017A0179F01219527B017A0152
:1010480079F0122B6790007EE07004A3E0640170D1
:10105800099001ADF0A304F08007E49001ADF0A37E
:10106800F09001BC74FFF0A37422F0A37405F09013
:1010780001ADE0FFA3E09001BFCFF0A3EFF07B014B
:101088007A0179F01219527B017A0179F0122B67F3
:10109800122F789001BC74FFF0A37422F0A374544B
:1010A800F07B017A0179F01219527B017A0179F00B
:0310B800122B6791
:1010BB007BFF7A22795F1200269001BDEEF0A3EF41
:1010CB00F09001BA74FFF0A37422F0A3745FF07B6D
:1010DB00017A00793412289AEF701D7BFF7A2279FE
:1010EB0064122B67122D8AD2A212000EC2A2E490B8
:0910FB0001EBF0A3F01224A7227E
:0A23900042026400004202660000F1
:03002300022B02AB
:0D2B0200C0E0C0F0C083C082C0D075D00814
:102B0F0030984AAF99C298EF642A601A90006CE42B
:102B1F0075F0011216E8FC743425F0F58274003C50
:102B2F00F583EFF0802790007AE4F0A3F090006C2B
:102B3F00E0FEA3E02434F58274003EF583E4F090C8
:0D2B4F000072F0A304F090006CE4F0A3F01D
:0B2B5C00D0D0D082D083D0F0D0E03287
:030043000229216E
:10292100C0E0C0F0C083C082C0D075D000C000C07C
:1029310004C006C007E59A30E053539AFE900103A4
:10294100E59BF0E0FFB40207900092E4F0A3F0EF02
:102951006402601DEF64036018900092E475F00159
:102961001216E8FC74D125F0F58274003CF583EF72
:10297100F0EFB4031890007D7401F0900092E0FE36
:10298100A3E024CFF58274003EF583E4F0D007D0B4
:1029910006D004D000D0D0D082D083D0F0D0E032A5
:03000B00022CE6DE
:102CE600C0E0C083C082C0D075D000C006C00790C7
:102CF600025AE0FEA3E0FF64014E7010D295758C77
:102D0600B2758AE0EF64014E7002D28ED007D0060B
:092D1600D0D0D082D083D0E0328D
:03001B00022C199B
:102C1900C0E0C083C082C0D075D000C003C004C06A
:102C290005C006C00790025CE0FCA3E0FD64014C0E
:102C3900701EC29590025EE0FEA3E0FFC3E49FFB15
:102C4900E49EF58DAF038F8BED64014C7002C28E4B
:102C5900D007D006D005D004D003D0D0D082D083FD
:032C6900D0E03286
:03003B000229A1F6
:1029A100C0E0C0F0C083C082C0D075D000C000C0FC
:1029B10001C002C003C004C005C006C007C2D89050
:1029C1000260E0FEA3E0F5EAEEF5FAE02400F09003
:1029D1000260E034B4F0900267E004F07006900207
:1029E10066E004F0900266E07004A3E064287015CC
:1029F100900266F0A3F0900264F0A3F0122D1F1272
:102A010023A01224A7D007D006D005D004D003D02C
:102A110002D001D000D0D0D082D083D0F0D0E0322B
:102F3D006C69676874203D2025640A004C696768D8
:072F4D0074203D2025640003
:05239A00420179000082
:10281200AB07AA067C277D1012167DEF24309001AB
:102822006FF07C277D10AF03AE0212167DAA04ABB7
:10283200057C037DE8AF03AE0212167DEF243090D3
:102842000138F07C037DE8AF03AE0212167DAA04C4
:10285200AB057C007D64AF03AE0212167DEF24301F
:10286200A3F07C007D64AF03AE0212167DAA04AB16
:10287200057C007D0AAF03AE0212167DEF24309074
:10288200016EF07C007D0AAF03AE0212167DAB052D
:08289200EB2430900170F022EC
:102ED500E4FDFCC3ED9FEC9E50107B127A98DAFE60
:0A2EE500DBFA000DBD00010C80E9CE
:012EEF0022C0
:050003007F0CDFFE0090
:0100080022D5
:082FD1007F617E8DDEFEDFFA58
:012FD90022D5
:0F2F8700D2A4D2A5120003C2A4120003C2A52235
:0C2FB100C2A4D2A5120003D2A4020003A7
:0E2F9600A20992A4D2A5120003C2A502000354
:0D2FA400D2A5120003A2A4C2A512000322B0
:022EB900AE0762
:102EBB00E4FDEE25E0FE92A4D2A5120003C2A512FA
:0A2ECB0000030DEDB408EB022FA484
:102E3D00E4FED2A4FDEE25E0FED2A5120003A2A46D
:102E4D00E4334EFEC2A51200030DEDB408E7AF0644
:012E5D002252
:102F6600AC07122F877F46122EB9AF04122EB90274
:022F76002FB179
:102DBB00122F877F47122EB9E4FC122E3D74712C13
:102DCB00F582E43401F583EFF0ECB40304D209800F
:102DDB0002C209122F960CECB403DF122FB1022F93
:012DEB00D116
:05001E007F01022F66C6
:1023A00012001E7F01122F667F10122F667FB47EEF
:1023B00000122ED5122DBB900171E0FF90013AE47E
:1023C000F0A3EFF0E0FE900172E07C002400FFEC4F
:1023D0003EFE90013AF0A3EFF0FDAC06EC1212AF16
:1023E0007B9A7A997999783F12120D1212E8122885
:1023F00012900138E024D0FFE434FFFE7C037DE836
:1024000012166BAA06AB0790016FE024D0FFE434EC
:10241000FFFE7C277D1012166BEF2BFBEE3AFA9035
:102420000139E024D0FFE434FFFE7C007D64121605
:102430006BEF2BFBEE3AFA90016EE024D0FFE43410
:10244000FFFE7D0A12166BEF2BFFEE3AFE90017035
:10245000E024D0FDEC34FFCD2FFFED3EFE9001795E
:10246000F0A3EFF09001BC74FFF0A3742FF0A374FD
:102470003DF0A3EEF0A3EFF07B017A01790612198B
:10248000529001BC74FFF0A3742FF0A37449F09034
:102490000179E0FFA3E09001BFCFF0A3EFF07B0153
:0724A0007A01793C02195298
:102A21002020202020416E64726F696420202020C4
:102A31002000202020436F6E74726F6C6C696E678A
:102A41002020202020202020202000202054203D54
:102A51002025642052203D20256420202020202094
:102A610020002020202573202020202000204E4FF0
:102A71004320496E6E6F766174696F6E202020204D
:102A81002020002020205374617274696E672E2EFD
:0C2A91002E2020202020202020202000CB
:102D570074942DF58274003CF583E0FF122F247FD5
:032D6700327E00B9
:102D6A00D3EF9400EE6480948040147D6E7C00ED75
:0F2D7A001D70011CED4C70F7EF1F70E41E80E11F
:012D89002227
:062E5E00E4F0A3F07F8008
:102E6400C290C2918F807F057E00122D6AD2A67F08
:092E7400057E00122D6AC2A6229F
:102F2400D290C2918F807F057E00122D6AD2A67F37
:092F3400057E00122D6AC2A622DE
:102F0A00C291C2A6C2917F38122E647F0C122E641F
:0A2F1A007F06122E647F01022E6470
:102630009001B7122E5E9001BC74FFF0A3742AF0D3
:10264000A37421F07B017A0079941219529001BC95
:1026500074FFF0A3742AF0A37433F07B017A00793D
:10266000B3121952E49001B7F0A3F07BFF7A2A79F4
:10267000211200269001B7E0FCA3E0FDC39FEE64A9
:1026800080F8EC6480985013122D579001B8E00444
:10269000F070D89001B7E004F080D07FC0122E64B3
:1026A000E49001B7F0A3F07BFF7A2A793312002679
:1026B0009001B7E0FCA3E0FDC39FEE6480F8EC64FA
:1026C0008098501A74B32DF5827400122D5E90011B
:0E26D000B8E004F070D19001B7E004F080C9CA
:0126DE0022D9
:1024A7009001B7122E5E9001BC74FFF0A3742AF05E
:1024B700A3744CF0900227E0FFA3E09001BFCFF098
:1024C700A3EFF0900225E0FFA3E09001C1CFF0A3B6
:1024D700EFF07B017A0079941219529001BC74FFD6
:1024E700F0A3742AF0A37463F0A37401F0A374013A
:1024F700F0A3743CF07B017A0079B3121952E4908F
:1025070001B7F0A3F07B017A0079941200269001BD
:10251700B7E0FCA3E0FDC39FEE6480F8EC6480980D
:102527005013122D579001B8E004F070D89001B7FE
:10253700E004F080D07FC0122E64E49001B7F0A3CE
:10254700F07B017A0079B31200269001B7E0FCA373
:10255700E0FDC39FEE6480F8EC648098501A74B372
:102567002DF5827400122D5E9001B8E004F070D151
:082577009001B7E004F080C9F7
:01257F002239
:10258000E49001AD122E5F9001BC74FFF0A3742A99
:10259000F0A3746EF07B017A0079941219529001C5
:1025A000BC74FFF0A3742AF0A37484F07B017A005A
:1025B00079B3121952E49001ADF0A3F07B017A00D7
:1025C00079941200269001ADE0FCA3E0FDC39FEEDC
:1025D0006480F8EC6480985013122D579001AEE09F
:1025E00004F070D89001ADE004F080D07FC0122ECE
:1025F00064E49001ADF0A3F07B017A0079B312009E
:10260000269001ADE0FCA3E0FDC39FEE6480F8ECF2
:10261000648098501A74B32DF5827400122D5E9068
:0F26200001AEE004F070D19001ADE004F080C98C
:01262F002288
:10110400EC4D6011E8497017ED33EC3304600DE4E5
:10111400FCFFFEFD22E933E8330470F80213541295
:10112400131F58046009E4CC248150062850090296
:10113400135E28400302135BC0E0EB4A7044B9809D
:1011440006D0E0FB02134AEF4E701CBD8008EBFF93
:10115400EAFEE9FD80EBE98DF0A4FEE5F00211ED75
:10116400E9CDF9EAFEEBFFEF89F0A4FCE5F0CE89C6
:10117400F0A42EFFE435F0CD89F0A42DFEE435F083
:101184008067EF4E7005BD80D780C3EF8BF0A4ACB1
:10119400F0EE8BF0A42CFCE435F0F8EF8AF0A42CEC
:1011A400E5F038FCE433CB8DF0A42CFCE5F03BF8FF
:1011B400EE8AF0A42CFCE5F038F8E433CF89F0A4EF
:1011C4002CFCE5F038CF3400CE89F0A42FFFE5F0F5
:1011D4003EFEE433C98DF0A42EFEE5F039CD8AF04D
:1011E400A42FFFE5F03EFEE43DFD33D0E0FB5007C5
:1011F4000BBB000F02135EEC2CFCEF33FFEE33FE4F
:06120400ED33FD0213367C
:10120A0002135EEC5D046005E8590470030213548E
:10121A0012131F580460F6EC4860F2EC7004FDFEED
:10122A00FF22C860DB2481C85009C39860025006B7
:10123A0002135B9850CAF582E9294B4A7005AB82C2
:10124A0002134A75F0007C1A7880C3EF9BEE9AED80
:10125A0099400DC3EF9BFFEE9AFEED99FDE842F02F
:10126A00DC23ACF0D0E0FFD0E0FED0E0FDAB822082
:10127A00E7101BEB60BAEC2CFCEF33FFEE33FEED0C
:10128A0033FD021336E803F830E705C0F075F000C5
:10129A00EF2FFFEE33FEED33FD40B830E7C280AAF0
:1012AA0075F020800E75F010800575F0087D007EBF
:1012BA00007F003392D530D5031216FEEC3340106E
:1012CA00EF33FFEE33FEED33FDEC33FCD5F0ED22C8
:0E12DA00E5F0247EA2D513CC92E7CDCEFF2204
:1012E800EDD2E7CD33EC3392D524814006E4FFFEFE
:1012F800FDFC22FCE4CFCECDCC24E0501174FF805D
:10130800EDC3CC13CCCD13CDCE13CECF13CF0470F9
:07131800F030D5DE0216FEE5
:1018ED00E51524BCF582E43401F583E0051522905D
:1018FD0001B93010039001BCE475F00112170C0210
:10190D0016132009E97F2ED2098018EF540F249069
:10191D00D43440D4FF300D0BEF24BFB41A00500364
:10192D002461FFE516600215160519E5197002050B
:10193D001830100E9001B9E475F00112170CEF027A
:10194D001659022E167403D2108003E4C210F51539
:10195D009001B9121723E4F516F518F519E516607F
:10196D00077F2012193080F57517FFC20AC209C210
:10197D000BC20CC20EC20FC2111218FCFF700D303B
:10198D0010057F00121941AF19AE1822B4255FC2A0
:10199D00D5C20D1218FCFF24D0B40A00501A75F0F0
:1019AD000A781630D50508B6FF0106C6A426F6201E
:1019BD00D5047002D20C80D924CFB41A00EF500494
:1019CD00C2E5D20D021C33D20A80C6D20980C0D224
:1019DD000B80BCD2D580BAD20E80B47F20121930C4
:1019ED00200B077401B5160040F11218EDFF121906
:1019FD003002196AD211D20F80951218EDFB121810
:101A0D00EDFA1218EDF94A4B700679317A1D7BFF0C
:101A1D00200B2EE516602A7E008E8275830012162D
:101A2D002C60060EEE651770F0C2D5EBC0E0EAC073
:101A3D00E0E9C0E0EE121C94D0E0F9D0E0FAD0E07D
:101A4D00FB121613FF60AAEBC0E0EAC0E0E9C0E0AC
:101A5D00121930D0E02401F9D0E03400FAD0E0FBC7
:101A6D00E5170460DCD517D98087D20B80A2121C34
:101A7D007660F7E517700104121369A917600DE57B
:101A8D0017600914F517121D1EEF60F3EA30E70217
:101A9D00F404C3995079EAF425170430E701E404FE
:101AAD00F517800D121C7660C1EA05172517121364
:101ABD0069EA9001E8F030E701E4251704D5170431
:101ACD00200E0114121C94E4C0E0121D1E9001E8BA
:101ADD00E0601320E70714F0121918802204F0D0EB
:101AED00E014C0E07F00121918E517600712190FF6
:101AFD001517800B300E0312190FD0E002196AD0A2
:101B0D00E00480C4121C76609EE5170412136990E0
:101B1D0001E8EAF0E517200E026001042404121C0E
:011B2D009423
:101B2E0074FF04C0E0121D1E121918E517200E02D4
:101B3E00600312190FD0E0B517E87F4512192290F5
:101B4E0001E8E07F2B30E7047F2DF404C0E012198A
:101B5E0030D0E075F00A84C0F0121919D0E01219D5
:101B6E001902196A791080027908C20FC211800811
:101B7E00D2D5790A8004790AC2D5E517047002F528
:101B8E0017E4FAFDFEFF1218EDFC7B08200A131273
:101B9E0018EDFD7B1030090A1218EDFE1218EDFF3C
:101BAE007B20EC3382D592D55013C3E43009069FC7
:101BBE00FFE49EFEE4200A039DFDE49CFCE4CBF8CA
:101BCE00C20AEC700CCFCECDCCE824F8F870F380BE
:101BDE0017C3EF33FFEE33FEED33FDEC33FCEB3387
:101BEE00FB994002FB0FD8E9EB300A05F8D0E0C4B0
:101BFE0048B20AC0E00AEC4D4E4F78207B0070C20E
:101C0E00EAB5170040BCC0E0121C96D0F0D0E02020
:101C1E000A04C4C0E0C4B20AC0F0121919D0F0D53B
:101C2E00F0EB02196A12172C1A07531B725819D8A7
:101C3E004C19D4421B764F1B7E441B7E4919ED4333
:101C4E001B84551AB1461B11451A7B471D5150195D
:101C5E00DC2D19E02E1A032B19E4231A01201D3A4C
:101C6E002A199C48000019FBE517B4FF03751706E7
:101C7E001218EDFC1218EDFD1218EDFE1218EDFF04
:101C8E009001E10213A6790AA2D5200C14300E0998
:101C9E00B910020404B9080104A2D5200F025001A4
:101CAE0004200B68920BB516005034C0E07F203034
:101CBE000C197F30A20B720F720E500F121CEDC258
:101CCE000BC20FC20EC2117F30800F300E03E9C05F
:101CDE00E0121930300E03D0E0F9D0E0B516CC305A
:101CEE000E177F30B9100C1219307F58300D077F48
:101CFE00788003B90803121930300B057F2D0219B5
:101D0E00307F202011F87F2B200FF322920B80CFF3
:101D1E007F00B40700500B24E1F582E43401F58313
:101D2E00E0FF22286E756C6C2900D20A1218ED3075
:101D3E000AF8C20A781630D50108F602199C2D5001
:101D4E004349581218ED2403B405004001E4901DD8
:101D5E004C93121921743A121921D20C75160402E1
:021D6E001B72E6
:10131F00E9D2E7C933E833F892D5EDD2E7CD33EC14
:07132F0033FC5002B2D5228D
:10133600EC30E7100FBF000C0EBE00080DBD000418
:101346000BEB6014A2D5EB13FCED92E7FD2274FFC4
:10135600FCFDFEFF22E480F8A2D574FF13FC7D801D
:03136600E480EF31
:10136900F920E73624F950037907E4F42402FBE570
:1013790082158270021583DBF6E024FB501BE960BD
:1013890014E4F0E582158270021583E004F0B40AD2
:0D13990008E4F0D9EE7401F00A22C2D5225A
:1013A600ED33EC3392D5FA602AB4FF33EDC2E77B16
:1013B600FF60067A1379CBE4227A1379D420D50418
:1013C6007A1379CF224E614E002B494E46002D49A5
:1013D6004E4600E47A08F0A3DAFC7B00740722C0CC
:1013E60083C082ECC0E0EDC0E0EEC0E0EFC0E0EA12
:1013F60075F010A4CAABF075F04DA42BFBE435F0E4
:10140600FCEA2410FAEB34C5FBEC34D9FCEDC2E758
:10141600FF75F056A4F42411C5F0F434C58FF0A47A
:101426002AE5F03BE43CF020E7141215D3D0E0FFA8
:10143600D0E0FED0E0FDD0E0FC12120D8014F404E2
:101446001215D3D0E0FFD0E0FED0E0FDD0E0FC12D4
:101456001104D082D083E0FAEDD2E7CD33EC332409
:1014660082FBE4C3CF33CFCE33CECD33CD33DBF3E4
:101476007B0775F00A846004F0A31B0AE5F0F0A36D
:101486008FF0740AA4FFACF08EF0740AA42CFEACA4
:10149600F050010C8DF0740AA42CFDE435F0F0A395
:0514A600DBDE740722EB
:1014AB00021354E86480F8E933E83360110460F008
:1014BB00ED33EC337009E8FCE9FDEAFEEBFF2204A7
:1014CB0060DED3EB9FEA9EE99DE8C2E78CF0C2F7A2
:1014DB0095F0400CE8CCF8E9CDF9EACEFAEBCFFB6E
:1014EB0012131F85D0F05804700320D5B3E8047095
:1014FB00075002B2D502135E92D5EC0460F7E4CC30
:10150B00C0E0C398F8603B94186008400DD0E0FB36
:10151B00021336E4FBFAC9FC8028E830E406E4C980
:10152B00FBE4CAFCE830E305E4C9CACBFCE854078A
:10153B006010F8C3E913F9EA13FAEB13FBEC13FC95
:10154B00D8F130F52FC3E49CFCEF9BFFEE9AFEED38
:10155B0099FDD0E0FBEF4E4D4C701222DB030213D2
:10156B005BEC2CFCEF33FFEE33FEED33FDED30E7A0
:10157B00EB021336EF2BFFEE3AFEED39FDD0E0FB1D
:10158B0050130BBB000302135EED13FDEE13FEEFC6
:08159B0013FFEC13FC021336F0
:1015A3003F8000004120000042C80000447A000050
:1015B300461C400047C35000497424004B189680D2
:1015C3004CBEBC205A0E1BCA6753C21C749DC5AEC9
:1015D300FB60065407601C2323121601EB5438608A
:1015E300091215ED1215FC121104ECF8EDF9EEFADF
:1015F300EFCB22EB1215FC80F1543803241C901519
:10160300A3FE93FC0EEE93FD0EEE930ECE93FF22FC
:030000000227864E
:0C278600787FE4F6D8FD7581220227CD93
:10161300BB010689828A83E0225002E722BBFE02D5
:09162300E32289828A83E4932208
:10162C00BB010CE58229F582E5833AF583E0225073
:10163C0006E92582F8E622BBFE06E92582F8E222BD
:0D164C00E58229F582E5833AF583E49322D7
:10165900BB010689828A83F0225002F722BBFE0170
:02166900F3226A
:10166B00EF8DF0A4A8F0CF8CF0A428CE8DF0A42E93
:02167B00FE224D
:10167D00BC000BBE0029EF8DF084FFADF022E4CC51
:10168D00F875F008EF2FFFEE33FEEC33FCEE9DEC1A
:10169D00984005FCEE9DFE0FD5F0E9E4CEFD22ED60
:1016AD00F8F5F0EE8420D21CFEADF075F008EF2FAA
:1016BD00FFED33FD4007985006D5F0F222C398FD9B
:0516CD000FD5F0EA2238
:1016D200C5F0F8A3E028F0C5F0F8E58215827002A3
:0616E2001583E038F02240
:1016E800A3F8E0C5F025F0F0E582158270021583B5
:0616F800E0C838F0E82212
:0E16FE00C3E49FFFE49EFEE49DFDE49CFC22FD
:10170C00F8E0FBA3A3E0F925F0F0E5821582700266
:07171C001583E0FA38F0220A
:09172300EBF0A3EAF0A3E9F022C7
:10172C00D083D082F8E4937012740193700DA3A34C
:10173C0093F8740193F5828883E473740293686060
:06174C00EFA3A3A380DF60
:102E1600EFB40A07740D122E21740A309811A8997E
:102E2600B8130CC2983098FDA899C298B811F6301C
:072E360099FDC299F59922F4
:10175200E3F5F009E208B5F06D606B80F3E3F5F0B4
:1017620009E608B5F060605E80F387F009E608B527
:10177200F054605280F487F009E208B5F048604600
:1017820080F488828C8387F009E0A3B5F038603654
:1017920080F488828C8387F009E493A3B5F02760F4
:1017A2002580F388828C83E3F5F009E0A3B5F01677
:1017B200601480F388828C83E3F5F009E493A3B587
:1017C200F004600280F202187D808580E7808E80BE
:1017D200D2803C8015806C807E809B80B5808B801F
:1017E200A1804F8070803A02188989828A83ECFA3C
:1017F200E493F5F0A3C8C582C8CCC583CCE493A317
:10180200C8C582C8CCC583CCB5F070606E80E18952
:10181200828A83E493F5F0A3E208B5F05E605C800F
:10182200F289828A83E0F5F0A3E608B5F04D604BB9
:1018320080F389828A83E0F5F0A3E208B5F03C6088
:101842003A80F389828A83E493F5F0A3E608B5F03F
:101852002A602880F2805389828A83ECFAE493F525
:10186200F0A3C8C582C8CCC583CCE0A3C8C582C8D2
:10187200CCC583CCB5F004600280E27FFFB5F002F4
:101882000F2240027F012289828A83ECFAE0F5F07E
:10189200A3C8C582C8CCC583CCE0A3C8C582C8CCC6
:1018A200C583CCB5F0D560D380E389828A83ECFA14
:1018B200E0F5F0A3C8C582C8CCC583CCE493A3C825
:1018C200C582C8CCC583CCB5F0B160AF80E288F0E8
:1018D200ED2402B4040050A3F582EB2402B4040008
:0B18E200509923234582239017CB73FD
:10289A009001B7EBF0A3EAF0A3E9F09001BAE0FBEC
:1028AA00A3E0FAA3E0F9121613FE9001B7E0FBA326
:1028BA00E0FAA3E0F9121613FF6E702AEF600E9089
:1028CA0001BD74FFF5F01216D245F070037F0022A5
:1028DA009001B8E475F0011216D29001BBE475F0CC
:1028EA00011216D280B59001B7E0FBA3E0FAA3E08B
:1028FA00F9121613FDD3EE6480F8ED648098400354
:10290A007F01229001BAE0FBA3E0FAA3E0F91216D4
:07291A0013FFC3ED9FFF2234
:10002600E4FFFE121613600C0FEF70010E09E97063
:05003600F20A80EF2238
:10279200021D70E493A3F8E493A34003F68001F2D0
:1027A20008DFF48029E493A3F85407240CC8C33348
:1027B200C4540F4420C8834004F456800146F6DF17
:1027C200E4800B010204081020408090226CE47E19
:1027D200019360BCA3FF543F30E509541FFEE4930C
:1027E200A360010ECF54C025E060A840B8E493A3D3
:1027F200FAE493A3F8E493A3C8C582C8CAC583CAFE
:10280200F0A3C8C582C8CAC583CADFE9DEE780BEB5
:01239F00003D
:00000001FF
