:1027670050726F6772616D6D652073746172746901
:102777006E672E2E2E0A006F757431203D20300AA9
:10278700006F757431203D20310A00636172642047
:0D2797006964203D2025730A004F4B0A00A5
:1020BC00420072000041007C0041007D0060320053
:1020CC0034000000000000000000000000000000D0
:1020DC0000000000000000000000000000000000F4
:1020EC0000000000000000000000000000000000E4
:1020FC0000000042006C000042007A000042009098
:10210C00000060320093000000000000000000009E
:10211C0000000000000000000000000000000000B3
:10212C0000000000000000000000000000000000A3
:10213C00000000000000000042008E006442008C91
:10214C00FFD8420078869F420076FFFF42008A004B
:10215C0064420086000042008800004200840000B7
:10216C0042007400004200700000420082000042F5
:10217C000080000042007E00004200680000420027
:10218C0066000042003200004200C6000042006AB5
:07219C00000042006E00008C
:101D2200C2A21228B17BFF7A27796712266290003D
:101D320072E07004A3E064017003021F1F90007E32
:101D4200E07004A3E06401700930B504D2A28002FD
:101D5200C2A220B433900068E07004A3E064017072
:101D62002720B424C29690010574FFF0A37427F0D3
:101D7200A3747EF07B017A0179B01219047B017A97
:101D82000179B0122662D2B4900084E07004A3E01C
:101D92006401703D900178E0FEA3E0FFD390008DD6
:101DA200E09FEE6480F890008CE06480984022C24C
:101DB2009690010574FFF0A37427F0A3747EF07B64
:101DC200017A0179B01219047B017A0179B01226E5
:101DD20062900088E07004A3E06401703D90008E80
:101DE200E0FEA3E0FFD3900179E09FEE6480F890DB
:101DF2000178E06480984022D29690010574FFF049
:101E0200A37427F0A37488F07B017A0179B01219C8
:101E1200047B017A0179B012266290007DE06401B0
:101E22006003021D3090010574FFF0A37427F0A334
:101E32007492F0A37401F0A37400F0A37493F07B86
:101E4200017A0179B01219047B017A0179B0122664
:101E520062900066E07004A3E064016003021EFB6E
:101E6200900032E07004A3E064016003021EFB787C
:101E7200937C007D017B017A007900121882EF7059
:101E82007890006AE07004A3E0640160F490006E50
:101E9200E4F0A304F0D2A21229DE9000C6E0FEA371
:101EA200E0FF1228DF9001E6EEF0A3EFF01229C462
:101EB2009001E2E4F0A304F09001E4E4F0A304F062
:101EC2007FE87E0312296F7FE87E0312296F7FF479
:101ED2007E0112296F122A5E1227A47BFF7A2779CC
:101EE200A0122662E49001E2F0A3F09001E4F0A3D4
:101EF200F0C2A290006EF0A3F01229DE12000E12C0
:101F0200000EE59A30E00B539AFE9000C5E59BF077
:101F120080F0E490007DF01227A4021D30120046EA
:0A1F2200E4900072F0A3F0021D30FD
:10295100D3EF9400EE940040147D6E7C00ED1D7069
:0D296100011CED4C70F7EF1F70E61E80E3C7
:01296E002246
:1028B100758920758DFD758BFDC290D28ED29CC21B
:1028C1009FD29ED2AFD2ACD2BC759A50759CFD43BB
:0E28D1008E1053A2EF43AF01E4F5B5F5B62229
:1029DE00C28EC2AFE49001E2F0A3F09001E4F0A346
:0229EE00F022D5
:1027A400758920758DFD758BFDD28ED29CC29FD20A
:1027B4009ED2AFD2AC759A50759CFD438E1053A235
:1027C400EF43AF01E49001E2F0A3F09001E4F0A341
:0A27D400F0D2AFD28ED28CD2B52223
:1029C400758911758CB2758AE0758DFB758B24D26F
:0A29D400AFD28CD2A9D28ED2AB2272
:092A5E00C2A9C28EC2ABD2AF22A4
:0B266200900102EBF0A3EAF0A3E9F006
:10266D00900102E0FBA3E0FAA3E0F912002690012D
:10267D0005EEF0A3EFF0900102E0FBA3E0FAA3E07A
:10268D00F9E4FFFED3900106E09FEE6480F890011F
:10269D0005E064809840181215C5F5993099FDC272
:0F26AD0099740129F9E43AFA0FBF00010E80D5A4
:0126BC0022FB
:10284F00E4F5D8F5E9F5F9F5D99001E874B4F0A3FA
:10285F00E4F09001E8E0FEA3E0F5EAEEF5FAE024FB
:10286F0000F09001E8E034B4F075DA49D2DED2AF6F
:01287F002236
:1021A3004101730049018C52533233320000000065
:1021B30042017C000042017A0000420178000042A3
:0421C30001760000A1
:032A5300122A56EE
:072A56000000007F18DFFE05
:012A5D002256
:0E2A020000007F017EC27D9FDDFEDEFCDFFA5C
:012A100022A3
:0C000E007F167E037DE3DDFEDEFCDFFAE2
:01001A0022C3
:1026BD00E4FE9001847402F020A10A900184E0FFF1
:1026CD0004F0EF70F3122A53122A56E4900189F0A8
:1026DD0030A10204F09001847402F030A10A90013F
:1026ED0084E0FF04F0EF70F3900184E06401601664
:1026FD00900198E025E0FFF0900189E04F9001985E
:06270D00F00EEEB408AC72
:0127130022A3
:1022BE00C2A1122A02D2A1122A53D2A130A1030224
:1022CE0023649001847402F020A10A900184E0FF3F
:1022DE0004F0EF70F39001847402F030A10A9001C3
:1022EE0084E0FF04F0EF70F31226BD900198E090A9
:1022FE000195F01226BD900198E0900196F01226FD
:10230E00BD900198E090017EF01226BD900198E0FC
:10231E0090017FF01226BD900198E0FF900188F0A9
:10232E00D2A190017FE0FE90017EE0FD2EFC900197
:10233E0095E0FB2CFCA3E0FA2C900189F0B5071672
:10234E00A3EBF0A3EAF0900174EDF0A3EEF0900190
:07235E0088E0900186F022E7
:102817001222BE900174E0FF900178E4F0A3EFF07C
:10282700900175E0FF90017CE4F0A3EFF090018A3E
:10283700E0FF900176E4F0A3EFF090018BE0FF90CA
:08284700017AE4F0A3EFF02296
:0F21C7004201E605DC4201E200004201E40000B3
:10296F00EF1FAA0670011E4A6013E4FCFDC3ED942D
:0D297F007DEC940050EA0DBD00010C80F0CD
:01298C002228
:1028DF007C007D0B12161DEF24F4FDEE3401FC126B
:1028EF001261E4FBFA795278431211BFE4FBFA79D3
:0928FF003478431210B612129A4B
:0129080022AC
:101F2C00746573740072657475726E207465737465
:101F3C000A0047455454454D50455241545552455D
:101F4C000054203D2025642E25640A006F757431E1
:101F5C00203D2025640A0047455448554E494449C4
:101F6C0054590052203D2025642E25640A006F75BB
:101F7C007432203D2025640A004745544C4947489B
:101F8C0054006F757433203D2025640A005345546A
:101F9C005354454552004F4B0A004F5554314F4E48
:101FAC00004F5554324F4E004F5554334F4E004F47
:101FBC005554314F4646004F5554324F4646004F0C
:101FCC005554334F464600534554524742004250F5
:101FDC004D4F4E0042504D4F4646005345544D41D7
:101FEC0058005345544D494E005468203D202564FB
:101FFC002C2074656D706D696E203D2025640A007F
:10200C00434152445345540053544545525345544F
:10201C00004745544F555431004745544F555432A1
:10202C00004745544F55543300534F554E44464C7E
:10203C004147004C49474854464C4147004745549A
:10204C005245444C49474854007265646C69676852
:10205C0074203D2025640A00474554534F554E4487
:10206C00464C414700736F756E64203D2025640A11
:10207C0000474554414C4C464C4147494E4954004D
:10208C00524742203D202564256425640A00627075
:10209C006D203D2025640A00524546524553484F59
:1020AC004B0A004558495400455849544F4B0A00B7
:1000460090010574FFF0A3741FF0A3742CF0A3E4D1
:10005600F0A37404F07B017A007934122479EF70EE
:100066002890010574FFF0A3741FF0A37431F07B90
:10007600017A0179B01219047B017A0179B012264E
:100086006290007AE4F0A304F07BFF7A1F793E12B7
:100096000026900108EEF0A3EFF090010574FFF042
:1000A600A3741FF0A3743EF07B017A007934122406
:0700B60079EF60030201472E
:1000BD009000F8F0A3F012281790010574FFF0A33B
:1000CD00741FF0A3744DF0900178E0FFA3E0900150
:1000DD0008CFF0A3EFF090017CE0FFA3E090010AC0
:1000ED00CFF0A3EFF07B017A0179B01219047B01F7
:1000FD007A0179B012266230960A9000F8E4F0A3E6
:10010D0004F08007E49000F8F0A3F090010574FF6F
:10011D00F0A3741FF0A37458F09000F8E0FFA3E073
:10012D00900108CFF0A3EFF07B017A0179B012199D
:0A013D00047B017A0179B0122662FA
:100147007BFF7A1F793E120026900108EEF0A3EF9D
:10015700F090010574FFF0A3741FF0A37463F07BA4
:0E016700017A007934122479EF60030201FF5F
:100175009000F8F0A3F012281790010574FFF0A382
:10018500741FF0A3746FF0900176E0FFA3E0900177
:1001950008CFF0A3EFF090017AE0FFA3E090010A09
:1001A500CFF0A3EFF07B017A0179B01219047B013E
:1001B5007A0179B012266230970A9000F8E4F0A32C
:1001C50004F08007E49000F8F0A3F090010574FFB7
:1001D500F0A3741FF0A3747AF09000F8E0FFA3E099
:1001E500900108CFF0A3EFF07B017A0179B01219E5
:0A01F500047B017A0179B012266242
:1001FF007BFF7A1F7985120026900108EEF0A3EF9E
:10020F00F090010574FFF0A3741FF0A37485F07BC9
:0B021F00017A007934122479EF705549
:10022A009000F8F0A3F01221E17B017A01793212F1
:10023A00266230A00A9000F8E4F0A304F08007E4F4
:10024A009000F8F0A3F090010574FFF0A3741FF07A
:10025A00A3748EF09000F8E0FFA3E0900108CFF0BD
:10026A00A3EFF07B017A0179B01219047B017A01BC
:05027A0079B0122662BC
:10027F007BFF7A1F7999120026900108EEF0A3EF09
:10028F00F090010574FFF0A3741FF0A37499F07B35
:10029F00017A007934122479EF6003020367900129
:1002AF00AD04F0A37400F0A37434F0E49001ABF04C
:1002BF00A3F09001AE75F008803F9001ADE0FBA375
:1002CF00E0FAA3E0F91215C5FF60333395E0FEEFB6
:1002DF0024D0FBEE34FFFA9001ABE0FEA3E0FF7CED
:1002EF00007D0A12161DEF2BFFEE3A9001ABF0A323
:1002FF00EFF09001AEE475F00112168480BC122964
:10030F00DE9001ABE0FEA3E0FF1228DF9001E6EEE6
:10031F00F0A3EFF01229C49001E2E4F0A304F090EF
:10032F0001E4E4F0A304F07FE87E0312296F7FE875
:10033F007E0312296F7FF47E0112296F122A5E123B
:10034F0027A47BFF7A1F79A2122662E49001E2F0C4
:10035F00A3F09001E4F0A3F07BFF7A1F79A61200BF
:10036F0026900108EEF0A3EFF090010574FFF0A3C3
:10037F00741FF0A374A6F07B017A007934122479EC
:10038F00EF7002C2967BFF7A1F79AD1200269001A3
:10039F0008EEF0A3EFF090010574FFF0A3741FF0C7
:1003AF00A374ADF07B017A007934122479EF7002D7
:1003BF00C2977BFF7A1F79B4120026900108EEF0E6
:1003CF00A3EFF090010574FFF0A3741FF0A374B4B2
:1003DF00F07B017A007934122479EF7002C2A07B8E
:1003EF00FF7A1F79BB120026900108EEF0A3EFF001
:1003FF0090010574FFF0A3741FF0A374BBF07B0191
:10040F007A007934122479EF7002D2967BFF7A1F2B
:10041F0079C3120026900108EEF0A3EFF0900105CA
:10042F0074FFF0A3741FF0A374C3F07B017A0079FB
:10043F0034122479EF7002D2977BFF7A1F79CB1297
:10044F000026900108EEF0A3EFF090010574FFF085
:10045F00A3741FF0A374CBF07B017A0079341224BC
:10046F0079EF7002D2A07BFF7A1F79D3120026900A
:10047F000108EEF0A3EFF090010574FFF0A3741FD5
:10048F00F0A374D3F07B017A007934122479EF70E2
:10049F001A90003AE024D024FF92A3A3E024D024A2
:1004AF00FF92A5A3E024D024FF92A47BFF7A1F79AB
:1004BF00DA120026900108EEF0A3EFF09001057418
:1004CF00FFF0A3741FF0A374DAF07B017A00793484
:1004DF00122479EF7002D2A27BFF7A1F79E012000B
:1004EF0026900108EEF0A3EFF090010574FFF0A342
:1004FF00741FF0A374E0F07B017A00793412247931
:10050F00EF7002C2A27BFF7A1F79E71200269001DB
:10051F0008EEF0A3EFF090010574FFF0A3741FF045
:10052F00A374E7F07B017A007934122479EF60032A
:10053F000206FC9001AD04F0A37400F0A37434F034
:10054F009001AEE475F0061216849001ADE0FBA3A6
:10055F00E0FAA3E0F91215C56454707790008EF09D
:10056F00A3F09001AE75F0041216849001ADE0FB7C
:10057F00A3E0FAA3E0F91215C5700C900088F0A360
:10058F00F090008E0206AA9001ADE0FBA3E0FAA363
:10059F00E0F91215C5FF60333395E0FEEF24D0FB71
:1005AF00EE34FFFA90008EE0FEA3E0FF7C007D0AA0
:1005BF0012161DEF2BFFEE3A90008EF0A3EFF09086
:1005CF0001AEE475F00112168480BC900088E4F04F
:1005DF00A304F09001ADE0FBA3E0FAA3E0F912153C
:1005EF00C5644C707C900078F0A3F09001AE75F06C
:1005FF00051216849001ADE0FBA3E0FAA3E0F91217
:10060F0015C57011900074F0A3F09000787486F007
:10061F00A3749FF0229001ADE0FBA3E0FAA3E0F9F1
:10062F001215C5FF60333395E0FEEF24D0FBEE3497
:10063F00FFFA900078E0FEA3E0FF7C007D0A12161F
:10064F001DEF2BFFEE3A900078F0A3EFF09001AE84
:10065F00E475F00112168480BC900074E4F0A304DA
:10066F00F09001ADE0FBA3E0FAA3E0F91215C56429
:10067F0048707A90008AF0A3F09001AE75F00412E2
:10068F0016849001ADE0FBA3E0FAA3E0F91215C5C3
:10069F00700F900082F0A3F090008AF0A37464F0C2
:1006AF00229001ADE0FBA3E0FAA3E0F91215C5FF1C
:1006BF0060333395E0FEEF24D0FBEE34FFFA900069
:1006CF008AE0FEA3E0FF7C007D0A12161DEF2BFFD0
:1006DF00EE3A90008AF0A3EFF09001AEE475F001CE
:1006EF0012168480BC900082E4F0A304F07BFF7AA2
:1006FF001F79EE120026900108EEF0A3EFF09001A3
:10070F000574FFF0A3741FF0A374EEF07B017A0061
:10071F007934122479EF60030209259001AD04F0BA
:10072F00A37400F0A37434F09001AEE475F00612D8
:10073F0016849001ADE0FBA3E0FAA3E0F91215C512
:10074F006454600302081090008CF0A3F09001AE87
:10075F0075F0041216849001ADE0FBA3E0FAA3E05C
:10076F00F91215C57011900084F0A3F090008C74ED
:10077F00FFF0A374D8F0229001ADE0FBA3E0FAA341
:10078F00E0F91215C5FF60333395E0FEEF24D0FB7F
:10079F00EE34FFFA90008CE0FEA3E0FF7C007D0AB0
:1007AF0012161DEF2BFFEE3A90008CF0A3EFF09096
:1007BF0001AEE475F00112168480BC900084E4F061
:1007CF00A304F090010574FFF0A3741FF0A374F558
:1007DF00F0900178E0FFA3E0900108CFF0A3EFF0D5
:1007EF0090008CE0FFA3E090010ACFF0A3EFF07B25
:1007FF00017A0179B01219047B017A0179B01226BE
:10080F00629001ADE0FBA3E0FAA3E0F91215C56415
:10081F004C7079900076F0A3F09001AE75F0051250
:10082F0016849001ADE0FBA3E0FAA3E0F91215C521
:10083F00700E900070F0A3F074FF9000760208D550
:10084F009001ADE0FBA3E0FAA3E0F91215C5FF603C
:10085F00333395E0FEEF24D0FBEE34FFFA900076B1
:10086F00E0FEA3E0FF7C007D0A12161DEF2BFFEECA
:10087F003A900076F0A3EFF09001AEE475F001121C
:10088F00168480BC900070E4F0A304F09001ADE0FA
:10089F00FBA3E0FAA3E0F91215C564487078900045
:1008AF0086F0A3F09001AE75F0041216849001AD9E
:1008BF00E0FBA3E0FAA3E0F91215C5700D900080DC
:1008CF00F0A3F0900086F0A3F0229001ADE0FBA31F
:1008DF00E0FAA3E0F91215C5FF60333395E0FEEFA0
:1008EF0024D0FBEE34FFFA900086E0FEA3E0FF7CFD
:1008FF00007D0A12161DEF2BFFEE3A900086F0A333
:10090F00EFF09001AEE475F00112168480BC9000F8
:10091F0080E4F0A304F07BFF7A20790C120026907C
:10092F000108EEF0A3EFF090010574FFF0A374201F
:10093F00F0A3740CF07B017A007934122479EF70F4
:01094F007136
:100950007B019000F804F0A37400F0A37400F09001
:1009600001ADEBF0A37400F0A37434F09001AEE499
:1009700075F00780319001ADE0FBA3E0FAA3E0F948
:100980001215C5FF60259000F8E0FBA3E0FAA3E094
:10099000F9EF12160B9000F9E475F001121684902D
:1009A00001AEE475F00112168480CA9000F8E0FBF5
:1009B000A3E0FAA3E0F9E412160B900032F0A304CE
:0109C000F046
:1009C1007BFF7A207914120026900108EEF0A3EF44
:1009D100F090010574FFF0A37420F0A37414F07B70
:1009E100017A007934122479EF706A9001AD04F034
:1009F100A37400F0A37434F09001AEE475F0081212
:100A01001684E49000C6F0A3F09001ADE0FBA3E0F2
:100A1100FAA3E0F91215C5FF60333395E0FEEF2428
:100A2100D0FBEE34FFFA9000C6E0FEA3E0FF7C00AD
:100A31007D0A12161DEF2BFFEE3A9000C6F0A3EFD0
:100A4100F09001AEE475F00112168480BC9000664E
:100A5100E4F0A304F07BFF7A20791D1200269001B7
:100A610008EEF0A3EFF090010574FFF0A37420F0FD
:100A7100A3741DF07B017A007934122479EF704858
:100A81009000F8F0A3F03096099000F8F0A304F07C
:100A91008007E49000F8F0A3F090010574FFF0A343
:100AA100741FF0A37458F09000F8E0FFA3E09001E8
:100AB10008CFF0A3EFF07B017A0179B01219047B22
:080AC100017A0179B0122662EE
:100AC9007BFF7A207925120026900108EEF0A3EF2A
:100AD900F090010574FFF0A37420F0A37425F07B56
:0B0AE900017A007934122479EF704884
:100AF4009000F8F0A3F03097099000F8F0A304F008
:100B04008007E49000F8F0A3F090010574FFF0A3CF
:100B1400741FF0A3747AF09000F8E0FFA3E0900152
:100B240008CFF0A3EFF07B017A0179B01219047BAE
:080B3400017A0179B01226627A
:100B3C007BFF7A20792D120026900108EEF0A3EFAE
:100B4C00F090010574FFF0A37420F0A3742DF07BDA
:0B0B5C00017A007934122479EF704810
:100B67009000F8F0A3F030A0099000F8F0A304F08B
:100B77008007E49000F8F0A3F090010574FFF0A35C
:100B8700741FF0A3748EF09000F8E0FFA3E09001CB
:100B970008CFF0A3EFF07B017A0179B01219047B3B
:080BA700017A0179B012266207
:100BAF007BFF7A207935120026900108EEF0A3EF33
:100BBF00F090010574FFF0A37420F0A37435F07B5F
:100BCF00017A007934122479EF702B7B017A007946
:100BDF003D9001AD04F0A3EAF0A3E9F01215C5FFB3
:100BEF00B43108900068E4F0A304F0EFB43007E4E8
:100BFF00900068F0A3F07BFF7A20793F12002690D7
:100C0F000108EEF0A3EFF090010574FFF0A374203C
:100C1F00F0A3743FF07B017A007934122479EF70DE
:100C2F002B7B017A00793D9001AD04F0A3EAF0A38C
:100C3F00E9F01215C5FFB4310890007EE4F0A3046B
:100C4F00F0EFB43007E490007EF0A3F07BFF7A2042
:100C5F007949120026900108EEF0A3EFF0900105FC
:100C6F0074FFF0A37420F0A37449F07B017A00792C
:070C7F0034122479EF7051DB
:100C86009000F8F0A3F090007EE07004A3E0640109
:100C960070099000F8F0A304F08007E49000F8F0E3
:100CA600A3F090010574FFF0A37420F0A37455F02F
:100CB6009000F8E0FFA3E0900108CFF0A3EFF07BEF
:100CC600017A0179B01219047B017A0179B01226F2
:010CD60062BB
:100CD7007BFF7A207964120026900108EEF0A3EFDB
:100CE700F090010574FFF0A37420F0A37464F07B07
:0B0CF700017A007934122479EF70516B
:100D02009000F8F0A3F0900068E07004A3E06401A2
:100D120070099000F8F0A304F08007E49000F8F066
:100D2200A3F090010574FFF0A37420F0A37471F096
:100D32009000F8E0FFA3E0900108CFF0A3EFF07B72
:100D4200017A0179B01219047B017A0179B0122675
:010D5200623E
:100D53007BFF7A20797D120026900108EEF0A3EF45
:100D6300F090010574FFF0A37420F0A3747DF07B71
:0E0D7300017A007934122479EF600302107ABD
:100D81009000F8F0A3F0C2DE12281790010574FF5D
:100D9100F0A3741FF0A3744DF0900178E0FFA3E07D
:100DA100900108CFF0A3EFF090017CE0FFA3E09069
:100DB100010ACFF0A3EFF07B017A0179B012190497
:100DC1007B017A0179B0122662122A029001057420
:100DD100FFF0A3741FF0A3746FF0900176E0FFA3FE
:100DE100E0900108CFF0A3EFF090017AE0FFA3E0DB
:100DF10090010ACFF0A3EFF07B017A0179B01219CB
:100E0100047B017A0179B0122662122A021221E1D1
:100E11007B017A017932122662122A0230960A90F7
:100E210000F8E4F0A304F08007E49000F8F0A3F0E8
:100E310090010574FFF0A3741FF0A37458F09000A3
:100E4100F8E0FFA3E0900108CFF0A3EFF07B017A77
:100E51000179B01219047B017A0179B0122662126C
:100E61002A0230970A9000F8E4F0A304F08007E426
:100E71009000F8F0A3F090010574FFF0A3741FF047
:100E8100A3747AF09000F8E0FFA3E0900108CFF09E
:100E9100A3EFF07B017A0179B01219047B017A0189
:100EA10079B0122662122A0230A00A9000F8E4F00A
:100EB100A304F08007E49000F8F0A3F0900105741A
:100EC100FFF0A3741FF0A3748EF09000F8E0FFA36D
:100ED100E0900108CFF0A3EFF07B017A0179B01225
:100EE10019047B017A0179B0122662122A0220A329
:100EF10009E49000FAF0A3F080089000FAE4F0A36E
:100F010004F020A509E49000FCF0A3F08008900013
:100F1100FCE4F0A304F020A409E49000FEF0A3F0A7
:100F210080089000FEE4F0A304F090010574FFF046
:100F3100A37420F0A3748CF09000FAE0FFA3E0907A
:100F41000108CFF0A3EFF09000FCE0FFA3E09001D7
:100F51000ACFF0A3EFF09000FEE0FFA3E090010CB8
:100F6100CFF0A3EFF07B017A0179B01219047B0174
:100F71007A0179B0122662122A0230A20A90010087
:100F8100E4F0A304F08007E4900100F0A3F09001E5
:100F91000574FFF0A37420F0A3749AF0900100E0AF
:100FA100FFA3E0900108CFF0A3EFF07B017A017974
:100FB100B01219047B017A0179B0122662122A0259
:100FC100900068E07004A3E0640170099000F8F0FB
:100FD100A304F08007E49000F8F0A3F090010574F9
:100FE100FFF0A37420F0A37471F09000F8E0FFA368
:100FF100E0900108CFF0A3EFF07B017A0179B01204
:1010010019047B017A0179B012266290007EE070AA
:1010110004A3E0640170099000F8F0A304F08007D4
:10102100E49000F8F0A3F090010574FFF0A37420A0
:10103100F0A37455F09000F8E0FFA3E0900108CF11
:10104100F0A3EFF07B017A0179B01219047B017AE8
:101051000179B0122662122A0290010574FFF0A3F1
:101061007420F0A374A4F07B017A0179B012190401
:091071007B017A0179B0122662BC
:10107A007BFF7A2079AF120026900108EEF0A3EFE9
:10108A00F090010574FFF0A37420F0A374AFF07B15
:10109A00017A007934122479EF70107BFF7A207973
:0C10AA00B4122662D2A212000EC2A222D2
:0A21D6004201EC00004201EE00009F
:030023000225FDB6
:0D25FD00C0E0C0F0C083C082C0D075D0081F
:10260A0030984AAF99C298EF642A601A90006CE435
:10261A0075F00112169AFC743425F0F58274003CA8
:10262A00F583EFF0802790007AE4F0A3F090006C35
:10263A00E0FEA3E02434F58274003EF583E4F090D2
:0D264A000072F0A304F090006CE4F0A3F027
:0B265700D0D0D082D083D0F0D0E03291
:0300430002250093
:10250000C0E0C0F0C083C082C0D075D000C000C0A1
:1025100004C006C007E59A30E053539AFE9000C508
:10252000E59BF0E0FFB40207900090E4F0A3F0EF29
:102530006402601DEF64036018900090E475F00180
:1025400012169AFC749325F0F58274003CF583EF23
:10255000F0EFB4031890007D7401F0900090E0FE5D
:10256000A3E02491F58274003EF583E4F0D007D017
:1025700006D004D000D0D0D082D083D0F0D0E032CA
:03000B000227DEEB
:1027DE00C0E0C083C082C0D075D000C006C00790D4
:1027EE0001E2E0FEA3E0FF64014E7010D295758CFD
:1027FE00B2758AE0EF64014E7002D28ED007D00619
:09280E00D0D0D082D083D0E0329A
:03001B00022714A5
:10271400C0E0C083C082C0D075D000C003C004C074
:1027240005C006C0079001E4E0FCA3E0FD64014C91
:10273400701EC2959001E6E0FEA3E0FFC3E49FFB98
:10274400E49EF58DAF038F8BED64014C7002C28E55
:10275400D007D006D005D004D003D0D0D082D08307
:03276400D0E03290
:03003B000225801B
:10258000C0E0C0F0C083C082C0D075D000C000C021
:1025900001C002C003C004C005C006C007C2D89075
:1025A00001E8E0FEA3E0F5EAEEF5FAE02400F090A1
:1025B00001E8E034B4F09001EFE004F0700690011F
:1025C000EEE004F09001EEE07004A3E064287012E5
:1025D0009001EEF0A3F09001ECF0A3F01228171296
:1025E00021E1D007D006D005D004D003D002D0011D
:0D25F000D000D0D0D082D083D0F0D0E03227
:0C2A47006C69676874203D2025640A005B
:1023F100AB07AA067C277D1012162FEF243090011F
:1024010069F07C277D10AF03AE0212162FAA04AB30
:10241100057C037DE8AF03AE0212162FEF24309046
:102421000164F07C037DE8AF03AE0212162FAA040B
:10243100AB057C007D64AF03AE0212162FEF243092
:10244100A3F07C007D64AF03AE0212162FAA04AB89
:10245100057C007D0AAF03AE0212162FEF243090E7
:102461000168F07C007D0AAF03AE0212162FAB05A6
:08247100EB243090016AF02217
:1029A900E4FDFCC3ED9FEC9E50107B127A98DAFE91
:0A29B900DBFA000DBD00010C80E9FF
:0129C30022F1
:050003007F0CDFFE0090
:0100080022D5
:082A67007F617E8DDEFEDFFAC7
:012A6F002244
:0F2A1100D2A7D2A6120003C2A7120003C2A622A8
:0C2A3B00C2A7D2A6120003D2A70200031B
:0E2A2000A20992A7D2A6120003C2A6020003CA
:0D2A2E00D2A6120003A2A7C2A61200032226
:02298D00AE0793
:10298F00E4FDEE25E0FE92A7D2A6120003C2A61226
:0A299F0000030DEDB408EB022A2E30
:10293000E4FED2A7FDEE25E0FED2A6120003A2A778
:10294000E4334EFEC2A61200030DEDB408E7AF0655
:012950002264
:1029F000AC07122A117F4612298DAF0412298D02CD
:022A00002A3B6F
:10288000122A117F4712298DE4FC122930746B2C17
:10289000F582E43401F583EFF0ECB40304D209804F
:1028A00002C209122A200CECB403DF122A3B022ACE
:0128B00067C0
:05001E007F010229F042
:1021E100E4FFFE12001E7F011229F07F101229F078
:1021F1007FB47E001229A912288090016BE0FF9024
:102201000166E4F0A3EFF0E0FE90016CE07C0024B5
:1022110000FFEC3EFE900166F0A3EFF0FDAC06EC92
:102221001212617B9A7A997999783F1211BF121231
:102231009A1223F1900164E024D0FFE434FFFE7C84
:10224100037DE812161DAA06AB07900169E024D0B0
:10225100FFE434FFFE7C277D1012161DEF2BFBEEF1
:102261003AFA900165E024D0FFE434FFFE7C007D62
:102271006412161DEF2BFBEE3AFA900168E024D0B0
:10228100FFE434FFFE7D0A12161DEF2BFFEE3AFE2E
:1022910090016AE024D0FDEC34FFCD2FFFED3EFE2E
:1022A10090010574FFF0A3742AF0A37447F0A3EE24
:0D22B100F0A3EFF07B017A017932021904ED
:1010B600EC4D6011E8497017ED33EC3304600DE434
:1010C600FCFFFEFD22E933E8330470F80213061232
:1010D60012D158046009E4CC248150062850090234
:1010E600131028400302130DC0E0EB4A7044B98088
:1010F60006D0E0FB0212FCEF4E701CBD8008EBFF31
:10110600EAFEE9FD80EBE98DF0A4FEE5F002119F11
:10111600E9CDF9EAFEEBFFEF89F0A4FCE5F0CE8914
:10112600F0A42EFFE435F0CD89F0A42DFEE435F0D1
:101136008067EF4E7005BD80D780C3EF8BF0A4ACFF
:10114600F0EE8BF0A42CFCE435F0F8EF8AF0A42C3A
:10115600E5F038FCE433CB8DF0A42CFCE5F03BF84D
:10116600EE8AF0A42CFCE5F038F8E433CF89F0A43D
:101176002CFCE5F038CF3400CE89F0A42FFFE5F043
:101186003EFEE433C98DF0A42EFEE5F039CD8AF09B
:10119600A42FFFE5F03EFEE43DFD33D0E0FB500713
:1011A6000BBB000F021310EC2CFCEF33FFEE33FEEB
:0611B600ED33FD0212E81A
:1011BC00021310EC5D046005E85904700302130679
:1011CC001212D1580460F6EC4860F2EC7004FDFE8B
:1011DC00FF22C860DB2481C85009C3986002500606
:1011EC0002130D9850CAF582E9294B4A7005AB825F
:1011FC000212FC75F0007C1A7880C3EF9BEE9AED1E
:10120C0099400DC3EF9BFFEE9AFEED99FDE842F07D
:10121C00DC23ACF0D0E0FFD0E0FED0E0FDAB8220D0
:10122C00E7101BEB60BAEC2CFCEF33FFEE33FEED5A
:10123C0033FD0212E8E803F830E705C0F075F00062
:10124C00EF2FFFEE33FEED33FD40B830E7C280AA3E
:10125C0075F020800E75F010800575F0087D007E0D
:10126C00007F003392D530D5031216B0EC3340100A
:10127C00EF33FFEE33FEED33FDEC33FCD5F0ED2216
:0E128C00E5F0247EA2D513CC92E7CDCEFF2252
:10129A00EDD2E7CD33EC3392D524814006E4FFFE4C
:1012AA00FDFC22FCE4CFCECDCC24E0501174FF80AB
:1012BA00EDC3CC13CCCD13CDCE13CECF13CF047048
:0712CA00F030D5DE0216B082
:10189F00E5152405F582E43401F583E00515229062
:1018AF000102301003900105E475F0011216BE021B
:1018BF0015C52009E97F2ED2098018EF540F249007
:1018CF00D43440D4FF300D0BEF24BFB41A005003B3
:1018DF002461FFE516600215160519E5197002055A
:1018EF001830100E900102E475F0011216BEEF02CF
:1018FF00160B0229097403D2108003E4C210F515E8
:10190F009001021216D5E4F516F518F519E51660D3
:10191F00077F201218E280F57517FFC20AC209C2AD
:10192F000BC20CC20EC20FC2111218AEFF700D30D7
:10193F0010057F001218F3AF19AE1822B4255FC23D
:10194F00D5C20D1218AEFF24D0B40A00501A75F08C
:10195F000A781630D50508B6FF0106C6A426F6206C
:10196F00D5047002D20C80D924CFB41A00EF5004E2
:10197F00C2E5D20D021BE5D20A80C6D20980C0D2C1
:10198F000B80BCD2D580BAD20E80B47F201218E261
:10199F00200B077401B5160040F112189FFF1218A3
:1019AF00E202191CD211D20F809512189FFB121848
:1019BF009FFA12189FF94A4B700679E37A1C7BFF46
:1019CF00200B2EE516602A7E008E8275830012157D
:1019DF00DE60060EEE651770F0C2D5EBC0E0EAC010
:1019EF00E0E9C0E0EE121C46D0E0F9D0E0FAD0E01A
:1019FF00FB1215C5FF60AAEBC0E0EAC0E0E9C0E04A
:101A0F001218E2D0E02401F9D0E03400FAD0E0FB64
:101A1F00E5170460DCD517D98087D20B80A2121C82
:101A2F002860F7E51770010412131BA917600DE565
:101A3F0017600914F517121CD0EF60F3EA30E702B4
:101A4F00F404C3995079EAF425170430E701E4044C
:101A5F00F517800D121C2860C1EA05172517121300
:101A6F001BEA900131F030E701E4251704D5170484
:101A7F00200E0114121C46E4C0E0121CD09001315C
:101A8F00E0601320E70714F01218CA802204F0D088
:101A9F00E014C0E07F001218CAE51760071218C1E2
:101AAF001517800B300E031218C1D0E002191CD08D
:101ABF00E00480C4121C28609EE5170412131B90CB
:101ACF000131EAF0E517200E026001042404121C14
:011ADF0046C0
:101AE00074FF04C0E0121CD01218CAE517200E02C1
:101AF00060031218C1D0E0B517E87F451218D490E2
:101B00000131E07F2B30E7047F2DF404C0E0121890
:101B1000E2D0E075F00A84C0F01218CBD0E01218C1
:101B2000CB02191C791080027908C20FC2118008FB
:101B3000D2D5790A8004790AC2D5E517047002F576
:101B400017E4FAFDFEFF12189FFC7B08200A13120F
:101B5000189FFD7B1030090A12189FFE12189FFF74
:101B60007B20EC3382D592D55013C3E43009069F15
:101B7000FFE49EFEE4200A039DFDE49CFCE4CBF818
:101B8000C20AEC700CCFCECDCCE824F8F870F3800C
:101B900017C3EF33FFEE33FEED33FDEC33FCEB33D5
:101BA000FB994002FB0FD8E9EB300A05F8D0E0C4FE
:101BB00048B20AC0E00AEC4D4E4F78207B0070C25C
:101BC000EAB5170040BCC0E0121C48D0F0D0E020BD
:101BD0000A04C4C0E0C4B20AC0F01218CBD0F0D5D9
:101BE000F0EB02191C1216DE19B9531B2458198A7E
:101BF0004C1986421B284F1B30441B3049199F4308
:101C00001B36551A63461AC3451A2D471D03501932
:101C10008E2D19922E19B52B19962319B3201CEC71
:101C20002A194E48000019ADE517B4FF03751706D1
:101C300012189FFC12189FFD12189FFE12189FFF8A
:101C400090012A021358790AA2D5200C14300E09EB
:101C5000B910020404B9080104A2D5200F025001F2
:101C600004200B68920BB516005034C0E07F203082
:101C70000C197F30A20B720F720E500F121C9FC2F4
:101C80000BC20FC20EC2117F30800F300E03E9C0AD
:101C9000E01218E2300E03D0E0F9D0E0B516CC30F7
:101CA0000E177F30B9100C1218E27F58300D077FE5
:101CB000788003B908031218E2300B057F2D021853
:101CC000E27F202011F87F2B200FF322920B80CF90
:101CD0007F00B40700500B242AF582E43401F58319
:101CE000E0FF22286E756C6C2900D20A12189F3012
:101CF0000AF8C20A781630D50108F602194E2D509E
:101D000043495812189F2403B405004001E4901C75
:101D1000FE931218D3743A1218D3D20C751604021B
:021D20001B2482
:1012D100E9D2E7C933E833F892D5EDD2E7CD33EC63
:0712E10033FC5002B2D522DC
:1012E800EC30E7100FBF000C0EBE00080DBD000467
:1012F8000BEB6014A2D5EB13FCED92E7FD2274FF13
:10130800FCFDFEFF22E480F8A2D574FF13FC7D806B
:03131800E480EF7F
:10131B00F920E73624F950037907E4F42402FBE5BE
:10132B0082158270021583DBF6E024FB501BE9600B
:10133B0014E4F0E582158270021583E004F0B40A20
:0D134B0008E4F0D9EE7401F00A22C2D522A8
:10135800ED33EC3392D5FA602AB4FF33EDC2E77B64
:10136800FF60067A13797DE4227A13798620D50402
:101378007A137981224E614E002B494E46002D4941
:101388004E4600E47A08F0A3DAFC7B00740722C01A
:1013980083C082ECC0E0EDC0E0EEC0E0EFC0E0EA60
:1013A80075F010A4CAABF075F04DA42BFBE435F032
:1013B800FCEA2410FAEB34C5FBEC34D9FCEDC2E7A7
:1013C800FF75F056A4F42411C5F0F434C58FF0A4C9
:1013D8002AE5F03BE43CF020E714121585D0E0FF45
:1013E800D0E0FED0E0FDD0E0FC1211BF8014F40480
:1013F800121585D0E0FFD0E0FED0E0FDD0E0FC1271
:1014080010B6D082D083E0FAEDD2E7CD33EC3324A6
:1014180082FBE4C3CF33CFCE33CECD33CD33DBF332
:101428007B0775F00A846004F0A31B0AE5F0F0A3BB
:101438008FF0740AA4FFACF08EF0740AA42CFEACF2
:10144800F050010C8DF0740AA42CFDE435F0F0A3E3
:05145800DBDE74072239
:10145D00021306E86480F8E933E83360110460F0A4
:10146D00ED33EC337009E8FCE9FDEAFEEBFF2204F5
:10147D0060DED3EB9FEA9EE99DE8C2E78CF0C2F7F0
:10148D0095F0400CE8CCF8E9CDF9EACEFAEBCFFBBC
:10149D001212D185D0F05804700320D5B3E8047032
:1014AD00075002B2D502131092D5EC0460F7E4CCCC
:1014BD00C0E0C398F8603B94186008400DD0E0FB85
:1014CD000212E8E4FBFAC9FC8028E830E406E4C91E
:1014DD00FBE4CAFCE830E305E4C9CACBFCE85407D9
:1014ED006010F8C3E913F9EA13FAEB13FBEC13FCE4
:1014FD00D8F130F52FC3E49CFCEF9BFFEE9AFEED87
:10150D0099FDD0E0FBEF4E4D4C701222DB03021320
:10151D000DEC2CFCEF33FFEE33FEED33FDED30E73C
:10152D00EB0212E8EF2BFFEE3AFEED39FDD0E0FBBA
:10153D0050130BBB0003021310ED13FDEE13FEEF62
:08154D0013FFEC13FC0212E88D
:101555003F8000004120000042C80000447A00009E
:10156500461C400047C35000497424004B18968020
:101575004CBEBC205A0E1BCA6753C21C749DC5AE17
:10158500FB60065407601C23231215B3EB54386027
:101595000912159F1215AE1210B6ECF8EDF9EEFA18
:1015A500EFCB22EB1215AE80F1543803241C9015B5
:1015B50055FE93FC0EEE93FD0EEE930ECE93FF2299
:0300000002236573
:0C236500787FE4F6D8FD7581220223ACDD
:1015C500BB010689828A83E0225002E722BBFE0224
:0915D500E32289828A83E4932257
:1015DE00BB010CE58229F582E5833AF583E02250C2
:1015EE0006E92582F8E622BBFE06E92582F8E2220C
:0D15FE00E58229F582E5833AF583E4932226
:10160B00BB010689828A83F0225002F722BBFE01BE
:02161B00F322B8
:10161D00EF8DF0A4A8F0CF8CF0A428CE8DF0A42EE1
:02162D00FE229B
:10162F00BC000BBE0029EF8DF084FFADF022E4CC9F
:10163F00F875F008EF2FFFEE33FEEC33FCEE9DEC68
:10164F00984005FCEE9DFE0FD5F0E9E4CEFD22EDAE
:10165F00F8F5F0EE8420D21CFEADF075F008EF2FF8
:10166F00FFED33FD4007985006D5F0F222C398FDE9
:05167F000FD5F0EA2286
:10168400C5F0F8A3E028F0C5F0F8E58215827002F1
:061694001583E038F0228E
:10169A00A3F8E0C5F025F0F0E58215827002158303
:0616AA00E0C838F0E82260
:0E16B000C3E49FFFE49EFEE49DFDE49CFC224B
:1016BE00F8E0FBA3A3E0F925F0F0E58215827002B5
:0716CE001583E0FA38F02259
:0916D500EBF0A3EAF0A3E9F02216
:1016DE00D083D082F8E4937012740193700DA3A39B
:1016EE0093F8740193F5828883E4737402936860AF
:0616FE00EFA3A3A380DFAF
:10290900EFB40A07740D122914740A309811A899A2
:10291900B8130CC2983098FDA899C298B811F6302E
:0729290099FDC299F5992206
:10170400E3F5F009E208B5F06D606B80F3E3F5F002
:1017140009E608B5F060605E80F387F009E608B575
:10172400F054605280F487F009E208B5F04860464E
:1017340080F488828C8387F009E0A3B5F0386036A2
:1017440080F488828C8387F009E493A3B5F0276042
:101754002580F388828C83E3F5F009E0A3B5F016C5
:10176400601480F388828C83E3F5F009E493A3B5D5
:10177400F004600280F202182F808580E7808E805A
:10178400D2803C8015806C807E809B80B5808B806D
:10179400A1804F8070803A02183B89828A83ECFAD8
:1017A400E493F5F0A3C8C582C8CCC583CCE493A365
:1017B400C8C582C8CCC583CCB5F070606E80E189A1
:1017C400828A83E493F5F0A3E208B5F05E605C805E
:1017D400F289828A83E0F5F0A3E608B5F04D604B08
:1017E40080F389828A83E0F5F0A3E208B5F03C60D7
:1017F4003A80F389828A83E493F5F0A3E608B5F08E
:101804002A602880F2805389828A83ECFAE493F573
:10181400F0A3C8C582C8CCC583CCE0A3C8C582C820
:10182400CCC583CCB5F004600280E27FFFB5F00242
:101834000F2240027F012289828A83ECFAE0F5F0CC
:10184400A3C8C582C8CCC583CCE0A3C8C582C8CC14
:10185400C583CCB5F0D560D380E389828A83ECFA62
:10186400E0F5F0A3C8C582C8CCC583CCE493A3C873
:10187400C582C8CCC583CCB5F0B160AF80E288F036
:10188400ED2402B4040050A3F582EB2402B4040056
:0B1894005099232345822390177D7399
:10247900900102EBF0A3EAF0A3E9F0900105E0FB7B
:10248900A3E0FAA3E0F91215C5FE900102E0FBA34F
:10249900E0FAA3E0F91215C5FF6E702AEF600E90FD
:1024A900010874FFF5F012168445F070037F0022CD
:1024B900900103E475F001121684900106E475F0A9
:1024C9000112168480B5900102E0FBA3E0FAA3E0B3
:1024D900F91215C5FDD3EE6480F8ED6480984003C8
:1024E9007F0122900105E0FBA3E0FAA3E0F91215B0
:0724F900C5FFC3ED9FFF22A8
:10002600E4FFFE1215C5600C0FEF70010E09E970B2
:05003600F20A80EF2238
:10237100021D22E493A3F8E493A34003F68001F243
:1023810008DFF48029E493A3F85407240CC8C3336D
:10239100C4540F4420C8834004F456800146F6DF3C
:1023A100E4800B01020408102040809020BCE47EF0
:1023B100019360BCA3FF543F30E509541FFEE49331
:1023C100A360010ECF54C025E060A840B8E493A3F8
:1023D100FAE493A3F8E493A3C8C582C8CAC583CA23
:1023E100F0A3C8C582C8CAC583CADFE9DEE780BEDB
:0121E00000FE
:00000001FF
