:102EB20050726F6772616D6D6520496E697420533F
:102EC2007563636573732E20426175643A393630D7
:102ED200300A09004F4B0A006F757433203D2030D1
:102EE2000A006F757433203D20310A006F7574310A
:102EF200203D20300A006F757431203D20310A00D8
:102F02006F757432203D20310A006F757432203D96
:102F120020300A002A63617264206964203D202502
:042F220073230A000B
:10273600420065000041006F0041007000603200F9
:10274600270000000000000000000000000000005C
:102756000000000000000000000000000000000073
:102766000000000000000000000000000000000063
:1027760000000042005F000042006D00004200F1D0
:10278600000054011C0000000000000000000000D2
:10279600000000000000000000420071000042003E
:1027A600870064420083FFD842006B869F4200691F
:1027B600FFFF420081006442007B000042007F0070
:1027C60000420079000042006700004200630000FA
:1027D600420077000042007500004200730000428C
:1027E600005B000042005900004200250000420143
:1027F60031000042005D0000420061000042007DA1
:102806000000420023000042008500006064008D45
:1028160035312044656D6F20426F6172640D0A4345
:102826006F707972696768742028632920323031A5
:1028360036206277656C636F203C3131343339352D
:10284600353838304071712E636F6D3E0D0A427512
:10285600696C64204461746520323031362D303124
:102866002D33300D0A56657273696F6E20312E3026
:042876000D0A000047
:101C230012344E1231367B017A00798D122FF07BFC
:101C3300FF7A2E79B2122FF09000897431F0A3F05D
:101C4300A3F0900065E07004A3E064017003022038
:101C5300C0900073E07004A3E06401700B30B20520
:101C6300123443800312344E30B703021CF112299D
:101C7300C990005DE07004A3E0640160F49000612A
:101C8300E4F0A304F01234431233BE7F5A7E0012F1
:101C93003275900275EEF0A3EFF012335A90027191
:101CA300E4F0A304F0900273E4F0A304F01229C952
:101CB3007FE87E031233057FE87E031233057FF44A
:101CC3007E011233051234581230F57BFF7A2E79D8
:101CD300D6122FF0E4900271F0A3F0900273F0A3F8
:101CE300F012344EE4900061F0A3F01229C930B42D
:101CF30003021D9B90005BE07004A3E0640160039A
:101D0300021D9B900085E07002A3E07041C2969093
:101D130001E774FFF0A3742EF0A374DAF07B017A69
:101D23000279531221327B017A027953122FF07F09
:101D3300E87E031233057FE87E031233057FF47ECA
:101D430001123305900085E4F0A304F0804A90006B
:101D530085E07004A3E06401703ED2969001E774BD
:101D6300FFF0A3742EF0A374E4F07B017A0279539D
:101D73001221327B017A027953122FF07FE87E031E
:101D83001233057FE87E031233057FF47E0112339D
:101D930005E4900085F0A3F0900079E07004A3E0DF
:101DA3006401703D900219E0FEA3E0FFD39000842C
:101DB300E09FEE6480F8900083E06480984022C244
:101DC300949001E774FFF0A3742EF0A374EEF07BFC
:101DD300017A0279531221327B017A027953122F4D
:101DE300F090007FE07004A3E06401703D900087F1
:101DF300E0FEA3E0FFD390021AE09FEE6480F89028
:101E03000219E06480984022D2949001E774FFF0B5
:101E1300A3742EF0A374F8F07B017A027953122194
:101E2300327B017A027953122FF0900077E070042D
:101E3300A3E06401703D900081E0FEA3E0FFD39036
:101E43000218E09FEE6480F8900217E064809840E7
:101E530022C2979001E774FFF0A3742FF0A37402DA
:101E6300F07B017A0279531221327B017A02795392
:101E7300122FF0900075E07004A3E06401703D90B0
:101E8300007BE0FEA3E0FFC3900218E09FEE6480B6
:101E9300F8900217E06480985022D2979001E7747B
:101EA300FFF0A3742FF0A3740CF07B017A02795333
:101EB3001221327B017A027953122FF0900063E0F2
:101EC3007004A3E064017035900069E0FEA3E0FFB5
:101ED300C39001A7E09FEE6480F89001A6E06480C0
:101EE30098501A900089E024D024FF92A1A3E02403
:101EF300D024FF92A0A3E024D024FF92A3900067F4
:101F0300E07004A3E06401702190006BE0FEA3E0A5
:101F1300FFD39001A7E09FEE6480F89001A6E064F0
:101F230080984006D2A1D2A0D2A3900070E06401B1
:101F33006003021C45A3E07002A3E0704978007CB3
:101F4300007D017B017A01791C121C06900072E06E
:101F530004F07006900071E004F09001E774FFF064
:101F6300A3742FF0A37416F0A37401F0A37401F00B
:101F7300A3741CF07B017A0279531221327B017A1C
:101F8300027953122FF078007C007D017B017A01E6
:101F9300791C121B1DEF603B9001E774FFF0A374E3
:101FA3002FF0A37416F0A37401F0A37401F0A374CB
:101FB3001CF07B017A0279531221327B017A027978
:101FC30053122FF078007C007D017B017A01791C8C
:101FD300121C06781C7C017D017B017A00791412A6
:101FE3001B1DEF6003021C45900059E07004A3E041
:101FF300640160030220A2900025E07004A3E06462
:102003000160030220A2781C7C017D017B017A0020
:102013007914121B1DEF60030220A21229C990003C
:102023005DE07004A3E0640160F4900061E4F0A358
:1020330004F01234431233BE900131E0FEA3E0FFFB
:10204300123275900275EEF0A3EFF012335A90023C
:1020530071E4F0A304F0900273E4F0A304F01229F6
:10206300C97FE87E031233057FE87E031233057FC1
:10207300F47E011233051234581230F57BFF7A2EA9
:1020830079D6122FF0E4900271F0A3F0900273F06E
:10209300A3F012344EE4900061F0A3F01229C912A8
:1020A30033BEE59A30E00B539AFE900130E59BF086
:1020B30080F0E4900070F01230F5021C45120046E7
:0A20C300E4900065F0A3F0021C4554
:1032E700D3EF9400EE940040147D6E7C00ED1D70CA
:0D32F700011CED4C70F7EF1F70E61E80E328
:0133040022A6
:10313600758920758DFD758BFDD28ED29CC29FD26E
:103146009ED2AFD2ACD2BC759A50759CFD438E1000
:1031560053A2EF43AF01E4F5B5F5B61233747F80A1
:093166001233AD122AC10232132A
:1033BE00C28EC2AFE4900271F0A3F0900273F0A33C
:0233CE00F022EB
:1030F500758920758DFD758BFDD28ED29CC29FD2B0
:103105009ED2AFD2AC759A50759CFD438E1053A2DA
:10311500EF43AF01E4900271F0A3F0900273F0A3C6
:10312500F0D2AFD28ED28CD2B21233747F800233FA
:01313500ADEC
:10335A00758911758CB2758AE0758DFB758B24D2CF
:0A336A00AFD28CD2A9D28ED2AB22D2
:09345800C2A9C28EC2ABD2AF22A0
:0B2FF0009001E2EBF0A3EAF0A3E9F08F
:102FFB009001E2E0FBA3E0FAA3E0F91200269001B6
:10300B00E5EEF0A3EFF09001E2E0FBA3E0FAA3E022
:10301B00F9E4FFFED39001E6E09FEE6480F89001A7
:10302B00E5E06480984018121860F5993099FDC25C
:0F303B0099740129F9E43AFA0FBF00010E80D50C
:01304A002263
:10321300E4F5D8F5E9F5F9F5D990027774B4F0A39C
:10322300E4F0900277E0FEA3E0F5EAEEF5FAE0249D
:1032330000F0900277E034B4F075DA49D2DED2AF11
:013243002268
:10287A004102140049022D52533233320000000043
:10288A0042021D000042021B0000420219000042DF
:04289A000217000021
:0334380012343B10
:07343B000000007F18DFFE16
:013442002267
:0E33F30000007F017EC27D9FDDFEDEFCDFFA62
:0134010022A8
:0C000E007F167E037DE3DDFEDEFCDFFAE2
:01001A0022C3
:10304B00E4FE9002257402F020A70A900225E0FF0F
:10305B0004F0EF70F312343812343BE490022AF090
:10306B0030A70204F09002257402F030A70A9002F8
:10307B0025E0FF04F0EF70F3900225E06401601689
:10308B00900239E025E0FFF090022AE04F900239E0
:06309B00F00EEEB408ACDB
:0130A100220C
:102B7000C2A71233F3D2A7123438D2A730A7030268
:102B80002C169002257402F020A70A900225E0FF7F
:102B900004F0EF70F39002257402F030A70A90025F
:102BA00025E0FF04F0EF70F312304B900239E09013
:102BB0000236F012304B900239E0900237F01230BA
:102BC0004B900239E090021FF012304B900239E036
:102BD000900220F012304B900239E0FF900229F071
:102BE000D2A7900220E0FE90021FE0FD2EFC900292
:102BF00036E0FB2CFCA3E0FA2C90022AF0B5071675
:102C0000A3EBF0A3EAF0900215EDF0A3EEF0900232
:072C100029E0900227F022E9
:1031A800122B70900215E0FF900219E4F0A3EFF0E3
:1031B800900216E0FF90021DE4F0A3EFF090022BBE
:1031C800E0FF900217E4F0A3EFF090022CE0FF90EC
:0831D800021BE4F0A3EFF0225A
:0F289E0042027505DC4202710000420273000025
:10330500EF1FAA0670011E4A6013E4FCFDC3ED948D
:0D3315007DEC940050EA0DBD00010C80F02D
:013322002288
:103275007C007D0B1218B8EF24F4FDEE3401FC122E
:1032850014FCE4FBFA7952784312145AE4FBFA79F8
:093295003478431213511215356F
:01329E00220D
:0B344300D2A2900000E4F0A304F022ED
:0A344E00C2A2E4900000F0A3F022F7
:1025500074657374002A72657475726E2074657385
:1025600074230A0047455454454D50455241545533
:102570005245002A54203D2025642E2564230A005C
:102580002A6F757431203D202564230A0047455485
:1025900048554E4944495459002A52203D2025644B
:1025A0002E2564230A002A6F757432203D2025648D
:1025B000230A004745544C49474854002A6F757414
:1025C00033203D202564230A005345545354454588
:1025D00052004F5554314F4E004F5554324F4E001C
:1025E0004F5554334F4E004F5554314F4646004FD0
:1025F0005554324F4646004F5554334F46460053CC
:1026000045545247420042504D4F4E0042504D4FAC
:102610004646005345544D4158005345544D494E8C
:10262000002A5468203D2025642C2074656D706D4F
:10263000696E203D202564230A002A54203D202570
:1026400064230A00434152445345540053544545C2
:1026500052534554004745544F5554310047455453
:102660004F555432004745544F55543300534F553E
:102670004E44464C4147004C49474854464C41471C
:10268000004745545245444C49474854002A726516
:10269000646C69676874203D202564230A004745FF
:1026A00054534F554E44464C4147002A736F756E44
:1026B00064203D202564230A00474554414C4C4684
:1026C0004C4147494E4954002A524742203D20255B
:1026D0006325632563230A002A62706D203D20254F
:1026E00064230A002A524546524553484F4B230A59
:1026F00000474554414C4C535441544500534554B4
:102700004D594C4544002A7267623A25632563257A
:1027100063230A002A4572726F7220436F64653A20
:102720002573230A002A436F6D6D616E6420446F28
:062730006E652E230A0075
:0528AD0042024C000096
:100046009001E574FFF0A37425F0A37450F0A3E4C7
:10005600F0A37404F07B017A007927122D2BEF7040
:100066002E9001E774FFF0A37425F0A37455F07B7E
:10007600017A0279531221327B017A027953122FC7
:10008600F090006DE4F0A304F090024C020A807B2D
:10009600FF7A2579641200269001E8EEF0A3EFF0CE
:1000A6009001E574FFF0A37425F0A37464F07B015E
:0A00B6007A007927122D2BEF706BF2
:1000C0009001DAF0A3F01231A89001E774FFF0A3D9
:1000D0007425F0A37473F0900219E0FFA3E090017F
:1000E000EACFF0A3EFF090021DE0FFA3E09001EC57
:1000F000CFF0A3EFF07B017A0279531221327B011A
:100100007A027953122FF030940A9001DAE4F0A3C6
:1001100004F08007E49001DAF0A3F09001E774FFA7
:08012000F0A37425F0A3748024
:1001280002021E7BFF7A2579641200269001E8EE10
:10013800F0A3EFF09001E574FFF0A37425F0A37429
:0E0148008DF07B017A007927122D2BEF706A63
:100156009001DAF0A3F01231A89001E774FFF0A342
:100166007425F0A37499F0900217E0FFA3E09001C4
:10017600EACFF0A3EFF090021BE0FFA3E09001ECC2
:10018600CFF0A3EFF07B017A0279531221327B0183
:100196007A027953122FF030970A9001DAE4F0A32D
:1001A60004F08007E49001DAF0A3F09001E774FF11
:0801B600F0A37425F0A374A668
:1001BE00805E7BFF7A2579B31200269001E8EEF07F
:1001CE00A3EFF09001E574FFF0A37425F0A374B3D0
:0D01DE00F07B017A007927122D2BEF70586D
:1001EB009001DAF0A3F01228C27B017A0179331265
:1001FB002FF030960A9001DAE4F0A304F08007E4C4
:10020B009001DAF0A3F09001E774FFF0A37425F0EE
:10021B00A374BCF09001DAE0FFA3E09001EACFF009
:10022B00A3EFF07B017A0279531221327B017A0220
:05023B007953122FF0C1
:100240000203287BFF7A2579C91200269001E8EE87
:10025000F0A3EFF09001E574FFF0A37425F0A37410
:10026000C9F07B017A007927122D2BEF600302037E
:100270002E90025004F0A37400F0A37427F0E490D1
:10028000024EF0A3F090025175F008803F900250AA
:10029000E0FBA3E0FAA3E0F9121860FF60333395A6
:1002A000E0FEEF24D0FBEE34FFFA90024EE0FEA316
:1002B000E0FF7C007D0A1218B8EF2BFFEE3A9002A7
:1002C0004EF0A3EFF0900251E475F00112191F8077
:1002D000BC1229C91233BE90024EE0FEA3E0FF1209
:1002E0003275900275EEF0A3EFF012335A9002715E
:1002F000E4F0A304F0900273E4F0A304F01229C91F
:100300007FE87E031233057FE87E031233057FF416
:100310007E011233051234581230F5E4900271F068
:10032000A3F0900273F0A3F01229C90213307BFFEF
:100330007A2579D21200269001E8EEF0A3EFF09032
:1003400001E574FFF0A37425F0A374D2F07B017A69
:10035000007927122D2BEF7005C2940213307BFF1A
:100360007A2579D91200269001E8EEF0A3EFF090FB
:1003700001E574FFF0A37425F0A374D9F07B017A32
:10038000007927122D2BEF7005C2970213307BFFE7
:100390007A2579E01200269001E8EEF0A3EFF090C4
:1003A00001E574FFF0A37425F0A374E0F07B017AFB
:1003B000007927122D2BEF7005C2960213307BFFB8
:1003C0007A2579E71200269001E8EEF0A3EFF0908D
:1003D00001E574FFF0A37425F0A374E7F07B017AC4
:1003E000007927122D2BEF7005D2940213307BFF7A
:1003F0007A2579EF1200269001E8EEF0A3EFF09055
:1004000001E574FFF0A37425F0A374EFF07B017A8B
:10041000007927122D2BEF7005D2970213307BFF46
:100420007A2579F71200269001E8EEF0A3EFF0901C
:1004300001E574FFF0A37425F0A374F7F07B017A53
:10044000007927122D2BEF7005D2960213307BFF17
:100450007A2579FF1200269001E8EEF0A3EFF090E4
:1004600001E574FFF0A37425F0A374FFF07B017A1B
:10047000007927122D2BEF703890002DE024D02426
:10048000FF92A1A3E024D024FF92A0A3E024D024D3
:10049000FF92A37FE87E031233057FE87E031233C9
:1004A000057FF47E01123305D2A3D2A0D2A102139C
:1004B000307BFF7A2679061200269001E8EEF0A341
:1004C000EFF09001E574FFF0A37426F0A37406F03A
:1004D0007B017A007927122D2BEF7006123443022C
:1004E00013307BFF7A26790C1200269001E8EEF09B
:1004F000A3EFF09001E574FFF0A37426F0A3740C51
:10050000F07B017A007927122D2BEF7003020C3952
:100510007BFF7A2679131200269001E8EEF0A3EF14
:10052000F09001E574FFF0A37426F0A37413F07B40
:10053000017A007927122D2BEF60030206F9900251
:100540005004F0A37400F0A37427F0900251E475F6
:10055000F00612191F900250E0FBA3E0FAA3E0F9A5
:1005600012186064547077900087F0A3F0900251E5
:1005700075F00412191F900250E0FBA3E0FAA3E00B
:10058000F9121860700C90007FF0A3F090008702C1
:1005900006A9900250E0FBA3E0FAA3E0F91218606C
:1005A000FF60333395E0FEEF24D0FBEE34FFFA908A
:1005B0000087E0FEA3E0FF7C007D0A1218B8EF2B55
:1005C000FFEE3A900087F0A3EFF0900251E475F04F
:1005D0000112191F80BC90007FE4F0A304F0900288
:1005E00050E0FBA3E0FAA3E0F9121860644C707CC1
:1005F00090006BF0A3F090025175F00512191F9056
:100600000250E0FBA3E0FAA3E0F912186070119029
:100610000067F0A3F090006B7486F0A3749FF02243
:10062000900250E0FBA3E0FAA3E0F9121860FF602B
:10063000333395E0FEEF24D0FBEE34FFFA90006BED
:10064000E0FEA3E0FF7C007D0A1218B8EF2BFFEE5E
:100650003A90006BF0A3EFF0900251E475F00112B4
:10066000191F80BC900067E4F0A304F0900250E0F2
:10067000FBA3E0FAA3E0F9121860644860030213D8
:1006800030900081F0A3F090025175F00412191F10
:10069000900250E0FBA3E0FAA3E0F9121860700F9B
:1006A000900077F0A3F0900081F0A37464F02290A2
:1006B0000250E0FBA3E0FAA3E0F9121860FF6033F8
:1006C0003395E0FEEF24D0FBEE34FFFA900081E09A
:1006D000FEA3E0FF7C007D0A1218B8EF2BFFEE3A74
:1006E000900081F0A3EFF0900251E475F00112192F
:1006F0001F80BC900077020A807BFF7A26791A124D
:1007000000269001E8EEF0A3EFF09001E574FFF011
:10071000A37426F0A3741AF07B017A007927122DB6
:100720002BEF600302095590025004F0A37400F00F
:10073000A37427F0900251E475F00612191F90027D
:1007400050E0FBA3E0FAA3E0F912186064546003E0
:1007500002080D900083F0A3F090025175F004128E
:10076000191F900250E0FBA3E0FAA3E0F912186011
:100770007011900079F0A3F090008374FFF0A374DF
:10078000D8F022900250E0FBA3E0FAA3E0F912189F
:1007900060FF60333395E0FEEF24D0FBEE34FFFAC8
:1007A000900083E0FEA3E0FF7C007D0A1218B8EF02
:1007B0002BFFEE3A900083F0A3EFF0900251E47526
:1007C000F00112191F80BC900079E4F0A304F090AE
:1007D00001E774FFF0A37426F0A37421F0900219CE
:1007E000E0FFA3E09001EACFF0A3EFF0900083E0F8
:1007F000FFA3E09001ECCFF0A3EFF07B017A027948
:10080000531221327B017A027953122FF090025059
:10081000E0FBA3E0FAA3E0F9121860644C60030265
:1008200008CA900069F0A3F090025175F005121902
:100830001F900250E0FBA3E0FAA3E0F912186070E9
:100840000E900063F0A3F074FF9000690209079016
:100850000250E0FBA3E0FAA3E0F9121860FF603356
:100860003395E0FEEF24D0FBEE34FFFA900069E010
:10087000FEA3E0FF7C007D0A1218B8EF2BFFEE3AD2
:10088000900069F0A3EFF0900251E475F0011219A5
:100890001F80BC900063E4F0A304F09001E774FFB4
:1008A000F0A37426F0A3743AF09001A6E0FFA3E051
:1008B0009001EACFF0A3EFF07B017A027953122185
:1008C000327B017A027953122FF0900250E0FBA3A1
:1008D000E0FAA3E0F9121860644860030213309054
:1008E000007BF0A3F090025175F00412191F9002E2
:1008F00050E0FBA3E0FAA3E0F9121860700D90003D
:1009000075F0A3F090007BF0A3F022900250E0FB82
:10091000A3E0FAA3E0F9121860FF60333395E0FE1C
:10092000EF24D0FBEE34FFFA90007BE0FEA3E0FF63
:100930007C007D0A1218B8EF2BFFEE3A90007BF096
:10094000A3EFF0900251E475F00112191F80BC90E2
:100950000075020A807BFF7A2679441200269001F6
:10096000E8EEF0A3EFF09001E574FFF0A37426F039
:10097000A37444F07B017A007927122D2BEF70705D
:100980007B019001DA04F0A37400F0A37414F090DA
:100990000250EBF0A37400F0A37427F0900251E42E
:1009A00075F0078031900250E0FBA3E0FAA3E0F974
:1009B000121860FF60259001DAE0FBA3E0FAA3E0E3
:1009C000F9EF1218A69001DBE475F00112191F90DF
:1009D0000251E475F00112191F80CA9001DAE0FBA0
:0D09E000A3E0FAA3E0F9E41218A6900025A8
:1009ED00020A817BFF7A26794C1200269001E8EEEF
:1009FD00F0A3EFF09001E574FFF0A37426F0A3745B
:100A0D004CF07B017A007927122D2BEF706D90023F
:100A1D005004F0A37400F0A37427F0900251E47514
:100A2D00F00812191FE4900131F0A3F0900250E08C
:100A3D00FBA3E0FAA3E0F9121860FF60333395E0F1
:100A4D00FEEF24D0FBEE34FFFA900131E0FEA3E07F
:100A5D00FF7C007D0A1218B8EF2BFFEE3A900131A2
:100A6D00F0A3EFF0900251E475F00112191F80BC54
:100A7D00900059E4F0A304F00213307BFF7A26793D
:100A8D00551200269001E8EEF0A3EFF09001E57409
:100A9D00FFF0A37426F0A37455F07B017A0079273B
:060AAD00122D2BEF702951
:100AB3009001DAF0A3F03094099001DAF0A304F086
:100AC3008007E49001DAF0A3F09001E774FFF0A34C
:060AD3007425F0A37480FD
:100AD90002125D7BFF7A26795D1200269001E8EE0D
:100AE900F0A3EFF09001E574FFF0A37426F0A3746E
:0E0AF9005DF07B017A007927122D2BEF70291A
:100B07009001DAF0A3F03097099001DAF0A304F02E
:100B17008007E49001DAF0A3F09001E774FFF0A3F7
:060B27007425F0A374A682
:100B2D0002125D7BFF7A2679651200269001E8EEB0
:100B3D00F0A3EFF09001E574FFF0A37426F0A37419
:0E0B4D0065F07B017A007927122D2BEF7029BD
:100B5B009001DAF0A3F03096099001DAF0A304F0DB
:100B6B008007E49001DAF0A3F09001E774FFF0A3A3
:060B7B007425F0A374BC18
:100B810002125D7BFF7A26796D1200269001E8EE54
:100B9100F0A3EFF09001E574FFF0A37426F0A374C5
:100BA1006DF07B017A007927122D2BEF70317B01DB
:100BB1007A00793090025004F0A3EAF0A3E9F01230
:100BC1001860FFB4310890005BE4F0A304F0EF6417
:100BD10030600302133090005BF0A3F00213307B0E
:100BE100FF7A2679771200269001E8EEF0A3EFF064
:100BF1009001E574FFF0A37426F0A37477F07B01F4
:100C01007A007927122D2BEF70347B017A0079302D
:100C110090025004F0A3EAF0A3E9F0121860FFB4C7
:100C21003108900073E4F0A304F0EF643060030234
:100C31001330900073F0A3F012344E0213307BFF97
:100C41007A2679811200269001E8EEF0A3EFF09068
:100C510001E574FFF0A37426F0A37481F07B017A9F
:090C6100007927122D2BEF7032EF
:100C6A009001DAF0A3F0900073E07004A3E064014D
:100C7A0070099001DAF0A304F08007E49001DAF039
:0F0C8A00A3F09001E774FFF0A37426F0A3748D1C
:100C990002125D7BFF7A26799E1200269001E8EE0A
:100CA900F0A3EFF09001E574FFF0A37426F0A374AC
:0E0CB9009EF07B017A007927122D2BEF70320E
:100CC7009001DAF0A3F090005BE07004A3E0640108
:100CD70070099001DAF0A304F08007E49001DAF0DC
:0F0CE700A3F09001E774FFF0A37426F0A374ABA1
:100CF60002125D7BFF7A2679B91200269001E8EE92
:100D0600F0A3EFF09001E574FFF0A37426F0A3744E
:100D1600B9F07B017A007927122D2BEF6003020FC1
:010D2600C408
:100D27009001DAF0A3F09001E774FFF0A37425F0C7
:100D3700A37473F0900219E0FFA3E09001EACFF0EB
:100D4700A3EFF090021DE0FFA3E09001ECCFF0A32A
:100D5700EFF07B017A0279531221327B017A027913
:100D670053122FF09001E774FFF0A37425F0A374DA
:100D770099F0900217E0FFA3E09001EACFF0A3EF0C
:100D8700F090021BE0FFA3E09001ECCFF0A3EFF09F
:100D97007B017A0279531221327B017A027953124D
:100DA7002FF07B017A017933122FF030940A9001EA
:100DB700DAE4F0A304F08007E49001DAF0A3F090FE
:100DC70001E774FFF0A37425F0A37480F09001DAB3
:100DD700E0FFA3E09001EACFF0A3EFF07B017A02F6
:100DE70079531221327B017A027953122FF030970F
:100DF7000A9001DAE4F0A304F08007E49001DAF046
:100E0700A3F09001E774FFF0A37425F0A374A6F094
:100E17009001DAE0FFA3E09001EACFF0A3EFF07BC7
:100E2700017A0279531221327B017A027953122F08
:100E3700F030960A9001DAE4F0A304F08007E4901A
:100E470001DAF0A3F09001E774FFF0A37425F0A393
:100E570074BCF09001DAE0FFA3E09001EACFF0A3C1
:100E6700EFF07B017A0279531221327B017A027902
:100E770053122FF020A109E49001DCF0A3F08008C1
:100E87009001DCE4F0A304F020A009E49001DEF077
:100E9700A3F080089001DEE4F0A304F020A309E4A6
:100EA7009001E0F0A3F080089001E0E4F0A304F0E3
:100EB7009001E774FFF0A37426F0A374C8F09000C4
:100EC70089E09001EAF090008AE09001EBF0900051
:100ED7008BE09001ECF07B017A0279531221327B8F
:100EE700017A027953122FF09001E774FFF0A3748F
:100EF70026F0A374D8F0900000E0FFA3E09001EA89
:100F0700CFF0A3EFF07B017A0279531221327B01F4
:100F17007A027953122FF090005BE07004A3E0642B
:100F27000170099001DAF0A304F08007E49001DA78
:100F3700F0A3F09001E774FFF0A37426F0A374AB5D
:100F4700F09001DAE0FFA3E09001EACFF0A3EFF021
:100F57007B017A0279531221327B017A027953128B
:100F67002FF0900073E07004A3E064017009900112
:100F7700DAF0A304F08007E49001DAF0A3F090011F
:100F8700E774FFF0A37426F0A3748DF09001DAE004
:100F9700FFA3E09001EACFF0A3EFF07B017A02799B
:100FA700531221327B017A027953122FF09001E715
:0A0FB70074FFF0A37426F0A374E4A5
:100FC10002126C7BFF7A2679F11200269001E8EE7D
:100FD100F0A3EFF09001E574FFF0A37426F0A37481
:100FE100F1F07B017A007927122D2BEF60030212B9
:010FF1007986
:100FF2009001DAF0A3F09001E774FFF0A37425F0FA
:10100200A37473F0900219E0FFA3E09001EACFF01D
:10101200A3EFF090021DE0FFA3E09001ECCFF0A35C
:10102200EFF07B017A0279531221327B017A027945
:1010320053122FF09001E774FFF0A37425F0A3740C
:1010420099F0900217E0FFA3E09001EACFF0A3EF3E
:10105200F090021BE0FFA3E09001ECCFF0A3EFF0D1
:101062007B017A0279531221327B017A027953127F
:101072002FF07B017A017933122FF030940A90011C
:10108200DAE4F0A304F08007E49001DAF0A3F09030
:1010920001E774FFF0A37425F0A37480F09001DAE5
:1010A200E0FFA3E09001EACFF0A3EFF07B017A0228
:1010B20079531221327B017A027953122FF0309741
:1010C2000A9001DAE4F0A304F08007E49001DAF078
:1010D200A3F09001E774FFF0A37425F0A374A6F0C7
:1010E2009001DAE0FFA3E09001EACFF0A3EFF07BFA
:1010F200017A0279531221327B017A027953122F3B
:10110200F030960A9001DAE4F0A304F08007E4904C
:1011120001DAF0A3F09001E774FFF0A37425F0A3C5
:1011220074BCF09001DAE0FFA3E09001EACFF0A3F3
:10113200EFF07B017A0279531221327B017A027934
:1011420053122FF020A109E49001DCF0A3F08008F3
:101152009001DCE4F0A304F020A009E49001DEF0A9
:10116200A3F080089001DEE4F0A304F020A309E4D8
:101172009001E0F0A3F080089001E0E4F0A304F015
:101182009001E774FFF0A37426F0A374C8F09000F6
:1011920089E09001EAF090008AE09001EBF0900083
:1011A2008BE09001ECF07B017A0279531221327BC1
:1011B200017A027953122FF09001E774FFF0A374C1
:1011C20026F0A374D8F0900000E0FFA3E09001EABB
:1011D200CFF0A3EFF07B017A0279531221327B0127
:1011E2007A027953122FF090005BE07004A3E0645E
:1011F2000170099001DAF0A304F08007E49001DAAB
:10120200F0A3F09001E774FFF0A37426F0A374AB8F
:10121200F09001DAE0FFA3E09001EACFF0A3EFF053
:101222007B017A0279531221327B017A02795312BD
:101232002FF0900073E07004A3E064017009900144
:10124200DAF0A304F08007E49001DAF0A3F0900151
:10125200E774FFF0A37426F0A3748DF09001DAE036
:10126200FFA3E09001EACFF0A3EFF07B017A0279CD
:0412720053122132C0
:101276000213277BFF7A2679FD1200269001E8EEFD
:10128600F0A3EFF09001E574FFF0A37426F0A374C9
:10129600FDF07B017A007927122D2BEF70607B0120
:1012A6007A00792F90025004F0A3EAF0A3E9F01235
:1012B6001860900089F090000112187990008AF069
:1012C600900002121879FF90008BF09001E774FFEE
:1012D600F0A37427F0A37406F0900089E09001EA69
:1012E600F090008AE09001EBF0A3EFF07A027953D8
:1012F6001221327B017A027953122FF0802390015A
:10130600E774FFF0A37427F0A37414F0A37401F03C
:10131600A37400F0A37427F07B017A02795312219B
:10132600327B017A027953122FF09001E774FFF0B5
:10133600A37427F0A37425F07B017A027953122156
:0B134600327B017A027953122FF02253
:0A28B20042027B000042027D00009C
:03002300022F2683
:0D2F2600C0E0C0F0C083C082C0D075D008EC
:102F330030984AAF99C298EF642A601A90005FE410
:102F430075F001121935FC742725F0F58274003CE5
:102F5300F583EFF0802790006DE4F0A3F090005F1D
:102F6300E0FEA3E02427F58274003EF583E4F090AD
:0D2F73000065F0A304F090005FE4F0A3F00F
:0B2F8000D0D0D082D083D0F0D0E0325F
:03004300022DB2D9
:102DB200C0E0C0F0C083C082C0D075D000C000C0E7
:102DC20004C006C007E59A30E053539AFE900130E2
:102DD200E59BF0E0FFB402079000F1E4F0A3F0EF0E
:102DE2006402601DEF640360189000F1E475F00165
:102DF200121935FC741C25F0F58274013CF583EF41
:102E0200F0EFB403189000707401F09000F1E0FE4E
:102E1200A3E0241AF58274013EF583E4F0D007D0D2
:102E220006D004D000D0D0D082D083D0F0D0E0320F
:03000B0002316F50
:10316F00C0E0C083C082C0D075D000C006C0079039
:10317F000271E0FEA3E0FF64014E7010D295758CD2
:10318F00B2758AE0EF64014E7002D28ED007D0067E
:09319F00D0D0D082D083D0E03200
:03001B000230A20E
:1030A200C0E0C083C082C0D075D000C003C004C0DD
:1030B20005C006C007900273E0FCA3E0FD64014C6A
:1030C200701EC295900275E0FEA3E0FFC3E49FFB71
:1030D200E49EF58DAF038F8BED64014C7002C28EBE
:1030E200D007D006D005D004D003D0D0D082D08370
:0330F200D0E032F9
:03003B00022E3260
:102E3200C0E0C0F0C083C082C0D075D000C000C066
:102E420001C002C003C004C005C006C007C2D890BA
:102E52000277E0FEA3E0F5EAEEF5FAE02400F09056
:102E62000277E034B4F090027EE004F07006900243
:102E72007DE004F090027DE07004A3E06428701508
:102E820090027DF0A3F090027BF0A3F01231A81221
:102E920028C21229C9D007D006D005D004D003D049
:102EA20002D001D000D0D0D082D083D0F0D0E03296
:10338E002A6C69676874203D202564230A004C6905
:09339E00676874203D20256400DD
:0528BC004201A600002E
:102CA300AB07AA067C277D101218CAEF24309001C7
:102CB3009CF07C277D10AF03AE021218CAAA04ABA6
:102CC300057C037DE8AF03AE021218CAEF243090EF
:102CD3000165F07C037DE8AF03AE021218CAAA04B3
:102CE300AB057C007D64AF03AE021218CAEF24303B
:102CF300A3F07C007D64AF03AE021218CAAA04AB32
:102D0300057C007D0AAF03AE021218CAEF2430908F
:102D1300019BF07C007D0AAF03AE021218CAAB051B
:082D2300EB243090019DF02229
:10333F00E4FDFCC3ED9FEC9E50107B127A98DAFEF1
:0A334F00DBFA000DBD00010C80E95F
:013359002251
:050003007F0CDFFE0090
:0100080022D5
:083461007F617E8DDEFEDFFAC3
:013469002240
:0F340200D2A4D2A5120003C2A4120003C2A522B5
:0C342C00C2A4D2A5120003D2A402000327
:0E341100A20992A4D2A5120003C2A5020003D4
:0D341F00D2A5120003A2A4C2A51200032230
:02332300AE07F3
:10332500E4FDEE25E0FE92A4D2A5120003C2A5128B
:0A33350000030DEDB408EB02341F95
:1032C600E4FED2A4FDEE25E0FED2A5120003A2A4E0
:1032D600E4334EFEC2A51200030DEDB408E7AF06B7
:0132E60022C5
:1033D000AC071234027F46123323AF0412332302A8
:0233E000342C8B
:103244001234027F47123323E4FC1232C6749E2CDC
:10325400F582E43401F583EFF0ECB40304D2098081
:1032640002C2091234110CECB403DF12342C023400
:0132740061F8
:05001E007F010233D058
:1028C20012001E7F011233D07F101233D07FB47EEC
:1028D2000012333F12324490019EE0FF900167E400
:1028E200F0A3EFF0E0FE90019FE07C002400FFECFB
:1028F2003EFE900167F0A3EFF0FDAC06EC1214FC73
:102902007B9A7A997999783F12145A121535122CBA
:10291200A3900165E024D0FFE434FFFE7C037DE850
:102922001218B8AA06AB0790019CE024D0FFE43449
:10293200FFFE7C277D101218B8EF2BFBEE3AFA90BF
:102942000166E024D0FFE434FFFE7C007D641218AF
:10295200B8EF2BFBEE3AFA90019BE024D0FFE4346F
:10296200FFFE7D0A1218B8EF2BFFEE3AFE90019D92
:10297200E024D0FDEC34FFCD2FFFED3EFE9001A60A
:10298200F0A3EFF09001E774FFF0A37433F0A374A7
:102992008EF0A3EEF0A3EFF07B017A0179331221DE
:1029A200329001E774FFF0A37433F0A3749CF090AB
:1029B20001A6E0FFA3E09001EACFF0A3EFF07B01D4
:0729C2007A0179690221325C
:102F8B002020543A4F46462020523A4F46462020A6
:102F9B0020202020200020202025732020202020EE
:102FAB0000202054203D2025642052203D20256404
:102FBB0020202020202020002020353144656D6FFB
:102FCB00426F61726420202020202000202020539B
:102FDB0074617274696E672E2E2E202020202020A3
:052FEB00202020200061
:1031E00074F32DF58274003CF583E0FF1233E27F27
:0331F000057E0059
:1031F300D3EF9400EE6480948040147D1E7C00ED38
:0F3203001D70011CED4C70F7EF1F70E41E80E191
:013212002299
:0633A700E4F0A3F07F80BA
:1033AD00C290C2918F801231EFD2A61231EFC2A618
:0133BD0022ED
:1033E200D290C2918F801231EFD2A61231EFC2A6D3
:0133F20022B8
:10337400C291C2A6C2917F381233AD7F0C1233AD15
:0A3384007F061233AD7F010233AD66
:1029C9009001E21233A7900219E0FEA3E0FFD3942D
:1029D90032EE648094809001E774FF400DF0A37497
:1029E9002FF0A3748BF0A3EE8014F0A3742FF0A33F
:1029F90074ACF0900219E0FFA3E09001EACFF0A3D4
:102A0900EFF0900217E0FFA3E09001ECCFF0A3EF05
:102A1900F07B017A0079F31221329001E774FFF01B
:102A2900A3742FF0A374A1F0A37401F0A37401F0AF
:102A3900A37469F07B017A017908122132E49001CB
:102A4900E2F0A3F07B017A0079F31200269001E20B
:102A5900E0FCA3E0FDC39FEE6480F8EC648098502D
:102A6900131231E09001E3E004F070D89001E2E044
:102A790004F080D07FC01233ADE49001E2F0A3F0FE
:102A89007B017A0179081200269001E2E0FCA3E0BB
:102A9900FDC39FEE6480F8EC648098501A74082D89
:102AA900F58274011231E79001E3E004F070D190EE
:072AB90001E2E004F080C916
:012AC00022F3
:102AC1009001DA1233A79001E774FFF0A3742FF09D
:102AD100A374C3F07B017A0079F31221329001E7EC
:102AE10074FFF0A3742FF0A374D7F07B017A0179FE
:102AF10008122132E49001DAF0A3F07B017A007927
:102B0100F31200269001DAE0FCA3E0FDC39FEE641E
:102B110080F8EC64809850131231E09001DBE004FE
:102B2100F070D89001DAE004F080D07FC01233ADAC
:102B3100E49001DAF0A3F07B017A01790812002612
:102B41009001DAE0FCA3E0FDC39FEE6480F8EC6441
:102B51008098501A74082DF58274011231E79001A2
:0E2B6100DBE004F070D19001DAE004F080C9EE
:012B6F002243
:10135100EC4D6011E8497017ED33EC3304600DE496
:10136100FCFFFEFD22E933E8330470F80215A112F7
:10137100156C58046009E4CC2481500628500902F8
:1013810015AB2840030215A8C0E0EB4A7044B980B0
:1013910006D0E0FB021597EF4E701CBD8008EBFFF5
:1013A100EAFEE9FD80EBE98DF0A4FEE5F002143AD6
:1013B100E9CDF9EAFEEBFFEF89F0A4FCE5F0CE8977
:1013C100F0A42EFFE435F0CD89F0A42DFEE435F034
:1013D1008067EF4E7005BD80D780C3EF8BF0A4AC62
:1013E100F0EE8BF0A42CFCE435F0F8EF8AF0A42C9D
:1013F100E5F038FCE433CB8DF0A42CFCE5F03BF8B0
:10140100EE8AF0A42CFCE5F038F8E433CF89F0A49F
:101411002CFCE5F038CF3400CE89F0A42FFFE5F0A5
:101421003EFEE433C98DF0A42EFEE5F039CD8AF0FD
:10143100A42FFFE5F03EFEE43DFD33D0E0FB500775
:101441000BBB000F0215ABEC2CFCEF33FFEE33FEB0
:06145100ED33FD021583DE
:101457000215ABEC5D046005E8590470030215A1A1
:1014670012156C580460F6EC4860F2EC7004FDFE4F
:10147700FF22C860DB2481C85009C3986002500668
:101487000215A89850CAF582E9294B4A7005AB8224
:1014970002159775F0007C1A7880C3EF9BEE9AEDE2
:1014A70099400DC3EF9BFFEE9AFEED99FDE842F0E0
:1014B700DC23ACF0D0E0FFD0E0FED0E0FDAB822033
:1014C700E7101BEB60BAEC2CFCEF33FFEE33FEEDBD
:1014D70033FD021583E803F830E705C0F075F00027
:1014E700EF2FFFEE33FEED33FD40B830E7C280AAA1
:1014F70075F020800E75F010800575F0087D007E70
:10150700007F003392D530D50312194BEC334010CE
:10151700EF33FFEE33FEED33FDEC33FCD5F0ED2278
:0E152700E5F0247EA2D513CC92E7CDCEFF22B4
:10153500EDD2E7CD33EC3392D524814006E4FFFEAE
:10154500FDFC22FCE4CFCECDCC24E0501174FF800D
:10155500EDC3CC13CCCD13CDCE13CECF13CF0470AA
:07156500F030D5DE02194B46
:1020CD00E51524E7F582E43401F583E0051522904A
:1020DD0001E43010039001E7E475F0011219590283
:1020ED0018602009E97F2ED2098018EF540F249033
:1020FD00D43440D4FF300D0BEF24BFB41A0050037D
:10210D002461FFE516600215160519E51970020523
:10211D001830100E9001E4E475F001121959EF0218
:10212D0018A602329F7403D2108003E4C210F51575
:10213D009001E4121970E4F516F518F519E516601D
:10214D00077F2012211080F57517FFC20AC209C240
:10215D000BC20CC20EC20FC2111220DCFF700D306B
:10216D0010057F00122121AF19AE1822B4255FC2D0
:10217D00D5C20D1220DCFF24D0B40A00501A75F020
:10218D000A781630D50508B6FF0106C6A426F62036
:10219D00D5047002D20C80D924CFB41A00EF5004AC
:1021AD00C2E5D20D022413D20A80C6D20980C0D254
:1021BD000B80BCD2D580BAD20E80B47F20122110F4
:1021CD00200B077401B5160040F11220CDFF12212E
:1021DD001002214AD211D20F80951220CDFB122070
:1021ED00CDFA1220CDF94A4B700679117A257BFF75
:1021FD00200B2EE516602A7E008E82758300121844
:10220D007960060EEE651770F0C2D5EBC0E0EAC03E
:10221D00E0E9C0E0EE122474D0E0F9D0E0FAD0E0AD
:10222D00FB121860FF60AAEBC0E0EAC0E0E9C0E075
:10223D00122110D0E02401F9D0E03400FAD0E0FBF7
:10224D00E5170460DCD517D98087D20B80A2122444
:10225D005660F7E5177001041215B6A917600DE564
:10226D0017600914F5171224FEEF60F3EA30E70248
:10227D00F404C3995079EAF425170430E701E40416
:10228D00F517800D12245660C1EA05172517121592
:10229D00B6EA900213F030E701E4251704D51704D0
:1022AD00200E0114122474E4C0E01224FE900213D7
:1022BD00E0601320E70714F01220F8802204F0D01C
:1022CD00E014C0E07F001220F8E51760071220EF40
:1022DD001517800B300E031220EFD0E002214AD0EB
:1022ED00E00480C4122456609EE517041215B690C2
:1022FD000213EAF0E517200E0260010424041224F3
:01230D00745B
:10230E0074FF04C0E01224FE1220F8E517200E021E
:10231E0060031220EFD0E0B517E87F45122102903E
:10232E000213E07F2B30E7047F2DF404C0E012216E
:10233E0010D0E075F00A84C0F01220F9D0E012201F
:10234E00F902214A791080027908C20FC211800861
:10235E00D2D5790A8004790AC2D5E517047002F540
:10236E0017E4FAFDFEFF1220CDFC7B08200A1312A3
:10237E0020CDFD7B1030090A1220CDFE1220CDFF9C
:10238E007B20EC3382D592D55013C3E43009069FDF
:10239E00FFE49EFEE4200A039DFDE49CFCE4CBF8E2
:1023AE00C20AEC700CCFCECDCCE824F8F870F380D6
:1023BE0017C3EF33FFEE33FEED33FDEC33FCEB339F
:1023CE00FB994002FB0FD8E9EB300A05F8D0E0C4C8
:1023DE0048B20AC0E00AEC4D4E4F78207B0070C226
:1023EE00EAB5170040BCC0E0122476D0F0D0E02051
:1023FE000A04C4C0E0C4B20AC0F01220F9D0F0D56D
:10240E00F0EB02214A12197921E75323525821B8D1
:10241E004C21B44223564F235E44235E4921CD43C3
:10242E0023645522914622F145225B4725315021E6
:10243E00BC2D21C02E21E32B21C42321E120251AFE
:10244E002A217C48000021DBE517B4FF037517062F
:10245E001220CDFC1220CDFD1220CDFE1220CDFF7C
:10246E0090020C0215F3790AA2D5200C14300E0935
:10247E00B910020404B9080104A2D5200F025001BC
:10248E0004200B68920BB516005034C0E07F20304C
:10249E000C197F30A20B720F720E500F1224CDC288
:1024AE000BC20FC20EC2117F30800F300E03E9C077
:1024BE00E0122110300E03D0E0F9D0E0B516CC308A
:1024CE000E177F30B9100C1221107F58300D077F78
:1024DE00788003B90803122110300B057F2D0221DD
:1024EE00107F202011F87F2B200FF322920B80CF2C
:1024FE007F00B40700500B240CF582E43402F58300
:10250E00E0FF22286E756C6C2900D20A1220CD30A5
:10251E000AF8C20A781630D50108F602217C2D5031
:10252E004349581220CD2403B405004001E4902500
:10253E002C93122101743A122101D20C7516040249
:02254E00235216
:10156C00E9D2E7C933E833F892D5EDD2E7CD33ECC5
:07157C0033FC5002B2D5223E
:10158300EC30E7100FBF000C0EBE00080DBD0004C9
:101593000BEB6014A2D5EB13FCED92E7FD2274FF75
:1015A300FCFDFEFF22E480F8A2D574FF13FC7D80CE
:0315B300E480EFE2
:1015B600F920E73624F950037907E4F42402FBE521
:1015C60082158270021583DBF6E024FB501BE9606E
:1015D60014E4F0E582158270021583E004F0B40A83
:0D15E60008E4F0D9EE7401F00A22C2D5220B
:1015F300ED33EC3392D5FA602AB4FF33EDC2E77BC7
:10160300FF60067A167918E4227A16792120D50428
:101613007A16791C224E614E002B494E46002D4905
:101623004E4600E47A08F0A3DAFC7B00740722C07C
:1016330083C082ECC0E0EDC0E0EEC0E0EFC0E0EAC2
:1016430075F010A4CAABF075F04DA42BFBE435F094
:10165300FCEA2410FAEB34C5FBEC34D9FCEDC2E709
:10166300FF75F056A4F42411C5F0F434C58FF0A42B
:101673002AE5F03BE43CF020E714121820D0E0FF09
:10168300D0E0FED0E0FDD0E0FC12145A8014F40444
:10169300121820D0E0FFD0E0FED0E0FDD0E0FC1235
:1016A3001351D082D083E0FAEDD2E7CD33EC33246B
:1016B30082FBE4C3CF33CFCE33CECD33CD33DBF395
:1016C3007B0775F00A846004F0A31B0AE5F0F0A31E
:1016D3008FF0740AA4FFACF08EF0740AA42CFEAC55
:1016E300F050010C8DF0740AA42CFDE435F0F0A346
:0516F300DBDE7407229C
:1016F8000215A1E86480F8E933E83360110460F06A
:10170800ED33EC337009E8FCE9FDEAFEEBFF220457
:1017180060DED3EB9FEA9EE99DE8C2E78CF0C2F752
:1017280095F0400CE8CCF8E9CDF9EACEFAEBCFFB1E
:1017380012156C85D0F05804700320D5B3E80470F6
:10174800075002B2D50215AB92D5EC0460F7E4CC91
:10175800C0E0C398F8603B94186008400DD0E0FBE7
:10176800021583E4FBFAC9FC8028E830E406E4C9E2
:10177800FBE4CAFCE830E305E4C9CACBFCE854073B
:101788006010F8C3E913F9EA13FAEB13FBEC13FC46
:10179800D8F130F52FC3E49CFCEF9BFFEE9AFEEDE9
:1017A80099FDD0E0FBEF4E4D4C701222DB03021581
:1017B800A8EC2CFCEF33FFEE33FEED33FDED30E704
:1017C800EB021583EF2BFFEE3AFEED39FDD0E0FB7F
:1017D80050130BBB00030215ABED13FDEE13FEEF28
:0817E80013FFEC13FC02158352
:1017F0003F8000004120000042C80000447A000001
:10180000461C400047C35000497424004B18968082
:101810004CBEBC205A0E1BCA6753C21C749DC5AE79
:10182000FB60065407601C232312184EEB543860EB
:101830000912183A121849121351ECF8EDF9EEFAA0
:10184000EFCB22EB12184980F1543803241C901777
:10185000F0FE93FC0EEE93FD0EEE930ECE93FF2260
:03000000022C17B8
:0C2C1700787FE4F6D8FD758122022C5E67
:10186000BB010689828A83E0225002E722BBFE0286
:09187000E32289828A83E49322B9
:10187900BB010CE58229F582E5833AF583E0225024
:1018890006E92582F8E622BBFE06E92582F8E2226E
:0D189900E58229F582E5833AF583E4932288
:1018A600BB010689828A83F0225002F722BBFE0121
:0218B600F3221B
:1018B800EF8DF0A4A8F0CF8CF0A428CE8DF0A42E44
:0218C800FE22FE
:1018CA00BC000BBE0029EF8DF084FFADF022E4CC02
:1018DA00F875F008EF2FFFEE33FEEC33FCEE9DECCB
:1018EA00984005FCEE9DFE0FD5F0E9E4CEFD22ED11
:1018FA00F8F5F0EE8420D21CFEADF075F008EF2F5B
:10190A00FFED33FD4007985006D5F0F222C398FD4B
:05191A000FD5F0EA22E8
:10191F00C5F0F8A3E028F0C5F0F8E5821582700253
:06192F001583E038F022F0
:10193500A3F8E0C5F025F0F0E58215827002158365
:06194500E0C838F0E822C2
:0E194B00C3E49FFFE49EFEE49DFDE49CFC22AD
:10195900F8E0FBA3A3E0F925F0F0E5821582700217
:071969001583E0FA38F022BB
:09197000EBF0A3EAF0A3E9F02278
:10197900D083D082F8E4937012740193700DA3A3FD
:1019890093F8740193F5828883E473740293686011
:06199900EFA3A3A380DF11
:10329F00EFB40A07740D1232AA740A309811A89964
:1032AF00B8130CC2983098FDA899C298B811F6308F
:0732BF0099FDC299F5992267
:10199F00E3F5F009E208B5F06D606B80F3E3F5F065
:1019AF0009E608B5F060605E80F387F009E608B5D8
:1019BF00F054605280F487F009E208B5F0486046B1
:1019CF0080F488828C8387F009E0A3B5F038603605
:1019DF0080F488828C8387F009E493A3B5F02760A5
:1019EF002580F388828C83E3F5F009E0A3B5F01628
:1019FF00601480F388828C83E3F5F009E493A3B538
:101A0F00F004600280F2021ACA808580E7808E801F
:101A1F00D2803C8015806C807E809B80B5808B80CF
:101A2F00A1804F8070803A021AD689828A83ECFA9D
:101A3F00E493F5F0A3C8C582C8CCC583CCE493A3C7
:101A4F00C8C582C8CCC583CCB5F070606E80E18903
:101A5F00828A83E493F5F0A3E208B5F05E605C80C0
:101A6F00F289828A83E0F5F0A3E608B5F04D604B6A
:101A7F0080F389828A83E0F5F0A3E208B5F03C6039
:101A8F003A80F389828A83E493F5F0A3E608B5F0F0
:101A9F002A602880F2805389828A83ECFAE493F5D6
:101AAF00F0A3C8C582C8CCC583CCE0A3C8C582C883
:101ABF00CCC583CCB5F004600280E27FFFB5F002A5
:101ACF000F2240027F012289828A83ECFAE0F5F02F
:101ADF00A3C8C582C8CCC583CCE0A3C8C582C8CC77
:101AEF00C583CCB5F0D560D380E389828A83ECFAC5
:101AFF00E0F5F0A3C8C582C8CCC583CCE493A3C8D6
:101B0F00C582C8CCC583CCB5F0B160AF80E288F098
:101B1F00ED2402B4040050A3F582EB2402B40400B8
:0B1B2F0050992323458223901A18735D
:102D2B009001E2EBF0A3EAF0A3E9F09001E5E0FB00
:102D3B00A3E0FAA3E0F9121860FE9001E2E0FBA316
:102D4B00E0FAA3E0F9121860FF6E702AEF600E90A4
:102D5B0001E874FFF5F012191F45F070037F002294
:102D6B009001E3E475F00112191F9001E6E475F090
:102D7B000112191F80B59001E2E0FBA3E0FAA3E07A
:102D8B00F9121860FDD3EE6480F8ED64809840036F
:102D9B007F01229001E5E0FBA3E0FAA3E0F9121812
:072DAB0060FFC3ED9FFF2252
:101B3A00E709F60870FA8046E709F20870FA803E6B
:101B4A0088828C83E709F0A370FA807EE309F6089D
:101B5A0070FA8076E309F20870FA806E88828C83C4
:101B6A00E309F0A370FA806289828A83E0A3F60807
:101B7A0070FA805689828A83E0A3F20870FA804A52
:101B8A0080D280FA80C680D4806580F2803180104D
:101B9A0080A680EA809A80A880DA80E280CA8031B2
:101BAA0089828A83ECFAE493A3C8C582C8CCC58328
:101BBA00CCF0A3C8C582C8CCC583CC70E9800D8996
:101BCA00828A83E493A3F60870F9ECFAA9F0EDFB94
:101BDA002289828A83ECFAE0A3C8C582C8CCC5836D
:101BEA00CCF0A3C8C582C8CCC583CC70EA80DD8995
:101BFA00828A83E493A3F20870F980CE88F0ED24F8
:101C0A0002B4040050C4F582EB2402B4040050BAB2
:091C1A002323458223901B8A73E9
:10002600E4FFFE121860600C0FEF70010E09E97014
:05003600F20A80EF2238
:102C2300021C23E493A3F8E493A34003F68001F288
:102C330008DFF48029E493A3F85407240CC8C333B2
:102C4300C4540F4420C8834004F456800146F6DF81
:102C5300E4800B0102040810204080902736E47EB4
:102C6300019360BCA3FF543F30E509541FFEE49376
:102C7300A360010ECF54C025E060A840B8E493A33D
:102C8300FAE493A3F8E493A3C8C582C8CAC583CA68
:102C9300F0A3C8C582C8CAC583CADFE9DEE780BE20
:0128C1000016
:00000001FF
